:020000040800F2
:10000000580900209D010008A5010008A70100086B
:10001000A9010008AB010008AD01000800000000C4
:10002000000000000000000000000000AF01000818
:10003000B101000800000000B3010008D528000845
:10004000B7010008B7010008B7010008B7010008B0
:10005000B7010008B7010008BB0A0008B701000893
:10006000B7010008B7010008B7010008B701000890
:10007000B7010008B7010008B7010008B701000880
:10008000B7010008B7010008FD080008B701000823
:10009000B7010008B7010008B7010008B701000860
:1000A000B7010008B7010008B7010008B701000850
:1000B000B7010008B7010008B7010008B701000840
:1000C000B7010008B7010008B7010008B701000830
:1000D000B7010008B7010008B7010008B701000820
:1000E000B7010008B7010008B7010008B701000810
:1000F000B7010008B7010008B7010008B701000800
:10010000B7010008B7010008B7010008B7010008EF
:10011000B7010008B7010008B7010008B7010008DF
:10012000B7010008B7010008B7010008B7010008CF
:10013000B7010008B7010008B7010008B7010008BF
:10014000B7010008B7010008B7010008B7010008AF
:10015000B7010008B7010008B7010008B70100089F
:10016000B7010008B7010008B7010008B70100088F
:10017000B7010008B7010008B7010008000000003F
:10018000B7010008B7010008DFF80CD000F0A4FBAD
:1001900000480047794D000858090020064880476C
:1001A00006480047FEE7FEE7FEE7FEE7FEE7FEE75C
:1001B000FEE7FEE7FEE7FEE7C12900088901000827
:1001C0002DE9F05F0546002092469B46884606468C
:1001D000814640241BE0284641464746224600F01F
:1001E000EAF953465A46C01A914110D311461846AF
:1001F000224600F0D1F92D1A67EB01084F4622463E
:100200000120002100F0C8F917EB00094E41201E23
:10021000A4F10104DFDC484631462A464346BDE8E6
:10022000F09F2DE9FE4F804681EA0300C00F0C4687
:10023000009021F0004123F00045B8EB0200A941F5
:1002400005D24046214690461C460B46024623F006
:100250000040104347D0270DC7F30A00C3F30A51EB
:100260000290401A019040286BDAC3F3130040F467
:10027000801B0098924620B10023D2EB030A63EB67
:100280000B0B01985946C0F14002504600F084F92A
:1002900006460D4650465946019A00F09CF910EB6F
:1002A00008006141002487EA115284EAE7731A4387
:1002B00040D0009A62B3019A012A4FEA075215DC36
:1002C000001B61EB02014FF0004202EA0752CDE948
:1002D0000042001C41F5801132462B4600F0D3F954
:1002E00003B0BDE8F08F40462146F9E7001B61EB03
:1002F0000201001C41F5801300185B412018A2F593
:10030000001747EB030140EAD570B6196D4111E0C3
:100310006D084FEA360645EAC0754FEA0752001BE2
:1003200061EB0201001C41F5801149084FEA3000E1
:100330000019514132462B4603B0BDE8F04F00F0A2
:1003400093B90098012240000023D0EB020263EB36
:10035000E073009821464FEAE074B8EB000061EBCF
:100360000401E9E783F000435BE781F0004158E7CF
:100370002DE9F04D81EA030404F0004B21F0004523
:1003800014464FF0000A23F0004150EA050220D045
:1003900054EA01021DD0C5F30A570246C5F3130300
:1003A000C1F31300C1F30A5640F4801543F48013DF
:1003B000A7EB0608101BD64608F2FD3873EB0500C4
:1003C00002D308F1010801E092185B41B8F1000F77
:1003D00003DA00200146BDE8F08D00204FF48011C3
:1003E000064684460EE0171B73EB050705D3121B68
:1003F00063EB050306434CEA010C49084FEA300061
:1004000092185B4150EA0107EDD152EA030012D085
:1004100082EA040083EA0501084305D0101BAB41C2
:1004200006D20122002306E000224FF0004302E042
:100430006FF0010253101AEB06004CEB085110EB61
:100440000A0041EB0B01BDE8F04D00F00DB90EB50F
:10045000C10F80EAE0700844CA07002140F233432C
:100460008DE80E000A460B4600F00DF903B000BD02
:1004700070B5C1F30A5201F000450024C1F3130125
:1004800040F2FF3341F480119A4201DA002070BD3E
:1004900040F233439A42A2F2334203DC524200F06C
:1004A0008AF800E090402C43F1D0404270BD00F04B
:1004B000004230F000400AD0C10D01F56071C0F378
:1004C000160042EA0151C20840071143704700205C
:1004D0000146704730B5041E71F1000404DB4FF093
:1004E0000044404264EB0101141E73F1000405DB7B
:1004F0001C464FF00043524263EB04038B4208BF9B
:10050000824230BD30B5041E71F1000404DB4FF0AF
:100510000044404264EB0101141E73F1000405DB4A
:100520001C464FF00043524263EB0403994208BF5C
:10053000904230BD01F0004330B421F0004150EA58
:10054000010206D00A0DA2F56072C1F31301002A60
:1005500002DC30BC00207047440F44EAC104C100F3
:10056000E01830BC00EBC25000F047B830B50B4685
:10057000014600202022012409E021FA02F59D42D3
:1005800005D303FA02F5491B04FA02F52844151EA7
:10059000A2F10102F1DC30BD202A04DB203A00FA8E
:1005A00002F1002070479140C2F1200320FA03F3CA
:1005B000194390407047202A04DB203A21FA02F0C8
:1005C0000021704721FA02F3D040C2F1200291408D
:1005D000084319467047202A06DBCB17203A41FA18
:1005E00002F043EAE07306E041FA02F3D040C2F1C0
:1005F000200291400843194670470029A8BF704760
:10060000401C490008BF20F00100704710B4B0FA48
:1006100080FC00FA0CF050EA010404BF10BC7047E3
:1006200049B1CCF1200421FA04F411FA0CF118BFFD
:10063000012121430843A3EB0C01CB1D4FEA0061CC
:100640004FEA102042BF002010BC704700EBC3509F
:1006500010440029A4BF10BC7047401C490008BFCB
:1006600020F0010010BC704710B5141E73F1000497
:1006700008DA401C41F1000192185B411A4301D194
:1006800020F0010010BD2DE9F04D92469B4611B1BE
:10069000B1FA81F202E0B0FA80F220329046FFF720
:1006A0007BFF04460F4640EA0A0041EA0B0153462D
:1006B0005A46084313D0114653EA010019D0C8F135
:1006C00040025046FFF777FF05460E465046594612
:1006D0004246FFF761FF084305D0012004E02046B1
:1006E0003946BDE8F08D0020054346EAE0762C430C
:1006F00037430A986305E40AA0EB08000022FD0ACC
:1007000044EA47540A3002D500200146E9E70105D2
:1007100010196941DDE9084500196941BDE8F04D4E
:10072000A2E72DE9FE4F81EA030404F0004421F022
:10073000004100944FF0000B23F0004350EA010405
:100740005ED052EA03045BD0C3F30A54C1F30A55E6
:100750002C44A4F2F3340194A0FB0254C1F313011E
:1007600041F48011C3F3130343F4801301FB0244EB
:1007700000FB034E840A970A44EA815447EA8357F0
:10078000A4FB076802958D0A05FB07854FEA932CA9
:1007900004FB0C542705029D4FEA065847EA16371A
:1007A000B5EB08056EEB070C870E920E47EA811732
:1007B00042EA8312A7FB0201B6EB0B0164EB0004D3
:1007C0002B0D43EA0C335E1844EB1C50DA465146BD
:1007D000E7FB0201C5F313044FEA0B3343EA14535A
:1007E0004FEA0432019C43EA0603A4F10C0402948C
:1007F000009CCDE900B4FFF746FF03B0BDE8F08FE1
:1008000000200146F9E72DE9F04D00231A461B1A96
:100810008A4103DB00200146BDE8F08DC1F30A5296
:10082000C1F3130141F480154FF0000BD10702D141
:1008300000186D41521E0027044640F2FF11384651
:1008400001EB620A3E468046024600204FF48011CA
:10085000FFF7B1FEC2197141BB1846EB0100B4EBC2
:10086000030C75EB000C04D3E41A65EB0005174686
:100870000E46241908F101006D4180463428E3DD5D
:10088000F91946EB0600091BA84103D24FF0FF32CD
:10089000134601E0002213461BEB070046EB0A510A
:1008A000BDE8F04DFFF7E0BEC1F30A52C1F31301FA
:1008B00040F2FF3341F480119A4202DA00200146EF
:1008C000704740F233439A42A2F2334202DC524272
:1008D000FFF771BEFFF760BE064C074D06E0E0680B
:1008E00040F0010394E8070098471034AC42F6D377
:1008F000FFF74EFC585100087851000810B5024827
:1009000000F0A9FA10BD00005C04002054494A68B8
:1009100022F440324A604A6843681A434A600268D7
:10092000526822F4807203685A6002685368026950
:1009300043EA022203685A600268526822F0407259
:1009400003685A600268526883681A4303685A60F1
:100950000268926822F4006203689A6002689268F2
:10096000C3681A4303689A603E4B826A9A4218D061
:100970000268926822F0706203689A600268926866
:10098000836A1A4303689A600268926822F04052B0
:1009900003689A6002689268C36A1A4303689A609F
:1009A0000BE00268926822F0706203689A60026845
:1009B000926822F0405203689A600268926822F0BE
:1009C000020203689A6002689368826943EA4202FD
:1009D00003689A60026AA2B10268526842F4006237
:1009E00003685A600268526822F4604203685A60E1
:1009F00002685368426A521E43EA423203685A60F0
:100A000005E00268526822F4006203685A600268D6
:100A1000D26A22F470020368DA620268D36A828BB7
:100A2000521E43EA02520368DA620268926822F4B4
:100A3000007203689A6002689368026B43EA42227C
:100A400003689A600268926822F4806203689A6080
:100A500002689368426943EA822203689A60704799
:100A6000002301400100000F0146002205E00023A1
:100A700001F55F7040F82230521C0F2AF7D3002294
:100A800004E0002301F58E708354521CB2F5007F00
:100A9000F7D3002008704870012088700020C1F84A
:100AA000B80301230B7640238B7100234B7681F82A
:100AB0001C33012381F81D33704710B5012000F06D
:100AC0008BFB10BD10B50246002006E0134C431C02
:100AD00054F8233044F82030401C0428F6DB0F483B
:100AE00002619FED0F0A81ED000A002012E091EDF6
:100AF000000A0A4B53F8203000EE903AF8EEE00A74
:100B0000084B03EB800393ED001A00EE810A81EDA0
:100B1000000A401C0528EADB10BD00001C0500206F
:100B200000000000200000207047000038B5024699
:100B30000020009000BF92F83C00012801D1022063
:100B400038BD012082F83C0000BF0868092816D98A
:100B50001068C0680C780A3C04EB44050724AC40DC
:100B6000A0431468E0600C780A3C04EB44048868F5
:100B7000A0401468E46820431468E06013E0106843
:100B800000690C7804EB44050724AC40A0431468CA
:100B900020610C7804EB44048868A0401468246940
:100BA0002043146820614868072817D21068406BFA
:100BB0000C79641E04EB84051F24AC40A043146828
:100BC0006063088880B20C79641E04EB8404A04042
:100BD0001468646B20431468606331E048680D2832
:100BE00017D21068006B0C79E41F04EB84051F24F6
:100BF000AC40A04314682063088880B20C79E41FDD
:100C000004EB8404A0401468246B20431468206320
:100C100016E01068C06A0C790D3C04EB84051F24B3
:100C2000AC40A0431468E062088880B20C790D3CA7
:100C300004EB8404A0401468E46A20431468E06272
:100C4000194B1A4C1068A04206D10868122803D12B
:100C5000586840F480005860144C1068A0421CD1C1
:100C60000868102802D00868112816D1586840F486
:100C700000005860086810280FD10D4800680D4C1E
:100C8000B0FBF4F000EB80004000009002E0009820
:100C9000401E009000980028F9D100BF002082F883
:100CA0003C0000BF00BF4BE7002301400020014093
:100CB0008800002040420F0070B52DED068B0546E0
:100CC000544800F0C4F8044653492046FFF7FAFEA2
:100CD000514890ED000ADFED510A20EE200ADFEDC9
:100CE000500A80EE201ABDEEC10A4E4880ED000A7F
:100CF00000200BE04C4A411C02EB810191ED000AFF
:100D0000114601EB800181ED000A401C0928F1DB4E
:100D100044480068404300EE100AB8EEC00A42485A
:100D200080ED090A41480068FFF7C1FB41EC1A0B4E
:100D30009FED3F0B53EC102BFFF773FA41EC190BAF
:100D4000FFF7F8FB394908609FED3B8A002009E076
:100D5000354901EB800191ED000A30EE080AB0EE52
:100D6000408A401C0A28F3DB34480068401C4FF4DA
:100D7000FA7190FBF1F201FB1200304908602B4838
:100D800090ED000AF2EE040AB4EEE00AF1EE10FA79
:100D900002D290ED000A01E0B2EE040AC8EE008A29
:100DA00018EE900AFFF783FB41EC1A0BB0EE4A0AEB
:100DB000F0EE6A0A02F0B8FFB0EE409AF0EE609AE8
:100DC00051EC190BFFF754FB164908600846006800
:100DD000642190FBF1F00A2190FBF1F201FB12007B
:100DE000174908600F4800680A2190FBF1F090FB5A
:100DF000F1F201FB1200134908600A4800680A2159
:100E000090FBF1F201FB12000F490860BDEC068B6C
:100E100070BD00005C0400206000002000009643CC
:100E200000007F436C0000203005002038000020C7
:100E3000000000000000F03F00000000440000201F
:100E400054000020580000205C000020704701463C
:100E50000868C06C704770B50446002500262068FD
:100E60000068C0F3400520684068C0F3401695B3A1
:100E70008EB3206C00F0100018B9206C40F40070A4
:100E800020642068806800F04050E8B9A069D8B9B3
:100E90002068C06A00F4700020B12068806800F407
:100EA000806088B92068406820F020002168486090
:100EB000206C20F480702064206C00F4805018B9FD
:100EC000206C40F0010020642046FFF7F5FE6FF033
:100ED00012002168086020680068C0F3800520685F
:100EE0004068C0F3C016E5B3DEB3206C00F010001C
:100EF00018B9206C40F4005020642068806800F429
:100F0000401038BB2068806B00F4401020B120688E
:100F1000806800F48060E8B92068406800F4806070
:100F2000C0B92068806800F0405098B9A06988B9BD
:100F30002068406820F0800021684860206C20F420
:100F400080502064206C00F4807018B9206C40F050
:100F5000010020642046FFF7E7FD6FF00C002168D8
:100F600008602068006800F0010520684068C0F350
:100F7000801685B17EB12068006800F0010050B194
:100F8000206C40F480302064204600F053F86FF06D
:100F900001002168086020680068C0F340152068DF
:100FA0004068C0F380667DB176B1606C40F00200AD
:100FB00060646FF02000216808602046FFF746FF5C
:100FC0006FF020002168086070BD000070B5044615
:100FD00000250CB9012070BD1549A06A884200D0D7
:100FE00000BF206C30B90020606484F83C002046CB
:100FF00000F022F8206C00F0100088B9206C20F47A
:10100000885040F0020020642046FFF77FFC00205B
:101010006064206C20F0020040F00100206400E0D9
:10102000012500BF002084F83C0000BF2846D2E71D
:101030000100000F7047000010B586B00446144947
:101040002068884221D100BF00200090114800682C
:1010500040F480700F4908600846006800F4807012
:10106000009000BF00BF02200190032002900020EA
:10107000039001A9084800F0BDF800221146122093
:1010800000F0FEFB122000F0EEFB06B010BD0000E9
:1010900000200140443802400000024008B50146EB
:1010A0000020009000BF91F83C00012801D10220EF
:1010B00008BD012081F83C0000BF0868806800F08E
:1010C0000100A0B90868806840F001000B689860D2
:1010D00031480068314BB0FBF3F000EB400000906A
:1010E00002E00098401E009000980028F9D108689E
:1010F000806800F0010000284BD0086C40F20163CA
:10110000984340F4807008640868406800F4806088
:1011100028B1086C20F4005040F480500864086C3A
:1011200000F4805020B1486C20F00600486401E0D3
:101130000020486400BF002081F83C0000BF184A2E
:101140006FF022000B68186008684068154B184360
:101150000B685860506800F01F0058B90868806834
:1011600000F04050A8B90868806840F080400B68E3
:1011700098600EE00C4B086898420AD108688068B5
:1011800000F0405028B90868806840F080400B6843
:10119000986000208CE700008800002040420F008B
:1011A00000230140200000040020014070B50446E7
:1011B00000F026F906462546681C10B10448007860
:1011C000054400BF00F01CF9801BA842FAD370BD93
:1011D000080000207047000010B50446044800686D
:1011E000204020B1024804602046FFF7F3FF10BD05
:1011F000143C0140F8B502460B46002500240020AF
:101200000021DCE0012606FA01F51E6806EA050465
:10121000AC4273D15E68022E02D05E68122E13D1EA
:10122000CF0802F1200656F827004E07F70E0F26CA
:10123000BE40B0434F07FF0E1E69BE403043CF088B
:1012400002F1200646F8270010684F000326BE4032
:10125000B0431E7906F003064F00BE4030431060D5
:101260005E68012E08D05E68022E05D05E68112EE1
:1012700002D05E68122E13D190684F000326BE4044
:10128000B0434F00DE68BE40304390605068012696
:101290008E40B0431E79C6F300168E403043506036
:1012A000D0684F000326BE40B0434F009E68BE404A
:1012B0003043D0605E6806F08056B6F1805F7DD125
:1012C00000BF00260096404E366846F480463E4FEA
:1012D0003E603E46366806F48046009600BF00BF7A
:1012E0003A4E8F0856F827008E07370F0F26BE405C
:1012F000B043374EB24202D1002624E05EE0354EC4
:10130000B24201D101261EE0334EB24201D1022683
:1013100019E0324EB24201D1032614E0304EB242FF
:1013200001D104260FE02F4EB24201D105260AE07A
:101330002D4EB24201D1062605E02C4EB24201D11B
:10134000072600E008268F073F0FBE4030431F4EA0
:101350008F0846F82700264E3068A0435E6806F4E2
:101360008036B6F5803F00D12043214E3060361DD7
:101370003068A0435E6806F40036B6F5003F00D141
:1013800020431B4E361D3060361D3068A0435E681A
:1013900006F48016B6F5801F00D12043144E08369F
:1013A0003060361D3068A0435E6806F40016B6F55E
:1013B000001F00D120430E4E0C363060491C10290E
:1013C000FFF420AFF8BD0000443802400838014067
:1013D000000002400004024000080240000C0240ED
:1013E000001002400014024000180240001C02409D
:1013F000003C01400AB1816101E00B048361704748
:1014000001480068704700000000002010B5044645
:10141000206802F05DFA10BD024601EB810302F183
:10142000380000EBC30090F8240070472DE9FE4F10
:1014300004460D4616461F46DDE90D9ADDF830805C
:101440004FF0000B00BF94F89002012802D1022057
:10145000BDE8FE8F012084F8900200BF05EB8501F6
:1014600004F1380000F8317005EB850100EBC10094
:10147000A0F808A005EB850104F1380000EBC100DD
:10148000457005EB850104F1380000EBC10080F8E0
:10149000079006F07F0105EB850204F1380000EBB0
:1014A000C2008170C6F3C01105EB850204F138005B
:1014B00000EBC200C17005EB850104F1380000EBC0
:1014C000C10080F804808DE800073B46324629467B
:1014D000206802F006FA834600BF002084F89002DC
:1014E00000BF5846B4E72DE9F05F04460D461646A6
:1014F0001F46DDE90BB9DDF834A0DDF8288005EBE7
:10150000850104F1380000EBC100C67005EB8501D0
:1015100004F1380000EBC100C771B8F1000F08D129
:10152000032105EB850204F1380000EBC200817253
:1015300007E0022105EB850204F1380000EBC20050
:10154000817237B1012F7DD0022F3DD0032F3AD1C8
:1015500082E0B8F1010F36D1AEBBB9F1000F07D16F
:10156000012105EB850204F1380000EBC200417651
:1015700005EB850104F1380000EBC100407E40B965
:10158000002105EB850204F1380000EBC2008172F6
:1015900007E0022105EB850204F1380000EBC200F0
:1015A000817205EB850104F1380000EBC10090F871
:1015B0002400022807D005EB850104F1380000EB78
:1015C000C10080F805A085E05EBB05EB850104F154
:1015D000380000EBC100407E40B9002105EB8502D8
:1015E00004F1380000EBC200817207E0022105EB34
:1015F000850204F1380000EBC200817205EB850121
:1016000004F1380000EBC10090F82400022822D039
:1016100005EB850104F1380000EBC10080F805A05E
:1016200019E005EB850104F1380000EBC100007EF4
:1016300048B9002105EB850204F1380000EBC20037
:10164000817208E03DE0022105EB850204F13800DB
:1016500000EBC20081723DE0CEB905EB850104F1DB
:10166000380000EBC100407E40B9002105EB850247
:1016700004F1380000EBC200817221E0022105EB89
:10168000850204F1380000EBC200817218E005EB1E
:10169000850104F1380000EBC100007E40B9002153
:1016A00005EB850204F1380000EBC200817207E00F
:1016B000022105EB850204F1380000EBC2008172C3
:1016C00008E0002105EB850204F1380000EBC200C0
:1016D000817200BF00BF05EB850104F1380000EB0B
:1016E000C100C0F80CB005EB850104F1380000EB37
:1016F000C100C0F81090002105EB850204F138000C
:1017000000EBC20080F8241005EB850204F13800DC
:1017100000EBC200416105EB850104F1380000EBEC
:10172000C1004570002105EB850204F1380000EB93
:10173000C20080F82510227C05EB850C04F13803EB
:1017400003EBCC01206802F091F9BDE8F09F10B5E1
:101750000446206802F04EFA10BD10B5044600BFE2
:1017600094F89002012801D1022010BD012084F8D4
:10177000900200BF206802F055FA00BF002084F8F4
:10178000900200BF00BFF0E710B50D48006840F4BC
:1017900000700B4908600846006840F480600860EB
:1017A0000846006840F480700860032000F0A6F846
:1017B000002000F007F800F02BF8002010BD00001A
:1017C000003C024070B504460E4800784FF47A7130
:1017D000B1FBF0F00C490968B1FBF0F5284600F0C8
:1017E000F7FB08B1012070BD102C07D20022214662
:1017F000501E00F045F80548046001E00120F2E7C2
:101800000020F0E7080000208800002004000020ED
:1018100010B5072000F072F8002211466FF00B009F
:1018200000F02EF8002211466FF00A0000F028F8B0
:10183000002211466FF0090000F022F80022114644
:10184000501F00F01DF800221146101F00F018F87C
:1018500000221146901E00F013F800221146501E7F
:1018600000F00EF810BD00BF00F01F0201219140F2
:101870004209920002F1E022C2F8001100BF704755
:101880002DE9F05F80460D461646002701F006F868
:10189000074639462A46334601F00700C0F1070AD9
:1018A000BAF1040F02D94FF0040A01E0C0F1070AAF
:1018B000D14600F1040ABAF1070F02D24FF0000A34
:1018C00001E0A0F1030AD4464FF0010A0AFA09FA2E
:1018D000AAF1010A0AEA020A0AFA0CFA4FF0010B0D
:1018E0000BFA0CFBABF1010B0BEA030B4AEA0B04FE
:1018F0002146404600F0DAFFBDE8F09F00BF00F04F
:101900000702064B19684FF6FF031940044B0B43BF
:1019100043EA0221014B196000BF70470CED00E063
:101920000000FA0570B504460D460CB9012070BDE3
:101930005848006800F00F00A84209D255490D70C0
:101940000846006800F00F00A84201D00120EEE731
:10195000207800F0020002281DD1207800F0040059
:10196000042805D14C48006840F4E0504A4908601A
:10197000207800F00800082805D14748006840F4A6
:101980006040454908604448006820F0F000A168C4
:10199000084341490860207800F00100A8B360685E
:1019A000012807D13C4808380068C0F34040B8B966
:1019B0000120BCE76068022802D06068032807D1D4
:1019C000354808380068C0F3406048B90120AEE7E8
:1019D000314808380068C0F3400008B90120A6E784
:1019E0002D48006820F00300616808432A49086018
:1019F000FFF706FD064609E0FFF702FD801B41F2F6
:101A00008831884202D9032091E707E02248006824
:101A100000F00C006168B0EB810FEDD11D4800684B
:101A200000F00F00A84209D91A490D700846006855
:101A300000F00F00A84201D0012078E7207800F0E4
:101A40000400042807D11448006820F4E050E1683D
:101A5000084311490860207800F00800082808D1E0
:101A60000D48006820F46040216940EAC1000A493D
:101A7000086000F01DF808490968C1F30311074A1E
:101A8000515CC840064908600020FFF79BFE00201B
:101A90004DE70000003C0240083802404051000879
:101AA000880000200148006870470000880000207E
:101AB0002DE9F047002400250026A14625480068AE
:101AC00000F00C0020B1042805D008283AD105E028
:101AD000DFF8849039E0DFF8849036E01D48001F7D
:101AE000006800F03F041B48001F006800F48000FD
:101AF00078B11A481749091F0968C1F38811A0FB7A
:101B000001700146224600233846FEF759FB054680
:101B10000EE011480F49091F0968C1F38811A0FBA5
:101B200001700146224600233846FEF749FB054670
:101B30000848001F0068C0F30140401C4600B5FB88
:101B4000F6F902E0DFF8109000BF00BF4846BDE89C
:101B5000F0870000083802400024F40000127A00E8
:101B6000F8B504460CB90120F8BD207800F001005A
:101B7000002874D0F948006800F00C0004280DD04B
:101B8000F648006800F00C00082813D1F348001F45
:101B9000006800F48000B0F5800F0BD1EF480838E2
:101BA0000068C0F34040002859D06068002856D132
:101BB0000120D9E700BF6068B0F5803F08D1E74851
:101BC0000838006840F48030E449083908601EE0B5
:101BD0006068B0F5A02F0DD1E0480838006840F4E7
:101BE0008020DE49083908600846006840F48030EB
:101BF00008600CE0D9480838006820F48030D749E4
:101C0000083908600846006820F48020086000BF9A
:101C1000606890B1FFF7F4FB054606E0FFF7F0FBC4
:101C2000401B642801D903209EE7CC48083800688F
:101C3000C0F340400028F1D011E0FFF7E1FB05467A
:101C400006E0FFF7DDFB401B642801D903208BE78A
:101C5000C24808380068C0F340400028F1D120781D
:101C600000F0020002285FD1BC48006800F00C00C0
:101C700058B1BA48006800F00C0008281CD1B748D9
:101C8000001F006800F48000B0B9B448083800684C
:101C9000C0F3400020B1E068012801D0012063E7D3
:101CA000AE480838006820F0F800216940EAC10019
:101CB000AA490839086037E0E06800B30120A84964
:101CC0000860FFF79DFB054606E0FFF799FB401B08
:101CD000022801D9032047E7A04808380068C0F36C
:101CE00040000028F1D09D480838006820F0F80036
:101CF000216940EAC10099490839086014E00020D0
:101D000097490860FFF77CFB054606E0FFF778FB84
:101D1000401B022801D9032026E7904808380068B4
:101D2000C0F340000028F1D1207800F00800082816
:101D30002CD16069A8B101208A490860FFF760FBD7
:101D4000054606E0FFF75CFB401B022801D9032093
:101D50000AE782486C300068C0F340000028F1D0E8
:101D600014E000207F490860FFF74AFB054606E0C3
:101D7000FFF746FB401B022801D90320F4E6774811
:101D80006C300068C0F340000028F1D1207800F0EA
:101D90000400042870D1002670483830006800F034
:101DA000805090B900BF002000906C483830006827
:101DB00040F080506949383108600846006800F0FA
:101DC0008050009000BF00BF01266748006800F403
:101DD0008070B0B96448006840F48070624908605F
:101DE000FFF70EFB054606E0FFF70AFB401B022843
:101DF00001D90320B8E65C48006800F48070002830
:101E0000F2D000BFA068012808D1544868300068AB
:101E100040F001005149683108601DE0A0680528C4
:101E20000DD14E486830006840F004004B496831DD
:101E300008600846006840F0010008600CE0474870
:101E40006830006820F001004449683108600846A5
:101E5000006820F00400086000BFA068A8B1FFF788
:101E6000CFFA054609E0FFF7CBFA401B41F2883173
:101E7000884202D9032077E626E0384868300068B7
:101E8000C0F340000028EED013E0FFF7B9FA054692
:101E900008E0FFF7B5FA401B41F28831884201D9CA
:101EA000032061E62D4868300068C0F34000002838
:101EB000EFD1012E07D129483830006820F080503A
:101EC00026493831086000BFA069B8B323480068CC
:101ED00000F00C0008285ED0A069022846D100203E
:101EE0001F490866FFF78CFA054606E0FFF788FAF7
:101EF000401B022801D9032036E61848083800683C
:101F0000C0F340600028F1D1D4E907010843616AB9
:101F100040EA81110122A06AC2EB500041EA00416F
:101F20002C20005D41EA00600C49091F0860012077
:101F30000B490866FFF764FA054607E02DE0FFF756
:101F40005FFA401B022801D903200DE60348083838
:101F50000068C0F340600028F1D01EE0083802405D
:101F600000004742800E47420070004000200C49AC
:101F70000866FFF745FA054606E0FFF741FA401B01
:101F8000022801D90320EFE506480068C0F340604D
:101F90000028F2D101E00120E6E50020E4E50000A0
:101FA0000000474200380240042808D14FF0E021E9
:101FB000096941F004014FF0E022116107E04FF0A0
:101FC000E021096921F004014FF0E022116170471E
:101FD00070B504462546681EB0F1807F01D301200C
:101FE0000FE0681E4FF0E02148610F214FF0FF30F5
:101FF00000F05CFC00204FF0E021886107200861C0
:10200000002070BD024600BF92F83800012801D1BF
:1020100002207047012082F8380000BF022082F8B9
:1020200039001068406820F070001368586010682C
:1020300040680B681843136858601068806820F087
:10204000800013689860106880684B6818431368B4
:102050009860012082F8390000BF002082F8380023
:1020600000BF00BFD5E710B504460CB9012010BD74
:1020700094F8390028B9002084F83800204600F090
:102080000DF8022084F83900211D206800F0CAFCF8
:10209000012084F839000020E9E7000008B5016854
:1020A000B1F1804F0FD100BF0021009106490968AE
:1020B00041F00101044A11601146096801F0010173
:1020C000009100BF00BF08BD403802400146022019
:1020D00081F839000868006840F001000A68106063
:1020E000012081F83900002070472DE9F0410446B5
:1020F0000D46002600BF94F83800012802D10220C6
:10210000BDE8F081012084F8380000BF022084F887
:1021100039002068866826F0770626F47F46206816
:102120008660286850283BD00CDC202860D004DC76
:10213000002853D0102865D155E030285DD04028C4
:1021400060D141E0602835D070280DD0B0F5805FB7
:1021500003D0B0F5005F55D115E02068806820F00D
:102160000700216888604EE0D5E902136A6820689C
:1021700000F0D8FC2068866826F0770646F07706DF
:10218000206886603FE0D5E902136A68206800F0A5
:10219000C9FC2068806840F480402168886032E093
:1021A000EA686968206800F0B3FD5021206800F0FB
:1021B000C5FC28E0EA686968206800F0BEFD60217F
:1021C000206800F0BBFC1EE0EA686968206800F047
:1021D0009FFD4021206800F0B1FC14E00021206840
:1021E00000F0ACFC0FE01021206800F0A7FC0AE032
:1021F0002021206800F0A2FC05E03021206800F0DA
:102200009DFC00E000BF00BF012084F8390000BF42
:10221000002084F8380000BF00BF71E710B586B019
:1022200004460949206888420CD1402001900220D0
:1022300002900020039004900220059001A9034819
:10224000FEF7D8FF06B010BD0004004000080240B1
:1022500070B504460D46164600BF94F838000128B4
:1022600001D1022070BD012084F8380000BF022097
:1022700084F8390036B1042E1BD0082E31D00C2E34
:102280005ED145E02946206800F062FC2068806944
:1022900040F00800216888612068806920F004000F
:1022A00021688861206880692969084321688861FC
:1022B00047E02946206800F083FC2068806940F4EC
:1022C0000060216888612068806920F4806021684E
:1022D000886120688069296940EA01202168886155
:1022E0002FE02946206800F0A7FC2068C06940F074
:1022F00008002168C8612068C06920F004002168D6
:10230000C8612068C069296908432168C86118E06C
:102310002946206800F0CCFC2068C06940F40060C9
:102320002168C8612068C06920F480602168C861A4
:102330002068C069296940EA01202168C86100E07D
:1023400000BF00BF012084F8390000BF002084F8DE
:10235000380000BF00BF85E710B504460CB9012066
:1023600010BD94F8390028B9002084F838002046C0
:1023700000F00CF8022084F83900211D206800F0DC
:1023800051FB012084F839000020E9E708B50A4A2A
:10239000016891420FD100BF0021009107490968EF
:1023A00041F00201054A11601146096801F002017D
:1023B000009100BF00BF08BD00040040403802404B
:1023C00030B504460D4601222946206800F09CFBEA
:1023D0000C492068884203D00B492068884201D10B
:1023E000012000E0002028B12068406C40F400404B
:1023F000216848642068006840F001002168086096
:10240000002030BD00000140000401401FB5194804
:10241000194908604FF480304860410216488160D5
:1024200000210161816101624FF08051C1624FF072
:10243000C06181620021C1600121C161002101638D
:1024400001214161FEF7C2FD20B14FF4C7710BA01D
:1024500001F057FC01200090019002200290694693
:102460000548FEF763FB20B14FF4CC7103A001F0E7
:1024700048FC1FBD002001405C0400202E2E2F537D
:1024800072632F6D61696E2E6300000000B587B026
:1024900000BF00200190B248006840F01000B04931
:1024A00008600846006800F01000019000BF00BFFF
:1024B00000BF002001900846006840F0040008605A
:1024C0000846006800F00400019000BF00BF00BF94
:1024D000002001900846006840F08000086008462F
:1024E000006800F08000019000BF00BF00BF002026
:1024F00001900846006840F0010008600846006846
:1025000000F00100019000BF00BF00BF002001905B
:102510000846006840F0020008600846006800F0C5
:102520000200019000BF00BF00BF002001900846DC
:10253000006840F0080008600846006800F00800E5
:10254000019000BF00BF002208218648FEF752FF1D
:10255000012211468448FEF74DFF00224FF2100180
:102560008248FEF747FF08200290012003900020D8
:102570000490059002A97B48FEF73CFE01200290E2
:10258000039000200490059002A97748FEF732FEE0
:10259000082002900220039000200490059005205E
:1025A000069002A97048FEF725FE012002907048AF
:1025B00003900020049002A96E48FEF71BFEE02065
:1025C00002900220039000200490059005200690C0
:1025D00002A96848FEF70EFE042002900020039036
:1025E000049002A96448FEF705FE4FF48060029053
:1025F000022003900020049005900520069002A977
:102600005D48FEF7F7FD4FF21000029001200390A5
:1026100000200490059002A95448FEF7EBFD4FF40A
:10262000A450029002200390002004900590062000
:10263000069002A94C48FEF7DDFD4FF400700290B1
:1026400000200390049002A94A48FEF7D3FD4FF4FE
:10265000E0500290022003900020049005900A2090
:10266000069002A94348FEF7C5FD202002900020F5
:102670000390049002A93D48FEF7BCFD4FF4107092
:102680000290122003900120049000200590042065
:10269000069002A93848FEF7ADFD022002903448AA
:1026A00003900020049002A92E48FEF7A3FD0D2000
:1026B00002900120039000200490059002A92B486D
:1026C000FEF798FD4FF204000290012003900020D5
:1026D000049002A92848FEF78DFD4FF47260029025
:1026E000012003900020049002A92048FEF782FDFB
:1026F00047F6F4500290012003900020049002203D
:10270000059002A91748FEF775FD002247F6F4511F
:102710001448FEF76FFE0220029001200390002073
:1027200004900220059002A91348FEF763FD0022E1
:1027300002211148FEF75EFE012002900F4803902F
:102740000020049002A90B48FEF754FD0022114618
:102750000620FFF795F80620FFF785F807B000BDC3
:10276000303802400010024000080240000C0240D5
:10277000000012100000024000040240000011108E
:1027800000B587B04FF0804017490860174848608F
:102790000021154881600A21C16000210161FFF715
:1027A00062FC20B140F2AB1111A001F0AAFA4FF483
:1027B0008050039003A90C48FFF797FC20B140F22A
:1027C000B1110BA001F09DFA202001900020029091
:1027D00001A90548FFF716FC20B14FF4DC7104A0F5
:1027E00001F08FFA07B000BDA404002020480100CA
:1027F0002E2E2F5372632F6D61696E2E63000000C1
:1028000000B589B01B481C490860002048600021C1
:1028100019488160B821C16000210161FFF79CFD6A
:1028200020B140F2CB1115A001F06BFA0020079007
:10283000089007A91048FFF7E5FB20B14FF4E971B4
:102840000EA001F05EFA602000900020019002903E
:102850000490002269460848FFF7FAFC20B140F2D4
:10286000DB1106A001F04DFA0348FFF7D7FC09B0D1
:1028700000BD000000040040E00400202E2E2F5375
:1028800072632F6D61696E2E6300000010B50248FF
:1028900000F0C2FE10BD0000940000200248006855
:1028A000C0F30220704700000CED00E010B50028D6
:1028B00007DA0A07140E054A00F00F031B1FD45451
:1028C00003E00A07130E024A135410BD18ED00E08E
:1028D00000E400E001200149086070471800002072
:1028E00010B592B000BF002000902F48006840F063
:1028F00080502D4908600846006800F08050009024
:1029000000BF00BF00BF002000902848006840F4CE
:102910008040264908600846006800F48040009026
:1029200000BF00BF012006900004079002200C9019
:1029300041050D9108210E914FF4A8710F910221CC
:1029400010910721119106A8FFF70AF920B140F272
:102950005B1117A001F0D5F90F2001900220029021
:10296000002003904FF4A05004904FF48050059045
:10297000052101A8FEF7D6FF20B140F269110CA095
:1029800001F0BFF9FFF78EF83221B0FBF1F42046D9
:10299000FFF71EFB0420FFF707FB00221146501E25
:1029A000FEF76EFF12B010BD4038024000700040CC
:1029B0002E2E2F5372632F6D61696E2E63000000FF
:1029C0001448006840F4700012490860124800681A
:1029D00040F001001049086000200F4908310860EC
:1029E0000D4800680D4908400B4908600C48091D56
:1029F0000860081F006820F48020091F086000207C
:102A000005490C3108604FF00060024980390860C8
:102A10007047000088ED00E000380240FFFFF6FE3E
:102A200010300024002202682C4B98420ED0B0F1E6
:102A3000804F0BD02A4B984208D02A4B984205D0A1
:102A4000294B984202D0294B984201D1012300E042
:102A500000231BB122F070024B681A431F4B9842AF
:102A600020D0B0F1804F1DD01D4B98421AD01D4B85
:102A7000984217D01C4B984214D01C4B984211D04E
:102A80001B4B98420ED01B4B98420BD01A4B9842CE
:102A900008D01A4B984205D0194B984202D0194BD6
:102AA000984201D1012300E000231BB122F44072BF
:102AB000CB681A4302608B68C3620B688362074B62
:102AC000984202D0094B984201D1012300E0002333
:102AD0000BB10B69036301234361704700000140A0
:102AE0000004004000080040000C004000040140C9
:102AF00000400140004401400048014000180040EF
:102B0000001C00400020004030B50023012404FADE
:102B100001F3046A9C430462046A02FA01F52C433F
:102B2000046230BD30B50C460021816821F47F413C
:102B300042EA032525432943816030BD0A4600212E
:102B4000816821F0700142F00703194381607047EA
:102B500030B5002400220023056A25F00105056236
:102B6000026A4368846924F0700424F003040D6849
:102B70002C4322F002028D682A430F4DA84202D056
:102B80000E4DA84201D1012500E000256DB122F0D3
:102B90000802CD682A4322F0040223F4807323F450
:102BA00000734D692B438D692B43436084614D68ED
:102BB0004563026230BD0000000001400004014096
:102BC00030B5002400220023056A25F010050562B7
:102BD000026A4368846924F4E04424F440740D6874
:102BE00044EA052422F020028D6842EA0512104DC5
:102BF000A84202D00F4DA84201D1012500E00025D6
:102C000085B122F08002CD6842EA051222F040022E
:102C100023F4806323F400634D6943EA85038D69DF
:102C200043EA8503436084614D688563026230BD79
:102C3000000001400004014030B5002400220023C0
:102C4000056A25F480750562026A4368C46924F048
:102C5000700424F003040D682C4322F400728D6884
:102C600042EA0522104DA84202D0104DA84201D1DF
:102C7000012500E0002585B122F40062CD6842EA1A
:102C8000052222F4806223F4805323F400534D691B
:102C900043EA05138D6943EA05134360C4614D6837
:102CA000C563026230BD0000000001400004014025
:102CB00030B5002200230024056A25F48055056202
:102CC000036A4468C26922F4E04222F440720D684B
:102CD00042EA052223F400538D6843EA05330A4D86
:102CE000A84202D0094DA84201D1012500E00025EB
:102CF00025B124F480444D6944EA85144460C261DE
:102D00004D680564036230BD0000014000040140CD
:102D100030B50B46144600210022026A056A25F0F0
:102D200001050562816921F0F00141EA041122F0F8
:102D30000A021A438161026230BD30B50B46144667
:102D400000210022056A25F0100505628169026AEA
:102D500021F4704141EA043122F0A00242EA031258
:102D60008161026230BD70B506460D46304600F006
:102D7000A4F804464FF6FF70844205D045F40041A4
:102D800006F55F7040F82410E0B270BD2DE9FF41F8
:102D900007460C4615461E460020012103460A46FA
:102DA0008DE8320003903146384600F00EFB0020DB
:102DB00004B0BDE8F0812DE9F04104460E46174607
:102DC0000125A078012802D0022819D107E0A660C9
:102DD000A781012121760220A070012511E0204663
:102DE00000F0D1F805462DB90120A0700021217610
:102DF000002504E0022D02D10120A07000BF00E0F8
:102E000000BF00BF2846BDE8F0812DE9FF41044620
:102E10000D4617461E46DDF8288094F81D0308B1BC
:102E20004FF00008012000231A4631468DE8A10129
:102E3000204600F0CAFA002004B0BDE8F0817FB55A
:102E400006460C46154600200821CDE9000403463D
:102E50000246CDE902102946304600F0B6FA0020BD
:102E600004B070BD10B504462046FEF79FF910BDB2
:102E70002DE9F04104460E4615461F46DDF8188040
:102E8000A078012812D146F08001217406216174D6
:102E9000658205F47F40B0F5407F03D140F20941DF
:102EA000A18201E00021A182A4F8168042463946A1
:102EB0002046FFF780FFBDE8F0810246002100BFF9
:102EC0000AE002F55F7030F8210000F4004008B914
:102ED00008467047481CC1B20B29F2DB4FF6FF7061
:102EE000F7E710B502460B88147823440B8013785B
:102EF000981810BDF8B504460D4604F11C0633467B
:102F00004FF40072002120460095FFF7B1FF071E25
:102F100005D12A46314604F2323000F0A6FA38468E
:102F2000F8BDF8B504460D4604F58E734FF4807273
:102F3000002120460095FFF79BFF061E06D12A467A
:102F400004F58E7104F5487000F0FCFA3046F8BDC7
:102F50002DE9F84304460E4617461D4646F44072D6
:102F600004F58E73002120460095FFF781FFB0F134
:102F7000000805D12A46394604F58E7000F031FB71
:102F80004046BDE8F883F8B5044601270025207EB9
:102F90000C2872D2DFE800F0D2060F303C4E5C788D
:102FA0008498A6BB627904F110012046FFF747FF21
:102FB00002212176C3E06179204600F088F90546B8
:102FC000012D14D1207C00F08006E08A38B1802EDB
:102FD00002D1032121760EE0052121760BE0802E1F
:102FE00002D10921217606E00721217603E0042D94
:102FF00001D10B212176A2E0D4F8B803E081237936
:10300000A2892046A168FFF7C1FE0421217696E03F
:103010002179204600F05BF90546012D01D10921F7
:103020002176052D01D1032703E0042D01D10B21C9
:10303000217684E0012000906379A2892046A1686E
:10304000FFF7E3FED4F8B803E0810621217676E0AD
:103050006179204600F03BF90546012D02D1072198
:10306000217610E0052D03D10C21217603270AE0FB
:10307000022D03D10521217605E05FE0042D02D168
:103080000B21217602275AE023790022114620469F
:10309000FFF77CFED4F8B803E081082121764EE0EA
:1030A0002179204600F013F90546012D03D10D21A9
:1030B0002176002707E0042D02D10B21217602E0C2
:1030C000052D00D103273AE001200090637900220A
:1030D00011462046FFF799FED4F8B803E0810A2193
:1030E00021762CE06179204600F0F1F80546012DAB
:1030F00003D100270D21217608E0022D02D10921FC
:10310000217603E0042D01D10B21217617E0607EAA
:10311000401CC1B26176022907DC204600F037F975
:10312000012121760120A07007E006212046D4F875
:10313000C423904700216176022700E000BF00BF52
:103140003846F8BD3EB504460125607808287CD293
:10315000DFE800F0042A325B636C7F91082120468F
:10316000FFF7DFFEF8B994F82713A1710120607012
:10317000A079002294F81D13CDE90012029094F872
:103180001C3321798022204600F05AF9A0790022D0
:1031900094F81D13CDE90012029094F81C33617964
:1031A000204600F04DF977E012212046FFF7B9FEE6
:1031B00008B9022060706FE00121204600F002FB98
:1031C00010BB0220FFF74EFE012184F81C130320E0
:1031D0006070A079002294F81D13CDE900120290CE
:1031E00094F81C3321798022204600F029F9A07937
:1031F000002294F81D13CDE90012029094F81C33BC
:103200006179204600F01CF946E009212046FFF7CD
:1032100071FE08B9042060703EE0B4F83413204613
:10322000FFF768FE08B90520607035E094F82E03BA
:1032300060B194F82E13FF2304F58E722046FFF739
:1032400087FE28B90620607002E024E00620607046
:1032500022E094F82F0358B194F82F13FF2304F5BC
:103260008E722046FFF774FE20B90720607001E0DF
:103270000720607010E094F8300350B194F83013D8
:10328000FF2304F58E722046FFF762FE10B9002579
:1032900000E0002500E000BF00BF28463EBD70B53D
:1032A00004460125D4F8C003FEF7B0F820B1012888
:1032B00004D0022806D103E0002505E0012503E043
:1032C000022501E0012500BF00BF284670BD70B592
:1032D00004460D462946D4F8C003FEF79DF870BD9C
:1032E0002DE9FF5F04460D4616461F46DDE90F9A9D
:1032F000DDF838804FF0000B002003908DE80007C8
:103300003B4632462946D4F8C003FEF78FF8834681
:10331000BBF1000F09D0BBF1010F09D0BBF1020FC7
:1033200009D0BBF1030F0CD108E0002003900BE0A3
:103330000220039008E00120039005E002200390A2
:1033400002E00220039000BF00BF039804B0BDE874
:10335000F09F70B5044600250026D4F8C003FEF7A0
:10336000F6F9054635B1012D06D0022D06D0032D04
:1033700008D105E0002607E0022605E0012603E06B
:10338000022601E0022600BF00BF304670BD70B5C6
:10339000044600250026D4F8C003FEF7DEF90546F2
:1033A00035B1012D06D0022D06D0032D08D105E040
:1033B000002607E0022605E0012603E0022601E0E0
:1033C000022600BF00BF304670BD2DE9F04F85B02A
:1033D00004460D4616461F46DDE9109ADDF83C808E
:1033E0004FF0000B002004900E988DE801073B463B
:1033F00032462946D4F8C003FEF775F88346BBF180
:10340000000F09D0BBF1010F09D0BBF1020F09D0A9
:10341000BBF1030F0CD108E0002004900BE0022068
:10342000049008E00120049005E00220049002E0EE
:103430000220049000BF00BF049805B0BDE8F08FE3
:103440002DE9FE4F04460D4616461F46DDE90D9A4E
:10345000DDF830803B463246294620468DE800079D
:10346000FFF73EFF0020BDE8FE8F2DE9F84F044630
:103470000E46934635464FF00008C14600BF3078EF
:10348000207070786070B178F07801EB0020608077
:103490003079207170796071B079A071F079E07144
:1034A000307A2072BBF1090F4ADD09200090002715
:1034B0003EE069462846FFF714FD05466878042873
:1034C00036D108EB880000EBC80104F10A0000EBDC
:1034D00041072946384600F071F84FF00009CA4606
:1034E0001AE069462846FFF7FCFC0546687805287F
:1034F00012D108EB880000EBC80104F10A0000EBD0
:1035000041000A3000EBC90A2946504600F046F84F
:1035100009F101004FFA80F93879484504DD6088E7
:10352000BDF800108842DCDC08F101004FFA80F899
:10353000B8F1020F04DA6088BDF800108842B8DCE8
:10354000BDE8F88F10B50B7803704B7843708C781A
:10355000CB7804EB032343800B7903714B794371E0
:103560008B798371CB79C371082A16DD0C7A4B7A7B
:1035700004EB032303818C7ACB7A04EB032343818E
:103580000C7B4B7B04EB032383818B7B8373CB7B93
:10359000C3730B7C03744B7C437410BD0A780270B8
:1035A0004A7842708A788270CA78C2700B794A79F8
:1035B00003EB022282808A79827170470A78027056
:1035C0004A7842708A788270CA78C2700A79027129
:1035D0004A7942718A798271CA79C2710A7A027211
:1035E000704730B513464578032D14D10578AD1ECC
:1035F0009D4202DC0578AD1E00E01D46ACB2801C89
:10360000002204E0855C0D70491C951CAAB2A24200
:10361000F8DB00250D7030BD7FB504460220039015
:10362000002520780D2872D2DFE800F0071314B7C8
:10363000C6449C556069AEC6C70094F81E0338B1F5
:1036400001202070C820FFF70DFC2046FFF781FE07
:10365000B4E0B3E06420FFF705FC2046FFF71FFE4F
:1036600084F81D030520207000212046FFF77BFB16
:10367000607180212046FFF776FB2071A07900223F
:1036800094F81D13CDE90012029094F81C332179AF
:1036900080222046FFF7D4FEA079002294F81D1363
:1036A000CDE90012029094F81C3361792046FFF7AF
:1036B000C7FE83E02046FFF745FD58B9002184F896
:1036C0001F1394F83103012802D10820207001E073
:1036D0000720207072E0D4F8C40330B101212046E5
:1036E000D4F8C42390470820207067E094F837137B
:1036F000204600F07BF808B9092020705EE0D4F87D
:10370000780340B30020C4F87403002511E053E0AF
:1037100004F55C7050F82500017994F8410381426A
:1037200005D104F55C7050F82500C4F87403681CDA
:10373000C5B2012DECDBD4F8740380B1D4F8740366
:1037400081682046884738B906202070032120462A
:10375000D4F8C423904704E00C20207001E00C2032
:1037600020702BE0D4F8740358B1D4F874030169C5
:103770002046884703909DF80C0020B90A2020704D
:1037800001E00C20207019E0D4F8740320B1D4F8C3
:10379000740341692046884710E02046FDF764F92C
:1037A000D4F8740338B1D4F87403C168204688474C
:1037B0000020C4F8740301E000BF00BF00BF002078
:1037C00004B070BD70B504460D46A078012807D13D
:1037D000002121740521617465820021A182E182AA
:1037E000002211462046FFF7E6FA70BD70B5044688
:1037F0000D46A078012807D10021217409216174A8
:1038000065820021A182E182002211462046FFF755
:10381000D2FA70BD0146886820F00100886000205F
:103820007047000030B50246012400230C4800EA2E
:10383000C44040F0004502F5A06000EB4110056176
:1038400002F5A06000EB4110036823F0804343F0D1
:10385000004302F5A06000EB41100360002030BD82
:103860000000F81F0146886840F0010088600020D1
:1038700070470000014600221020086100BF501C64
:103880000246064B984201D903207047086900F0B0
:1038900010001028F3D00020F7E70000400D0300CF
:1038A00010B502460023202040EA8110106100BFBD
:1038B000581C0346054CA04201D9032010BD1069D5
:1038C00000F020002028F3D00020F7E7400D03008F
:1038D00008B50146D1F8400400900098C0F341407B
:1038E00008BD2DE9F0410446DDE90757069E4FF07B
:1038F000FF3C04F5A06000EB4110C0F808C035B1F2
:10390000012D48D0022D03D0032D5DD12AE000BF48
:1039100040F29D4C04F5A06000EB4110C0F80CC0D3
:1039200002F0800068B104F5A06000EB4110C068AF
:1039300040F4807C04F5A06000EB4110C0F80CC09E
:103940000FE0B4F1A04F0CD004F5A06000EB4110E3
:10395000C06840F0600C04F5A06000EB4110C0F8B6
:103960000CC031E040F29D6C04F5A06000EB41100A
:10397000C0F80CC002F0800060B104F5A06000EB5C
:103980004110C06840F4807C04F5A06000EB411059
:10399000C0F80CC018E040F2252C04F5A06000EB44
:1039A0004110C0F80CC002F0800060B104F5A060C6
:1039B00000EB4110C06840F4C07C04F5A06000EB4F
:1039C0004110C0F80CC000BF00BF4FF48360005925
:1039D0004FF0010C0CFA01FC40EA0C00C4F818048A
:1039E000A06940F00070A0614FF0FE5000EA8350E3
:1039F0004FF4F04C0CEAC22C40EA0C00C2F3C01C9D
:103A00004FF4004808EACC3C40EA0C00022E02D1F8
:103A10004FF0010C01E04FF0000C4FF4003808EAC1
:103A20004C4C40EA0C004FF4402C0CEA854C40EA28
:103A30000C00C7F30A0C40EA0C0004F5A06C0CEB78
:103A4000411CCCF80000032D0CD104F5A06000EB64
:103A50004110006840F0005C04F5A06000EB4110EC
:103A6000C0F800C00020BDE8F08100002DE9F84F4B
:103A700005460C4616464FF0000BDA4600274FF479
:103A80008078B946B5F1A04F1CD02079D0B94EB995
:103A90006079012806D161782846FFF7C3FE00202F
:103AA000BDE8F88F012E0DD1607805F5A06101EB1E
:103AB0004010C06820F06002607801EB4010C260E6
:103AC00000206071206968B1218920690844401E86
:103AD000B0FBF1F087B2474505DD474620897843C2
:103AE000206100E00127E07810B12089784320614F
:103AF0002069C0F312003E4901EAC7410843A17A98
:103B00004FF0C04202EA41710843617805F5A062B6
:103B100002EB4111086136B1607805F5A06101EB57
:103B20004010E26842614FF48160405900F00100AA
:103B300080F0010B607805F5A06101EB4010006892
:103B400020F00052607801EB40100260607801EBD9
:103B50004010006840EA4B72607801EB4010026050
:103B6000607801EB4010D0F8009029F0804949F0CE
:103B70000049607801EB4010C0F80090AEBBE078DF
:103B800098BB206988B3E07930B1012813D00228AE
:103B900003D003281ED10DE000BF2069C01CC0F374
:103BA0008F0AE86A80B2504503D2A86940F020002D
:103BB000A86110E000BF2069C01CC0F38F0A4FF459
:103BC0008260405980B2504503D2A86940F08060BD
:103BD000A86100E000BF00BF00200090208A83B2EF
:103BE00062782846E16800F074F8002058E7000089
:103BF0000000F81F38B50446D4F84004009000983F
:103C000020F02E000090009840F48070C4F840042A
:103C10000A20FDF7CBFA009820F48070C4F8400425
:103C2000002038BDF0B5054600272846FFF7F2FD15
:103C300010212846FFF734FE2846FFF71BFE00241C
:103C400011E005F5A06000EB4410066846F08046E0
:103C500026F0004626F4004605F5A06000EB44106F
:103C60000660601CC4B20F2CEBDD002423E005F5D8
:103C7000A06000EB4410066846F0804646F000461F
:103C800026F4004605F5A06000EB4410066000BF76
:103C9000781C0746B0F57A7F00D909E005F5A060E9
:103CA00000EB4410006800F00040B0F1004FEFD08E
:103CB00000BF601CC4B20F2CD9DD4FF0FF3140F2C1
:103CC00014404151084668612846FFF7CBFD0020AB
:103CD000F0BDF0B50446059E002700257EB9D81C2E
:103CE000870800BF09E0D1F800C004F5805000EB60
:103CF0000230C0F800C06D1C091DBD42F3D3002086
:103D0000F0BD00BFFEE700000FB4054B10B503A9DE
:103D1000044A029800F01CF910BC5DF814FB000086
:103D2000554C00088C00002000B52DED048BB0EE42
:103D3000409AF0EE609A83B051EC190BFCF763FDEA
:103D400041EC180B18EE100A18EE901A8DED008B4E
:103D5000002818BF0120084320F00040C0F17F6018
:103D600000F1E040C00F14D019EE101A19EE900ABD
:103D70008DED009B002918BF0121084320F0004071
:103D8000C0F17F6000F1E040C00F04BF012000F0EF
:103D900017F8B0EE480A03B0F0EE680ABDEC048BE9
:103DA00000BD02E008C8121F08C1002AFAD17047FE
:103DB0007047002001E001C1121F002AFBD17047AB
:103DC0000149086070470000900000202DE9FF5F66
:103DD00082B00021DDE90430020DDDF840B003437C
:103DE00018D044F61050A2F2FF3242431514119835
:103DF00001281FD0A5EB0B00401C5FEA000A4FF022
:103E000000064E4FDFF83891B046504615D5CAF13E
:103E1000000413E0119801244AA3012801D16FEA9C
:103E20000B010298119AC0E90031C0E9024206B0C4
:103E3000BDE8F09FCBF10000DFE704460021404AD7
:103E4000491842EB0450CDE9001012E0E00707D01A
:103E500032463B4640464946FCF763FC804689466D
:103E600032463B4610461946FCF75BFC06460F46B9
:103E70006410002CEAD1DDE90401DDE90023BAF188
:103E8000000F06DAFCF74DFC42464B46FCF749FCB6
:103E900005E0FCF76DFA42464B46FCF769FA04462A
:103EA0000E460022284BFCF72DFB03D84FF0FF30C5
:103EB000014607E00022254B20463146FCF7B1F9C8
:103EC000FCF7F2FC102409E0002C0ADB0A22002394
:103ED000FCF776F9039B30321A55641E50EA010252
:103EE000F2D1641C039AC4F111031444119A012AFB
:103EF00003D0012208430DD10AE0084304D000207A
:103F00004FF0110B119072E7A3EB0B056D1E0DE046
:103F10005B4504DD4FF0000205F1010504E003DA22
:103F20004FF00002A5F10105002AECD0029811998A
:103F3000C0E90231C0E9004579E700000000144003
:103F40000000F03F300000000000F0430000E03FC0
:103F50002DE9FF4F95B09B468946064600250FE2A6
:103F6000252877D100242746F84A0121059400E04E
:103F7000044316F8013F203B01FA03F01042F7D149
:103F800030782A2811D06FF02F033078A0F130025A
:103F9000092A16D8059A44F0020402EB820203EBC8
:103FA00042021044761C0590EFE759F8042B059265
:103FB000002A03DA504244F40054059044F002040D
:103FC000761C30782E2816D116F8010F44F0040420
:103FD0002A280DD06FF02F023078A0F13003092B82
:103FE00009D807EB870302EB4303C718761CF3E7F6
:103FF00059F8047B761C30786C280FD006DC4C28EE
:1040000017D068280DD06A2814D104E0742810D085
:104010007A280FD10DE044F400140AE044F480142F
:1040200001E044F440147278824202D104F5801415
:10403000761C761C307866280BD013DC582877D095
:1040400009DC002875D04528F6D04628F4D047284A
:104050001AD19DE118E0632835D0642879D065280D
:1040600012D195E1702873D008DC6728F1D0692857
:104070006FD06E280DD06F2806D1B5E073282CD0F4
:10408000752875D0782874D05A46179990476D1CBA
:1040900075E1C4F30250022809D003280DD0D9F8E5
:1040A000001004280DD00D6009F1040967E1D9F86A
:1040B0000010EA17C1E90052F6E7D9F800100D80A8
:1040C000F2E70D70F0E719F8041B8DF800100020DE
:1040D0008DF80100EA46012003E059F804AB4FF0E7
:1040E000FF3061074FF0000102D40DE008F101013B
:1040F0008846B9420FDA8045F8DB1AF80810002923
:10410000F4D108E008F1010188468142FADB1AF88F
:1041100008100029F6D105985B46A0EB0807214658
:104120003846179A00F094FA284400EB080507E097
:104130004DE029E10DE01AF8010B5A461799904716
:10414000B8F10108F7D25B4621463846179A13E1C9
:1041500042E00A220092C4F302524FF0000A022AFF
:1041600008D059F804CB032A4FEAEC710AD00DE0CD
:1041700029E02AE009F1070121F00702F2E802C173
:10418000914609E00FFA8CFC4FEAEC71042A03D146
:104190004FFA8CFC4FEAEC71002907DA0A4600213D
:1041A000DCF1000C61EB02012D2202E0220504D5B6
:1041B0002B228DF80420012203E0E20701D0202207
:1041C000F7E7904659E00A2102E010220DE01021A5
:1041D0004FF0000A00910BE010224FF0000A44F06B
:1041E00004040827009203E008224FF0000A00921E
:1041F000C4F30252022A05D059F804CB0021032A45
:1042000008D009E009F1070121F00702F2E802C134
:10421000914605E01FFA8CFC042A01D10CF0FF0C3A
:104220004FF00008220728D5702806D0009B83F0A5
:10423000100353EA0A0305D00EE040228DF8042053
:10424000012208E05CEA010206D030228DF8042049
:104250008DF8050002229046009B83F0080353EA84
:104260000A030AD15CEA010201D1620705D53022B6
:104270008DF804204FF001087F1E582804D034A088
:1042800003900EA802900DE036A0F9E75346604671
:10429000009AFBF795FF84460398825C0298401EC3
:1042A000029002705CEA0100F0D1029806A9081A97
:1042B00000F1200A600702D524F4803400E00127D1
:1042C000574502DDA7EB0A0000E0002000EB0A01E1
:1042D000009005984144401A0590E00306D45B46DF
:1042E0002146179A059800F0B3F90544002706E027
:1042F00001A85A46C05D179990476D1C7F1C474521
:10430000F6DBE0030CD55B462146179A059800F0D2
:104310009FF9054404E030205A46179990476D1CD8
:104320000099481E00900029F5DC08E002980299E7
:104330005A460078491C0291179990476D1CBAF1B2
:104340000001AAF1010AF1DC65E100000928010081
:1043500030313233343536373839616263646566FB
:1043600000000000303132333435363738394142BD
:10437000434445460000000000F058F90544761C0F
:10438000307800287FF4ECAD19B02846BDE8F08FF6
:10439000620700D4062709F1070222F0070CFCE8A7
:1043A0000223E14603F000485FEA080C02D00FF256
:1043B000702C0DE05FEA045C02D50FF2682C07E078
:1043C0005FEAC47C02D00FF2602C01E0AFF2700C07
:1043D0004FF0FF3823F00043CDF850C065280CD0D3
:1043E00006DC452809D046281DD047283DD13DE0B0
:1043F000662818D067287ED138E00021112F01DB14
:10440000112000E0781CCDE9000106A90EA8FFF7F5
:10441000DDFCDDE90F010E9A03910021009207F106
:10442000010A04914DE04FF000400097CDE90110E2
:1044300006A90EA8FFF7CAFCDDE90F0203920E9B46
:1044400011990022DDF80CA00093049211B9791C97
:1044500000EB010AB7EB0A0004D4C0F1FF3007F10A
:10446000010A0490AAEB0700019044E0012F00DA52
:1044700001270021112F01DD112000E03846CDE990
:10448000000106A90EA8FFF7A1FCDDE90F010E9AB5
:104490000391002104910092BA4621070CD403999C
:1044A000514500DA8A46BAF1010F05DD009AAAF1FA
:1044B0000101515C302908D0B84202DA10F1040F32
:1044C00006DA0121CDE9011015E0AAF10101E9E7C1
:1044D000002805DC049901440491AAEB000102E0E4
:1044E000411C514500DD8A460499401A401C019048
:1044F0004FF000400290200704D40198504501DBA2
:10450000CDF8048000208DF84F0002980DF14F0780
:10451000B0F1004F25D02B200E9002984FF00208EA
:1045200000280CDA404202902D200E9007E00A216C
:104530000298FCF71BF83031029007F8011DB8F122
:104540000001A8F10108F2DC02980028EFD1791EE1
:104550000E980870307800F0200040F0450007F811
:10456000020D12A8C01B00F107081498007800B1D2
:10457000012000EB0A01019801EBE071059841442C
:10458000401A401E0590E00306D45B462146179A68
:10459000059800F05DF805441498007818B15A4663
:1045A000179990476D1CE00324D55B462146179A66
:1045B000059800F04DF805441CE00498002807DB3E
:1045C000DDE90301884203DD0098405C179901E0B2
:1045D000179930205A469047049805F10105401C70
:1045E00004900198401E019004D12E205A4617993C
:1045F00090476D1CBAF10001AAF1010ADDDC05E06B
:1046000017F8010B5A46179990476D1CB8F1000135
:10461000A8F10108F4DC5B462146179A0598ABE641
:104620002D0000002B000000200000002DE9F041CB
:10463000044600251E461746880404D405E0394682
:104640002020B0476D1C641EF9D52846BDE8F081D6
:104650002DE9F041044600251E469046C80301D5C9
:10466000302700E02027880404D505E0414638467D
:10467000B0476D1C641EF9D52846BDE8F0810000E6
:1046800010B52DED0C8B88B004463A480068FBF756
:104690000EFF41EC190B38480068FBF708FF41ECAE
:1046A0001B0B2046FBF7D3FE41EC1D0B9FED330B9C
:1046B00053EC102BFBF75CFE41EC1C0B53EC1B2B5B
:1046C000FBF750FE41EC1A0B53EC192BFBF750FE95
:1046D00041EC180BFBF72EFF2A49086008460068DA
:1046E000FBF7E5FE41EC180B9FED270B53EC102B6D
:1046F000FBF7F0FE05D29FED260A224880ED000A66
:1047000011E020480068FBF7D2FE41EC180B9FED4A
:10471000210B53EC102BFBF7F5FE04D2B7EE000A89
:10472000184880ED000A174890ED000ADFED1B0ADB
:1047300020EE200ABCEEC00A8DED020A6020019036
:10474000002003900590002201A91548FDF780FD87
:1047500020B14FF4357113A0FFF7D3FA1048FDF7DD
:104760005DFD00210E48FDF72BFE08B0BDEC0C8B63
:1047700010BD000064000020680000200000000060
:104780000000594040000020000000000000000030
:1047900000000000000000000000F03F000038436F
:1047A000E00400202E2E2F5372632F6D61696E2E50
:1047B0006300000070B504460D46601C40BB00223B
:1047C0008021FE48FCF716FE00224FF48071FB4862
:1047D000FCF710FE00220221F948FCF70BFE002234
:1047E0004FF48061F548FCF705FE00224FF40061AC
:1047F000F248FCF7FFFD00224FF48051EF48FCF730
:10480000F9FD00224FF40051EC48FCF7F3FD85E17F
:10481000012C23D100228021E848FCF7EBFD012286
:104820001102E648FCF7E6FD01220221E448FCF70C
:10483000E1FD0022A102E148FCF7DCFD0022E102DB
:10484000DE48FCF7D7FD00222103DC48FCF7D2FD4F
:1048500000226103D948FCF7CDFD5FE1022C23D192
:1048600001228021D548FCF7C5FD01221102D34861
:10487000FCF7C0FD00220221D148FCF7BBFD01225C
:104880009102CE48FCF7B6FD0122D102CB48FCF7DD
:10489000B1FD0022E102C948FCF7ACFD0122510341
:1048A000C648FCF7A7FD39E1032C25D10122802160
:1048B000C248FCF79FFD01221102C048FCF79AFD97
:1048C00001220221BE48FCF795FD01229102BB485E
:1048D000FCF790FD00224FF40061B848FCF78AFD18
:1048E00000224FF48051B548FCF784FD01225103AA
:1048F000B248FCF77FFD11E1042C23D10022802176
:10490000AE48FCF777FD01221102AC48FCF772FDBE
:1049100001220221AA48FCF76DFD00222102A748CE
:10492000FCF768FD00226102A448FCF763FD012248
:104930001103A248FCF75EFD012251039F48FCF7DA
:1049400059FDEBE0052C25D1012280219B48FCF785
:1049500051FD00224FF480719848FCF74BFD012275
:1049600002219748FCF746FD012291029348FCF78B
:1049700041FD00224FF400619048FCF73BFD01220D
:1049800011038E48FCF736FD012251038B48FCF7DA
:1049900031FDC3E0062C24D1012280218748FCF799
:1049A00029FD00224FF480718448FCF723FD012289
:1049B00002218348FCF71EFD012291027F48FCF78B
:1049C00019FD0122D1027D48FCF714FD01221103DB
:1049D0007A48FCF70FFD012251037848FCF70AFDE5
:1049E0009CE0072C27D1012280217448FCF702FDAE
:1049F000012211027148FCF7FDFC012202217048DE
:104A0000FCF7F8FC00224FF480616C48FCF7F2FCE4
:104A100000224FF400616948FCF7ECFC00224FF4DF
:104A200080516648FCF7E6FC00224FF400516348D1
:104A3000FCF7E0FC72E0082C23D1012280215F48C2
:104A4000FCF7D8FC012211025C48FCF7D3FC0122E0
:104A500002215B48FCF7CEFC012291025748FCF78B
:104A6000C9FC0122D1025548FCF7C4FC0122110304
:104A70005248FCF7BFFC012251035048FCF7BAFC36
:104A80004CE0092C25D1012280214C48FCF7B2FCD6
:104A9000012211024948FCF7ADFC012202214848DD
:104AA000FCF7A8FC00224FF480614448FCF7A2FC0C
:104AB00000224FF400614148FCF79CFC01221103E5
:104AC0003E48FCF797FC012251033C48FCF792FC5E
:104AD00024E01CBB012280213848FCF78BFC01221A
:104AE00011023648FCF786FC012202213448FCF70B
:104AF00081FC012291023148FCF77CFC0122D102A9
:104B00002E48FCF777FC012211032C48FCF772FCBD
:104B100000224FF400512948FCF76CFC681CD0B906
:104B2000002204212548FCF765FC002210212348BF
:104B3000FCF760FC002220212048FCF75BFC0022EF
:104B400040211E48FCF756FC00224FF480411B48D0
:104B5000FCF750FC74E0012D19D101220421174803
:104B6000FCF748FC002210211448FCF743FC00220B
:104B700020211248FCF73EFC002240210F48FCF7A0
:104B800039FC0022A9030D48FCF734FC58E0022D43
:104B90001ED1002204210948FCF72CFC012210211F
:104BA0000648FCF727FC002220210448FCF722FCE1
:104BB000002240210148FCF71DFC03E000100240E8
:104BC00000040240012291032148FCF713FC37E066
:104BD000032D1AD1002204211D48FCF70BFC0022F2
:104BE00010211B48FCF706FC012220211848FCF785
:104BF00001FC002240211648FCF7FCFB00224FF488
:104C000080411348FCF7F6FB1AE0042D18D100226E
:104C100004210F48FCF7EEFB002210210C48FCF7A2
:104C2000E9FB002220210A48FCF7E4FB0122402195
:104C30000748FCF7DFFB002229030548FCF7DAFBF5
:104C4000002600E0761C41F288308642FADD70BD15
:104C50000010024010B5024610460B4B1B6803F0D3
:104C600001037BB1084B803B1B6803F001034BB190
:104C700000E000BF4FF060431B68002BF9D04FF0FD
:104C80006044207000BF10BD800E00E070B54FF092
:104C9000FF3533480068002860D131480068401C67
:104CA0002F490860002454E024B1012C15D0022CB7
:104CB00039D125E02B48018801222B48FCF79AFBCB
:104CC0002848418800222848FCF794FB2548818821
:104CD00000222548FCF78EFB26E0224801880022AE
:104CE0002148FCF787FB1F48418801221E48FCF73A
:104CF00081FB1C48818800221B48FCF77BFB13E0EA
:104D00001848018800221848FCF774FB15484188B0
:104D100000221548FCF76EFB1248818801221248D8
:104D2000FCF768FB00E000BF00BF00200DE00F496A
:104D300009680F4A32F81020114029B10D4901EBE2
:104D4000041151F8205002E0401C0428EFDB00BFA2
:104D5000641C042C02DA681C0028A5D0284670BD0B
:104D6000100000208000002000040240100C0240CF
:104D700078000020005100082DED028B0026FCF782
:104D800003FDFDF7ADFDFDF781FBFDF73FFBFDF7F3
:104D9000F7FCFDF735FD0122D1039848FCF72AFB0B
:104DA00000219748FDF70CFB9648FDF78FF99648D0
:104DB000FCF774F9741E00209449087000251CE16A
:104DC0009348006800280ADD91480068401C91491A
:104DD000096890FBF1F201FB12008D4908600DBBE0
:104DE0008D480068642190FBF1F00A2190FBF1F2FC
:104DF00001FB120089490860874800680A2190FB7E
:104E0000F1F090FBF1F201FB120085490860824845
:104E100000680A2190FBF1F201FB12008149086051
:104E20006D1C06E0681C41F2883190FBF1F201FB39
:104E30001205022179480068FFF7BCFC032178487D
:104E40000068FFF7B7FC042176480068FFF7B2FC62
:104E5000FDF71CFD744800680128B0D1002072499C
:104E60000860FFF713FF0446142C2BD06F4800682E
:104E7000012827D16E480068142805DA6C480068BC
:104E8000401C6B4908601DE00020684908606948C3
:104E90000068052811DD674800680F280DDA00203A
:104EA0005A4908705D4908605D4908605D490860BD
:104EB000FFF7E6FB60A0FEF727FF00205D490860D2
:104EC0005B490860142C24D10020594908605948D6
:104ED0000068401C574908604C48007828B90121F7
:104EE000002000F0DFF859490860504800680128A8
:104EF0000CD1504800680F2808DD02204349087093
:104F00000020FFF7BDFB52A0FEF7FEFE012047493F
:104F100008603E48007820B1012836D002286AD1C6
:104F20005DE0002C0DDB142C0BDA0021204600F094
:104F3000B9F846490860084601684AA0FEF7E4FE51
:104F400022E0152C20D141480668314649A0FEF7E1
:104F5000DBFE3E480068FFF793FB00212848FDF781
:104F60002FFA4A480068FBF7A2FA41EC180B53EC01
:104F7000182B47A0FEF7C8FE012024490870002026
:104F8000474908603149086036E0454800681E28F6
:104F900024DA21480068642190FBF1F00A2190FB9B
:104FA000F1F201FB12001D4908601B4800680A214C
:104FB00090FBF1F090FBF1F201FB12001849086040
:104FC000154800680A2190FBF1F201FB1200154917
:104FD00008600020324908600C4908700CE04FF06E
:104FE000FF300E4908600E4908600E490860002035
:104FF0001649086000E000BF00BFE1E6000C024077
:10500000E0040020A40400205C0400200C00002028
:1050100010000020140000206C000020540000202C
:10502000580000205C000020180000204C000020E8
:105030005000002048000020476F20746F207374D8
:105040006174652057616974000000003C00002015
:10505000476F20746F20737461746520536C6565AD
:1050600070000000766F6C74616765203A202564DB
:10507000200A0000766F6C7461676520656E746548
:105080007265643A202564200A0000004000002078
:10509000647574792D6379636C653A2566200A001E
:1050A0004400002070B504460D46012D05D111487D
:1050B00000680A2190FBF1F070BD0E48006800EB1B
:1050C000800004EB40004FF47A7190FBF1F201FB99
:1050D0001206314608A0FEF717FE0648006800EBEE
:1050E000800004EB40004FF47A7190FBF1F201FB79
:1050F0001200E1E73C0000202564200A00000000C7
:10510000010000000400000007000000140000007F
:105110000200000005000000080000000000000080
:105120000300000006000000090000001500000058
:105130000300000006000000090000001500000048
:105140000000000000000000010203040607080937
:105150000000000001020304785100080000002054
:1051600094000000A23D00080C52000894000020AA
:10517000C4080000B23D000800000000100000005C
:1051800001000000000000000000000058020000C4
:105190000000000000000000CDCC4C3ECDCC4C3EC9
:1051A000CDCC4C3ECDCC4C3E0000000005000000B4
:1051B00000000000000000000000803F0000000030
:1051C00000000000000000000000000000000000DF
:1051D0000000000000000000000000002C84A23F3E
:1051E0005B4B2B3E000000000000000000000000B0
:1051F00000010002000400080010002000400080B0
:0C5200000024F40000000000000000008A
:040000050800018965
:00000001FF
