:020000040800F2
:10000000900E00209D010008A5010008A70100082E
:10001000A9010008AB010008AD01000800000000C4
:10002000000000000000000000000000AF01000818
:10003000B101000800000000B301000819350008F4
:10004000B7010008B7010008B7010008B7010008B0
:10005000B7010008B7010008B7010008B7010008A0
:10006000B7010008B7010008B7010008B701000890
:10007000B7010008B7010008B7010008B701000880
:10008000B7010008B7010008D5020008B701000851
:10009000B7010008B7010008B7010008B701000860
:1000A0006D3600089D3600088D3600087D36000844
:1000B000B7010008B7010008B7010008B701000840
:1000C000B7010008B7010008B7010008B701000830
:1000D000B7010008B7010008B7010008B701000820
:1000E000B7010008B7010008B7010008B701000810
:1000F000B7010008B7010008B7010008B701000800
:10010000B7010008B7010008B7010008B7010008EF
:10011000B7010008B7010008B7010008B7010008DF
:10012000B7010008B7010008B7010008B7010008CF
:10013000B7010008B7010008B7010008B7010008BF
:10014000B7010008B7010008B7010008E53400084E
:10015000B7010008B7010008B7010008B70100089F
:10016000B7010008B7010008B7010008B70100088F
:10017000B7010008B7010008B7010008000000003F
:10018000B7010008B7010008DFF80CD000F090F8C4
:1001900000480047FD4F0008900E002006488047A9
:1001A00006480047FEE7FEE7FEE7FEE7FEE7FEE75C
:1001B000FEE7FEE7FEE7FEE70936000889010008D2
:1001C0002DE9F05F0546002092469B46884606468C
:1001D000814640241BE0284641464746224600F01F
:1001E00057F853465A46C01A914110D31146184643
:1001F000224600F03EF82D1A67EB01084F462246D2
:100200000120002100F035F817EB00094E41201EB7
:10021000A4F10104DFDC484631462A464346BDE8E6
:10022000F09F40EA01039B0703D009E008C9121FB1
:1002300008C0042AFAD203E011F8013B00F8013BA0
:10024000521EF9D2704730B50B46014600202022DD
:10025000012409E021FA02F59D4205D303FA02F5D3
:10026000491B04FA02F52844151EA2F10102F1DC33
:1002700030BD202A04DB203A00FA02F1002070474A
:100280009140C2F1200320FA03F3194390407047D4
:10029000202A04DB203A21FA02F00021704721FADB
:1002A00002F3D040C2F12002914008431946704742
:1002B000064C074D06E0E06840F0010394E80700B3
:1002C00098471034AC42F6D3FFF762FFE8500008BD
:1002D0000851000810B5024800F048FA10BD0000AF
:1002E000D406002054494A6822F440324A604A68E1
:1002F00043681A434A600268526822F480720368B5
:100300005A6002685368026943EA022203685A602D
:100310000268526822F0407203685A6002685268AC
:1003200083681A4303685A600268926822F4006284
:1003300003689A6002689268C3681A4303689A6007
:100340003E4B826A9A4218D00268926822F070622C
:1003500003689A6002689268836A1A4303689A6025
:100360000268926822F0405203689A6002689268BC
:10037000C36A1A4303689A600BE00268926822F02D
:10038000706203689A600268926822F040520368C3
:100390009A600268926822F0020203689A6002681A
:1003A0009368826943EA420203689A60026AA2B1D2
:1003B0000268526842F4006203685A600268526838
:1003C00022F4604203685A6002685368426A521E0F
:1003D00043EA423203685A6005E00268526822F438
:1003E000006203685A600268D26A22F470020368ED
:1003F000DA620268D36A828B521E43EA02520368B1
:10040000DA620268926822F4007203689A600268F5
:100410009368026B43EA422203689A60026892681A
:1004200022F4806203689A6002689368426943EA32
:10043000822203689A607047002301400100000F88
:100440002DE9F0410646D6F87403C469002794F8F4
:100450004E00032802D004282DD109E0237B628BB3
:100460003046216A03F0C8FA042084F84E0023E0E5
:10047000217B304603F0EAFE0746012F1AD1217B8B
:10048000304603F0DAFE85B2A06A401B0CD0608BC8
:10049000A84209DAA06A401BA062206A28442062B0
:1004A000032084F84E0005E0002084F84E0030461A
:1004B00003F07DFC00E000BF00BFBDE8F081F8B5AF
:1004C0000546D5F87403C469002694F84D00012848
:1004D00002D0022843D119E0208B616A814208D9F9
:1004E00001200090637B228B2846E16903F099FA92
:1004F00008E001200090637BA08C82B22846E1696D
:1005000003F08FFA022084F84D0029E0617B284631
:1005100003F09CFE0646012E1BD1208B616A8142AE
:1005200008D9208B616A081A6062208BE16908444F
:10053000E06101E000206062606A18B1012084F887
:100540004D000BE0002084F84D00284603F033FCFA
:1005500004E0022E02D1012084F84D0000E000BF2B
:1005600000BFF8BD0146002205E0002301F55F70E1
:1005700040F82230521C0F2AF7D3002204E0002357
:1005800001F58E708354521CB2F5007FF7D3002022
:1005900008704870012088700020C1F8B80301235A
:1005A0000B7640238B7100234B7681F81C3301239B
:1005B00081F81D33704770B504460D46A1212174A2
:1005C0002121617400216182A1820721E182072239
:1005D0002946204603F022FC70BD704738B502461C
:1005E0000020009000BF92F83C00012801D10220B9
:1005F00038BD012082F83C0000BF0868092816D9E0
:100600001068C0680C780A3C04EB44050724AC4031
:10061000A0431468E0600C780A3C04EB440488684A
:10062000A0401468E46820431468E06013E0106898
:1006300000690C7804EB44050724AC40A04314681F
:1006400020610C7804EB44048868A0401468246995
:100650002043146820614868072817D21068406B4F
:100660000C79641E04EB84051F24AC40A04314687D
:100670006063088880B20C79641E04EB8404A04097
:100680001468646B20431468606331E048680D2887
:1006900017D21068006B0C79E41F04EB84051F244B
:1006A000AC40A04314682063088880B20C79E41F32
:1006B00004EB8404A0401468246B20431468206376
:1006C00016E01068C06A0C790D3C04EB84051F2409
:1006D000AC40A0431468E062088880B20C790D3CFD
:1006E00004EB8404A0401468E46A20431468E062C8
:1006F000194B1A4C1068A04206D10868122803D181
:10070000586840F480005860144C1068A0421CD116
:100710000868102802D00868112816D1586840F4DB
:1007200000005860086810280FD10D4800680D4C73
:10073000B0FBF4F000EB80004000009002E0009875
:10074000401E009000980028F9D100BF002082F8D8
:100750003C0000BF00BF4BE70023014000200140E8
:100760006800002040420F007047704770B5044693
:100770000025002620680068C0F340052068406816
:10078000C0F3401695B38EB3206C00F0100018B97A
:10079000206C40F4007020642068806800F04050B5
:1007A000E8B9A069D8B92068C06A00F4700020B127
:1007B0002068806800F4806088B92068406820F074
:1007C000200021684860206C20F480702064206C38
:1007D00000F4805018B9206C40F0010020642046DD
:1007E000FFF7C2FF6FF01200216808602068006800
:1007F000C0F3800520684068C0F3C016E5B3DEB3DF
:10080000206C00F0100018B9206C40F400502064F7
:100810002068806800F4401038BB2068806B00F4CA
:10082000401020B12068806800F48060E8B920683A
:10083000406800F48060C0B92068806800F04050D3
:1008400098B9A06988B92068406820F080002168C4
:100850004860206C20F480502064206C00F480708C
:1008600018B9206C40F0010020642046FFF7B5FE67
:100870006FF00C00216808602068006800F0010536
:1008800020684068C0F3801685B17EB1206800689A
:1008900000F0010050B1206C40F48030206420460C
:1008A00000F052F86FF001002168086020680068CD
:1008B000C0F3401520684068C0F380667DB176B112
:1008C000606C40F0020060646FF0200021680860F6
:1008D0002046FFF74AFF6FF020002168086070BDD6
:1008E00070B5044600250CB9012070BD1549A06AF9
:1008F000884200D000BF206C30B90020606484F8CA
:100900003C00204600F022F8206C00F0100088B96E
:10091000206C20F4885040F0020020642046FFF74D
:10092000E1FC00206064206C20F0020040F0010037
:10093000206400E0012500BF002084F83C0000BFD7
:100940002846D2E70100000F7047000010B586B0BE
:10095000044614492068884221D100BF002000903D
:100960001148006840F480700F490860084600682C
:1009700000F48070009000BF00BF022001900320AF
:1009800002900020039001A9084800F091F800228D
:100990001146122000F018FE122000F008FE06B0EA
:1009A00010BD000000200140443802400000024019
:1009B00070B503460024002500BF5879012801D1F5
:1009C000022070BD0120587100BF02201871186804
:1009D000046840F6FE7090408443D1E9000640EA86
:1009E000060505FA02F004431868046018680668F2
:1009F000C02090408643186806600120187100BF2F
:100A00000020587100BF00BFDBE710B504460CB9E9
:100A1000012010BD207920B900206071204600F02F
:100A200009F802202071002020610120207100209F
:100A3000EFE7000010B586B00446104920688842F0
:100A400019D100BF002000900D48006840F0005010
:100A50000B4908600846006800F00050009000BF95
:100A600000BF10200190032002900020039001A9F4
:100A7000044800F01DF806B010BD000000740040EE
:100A8000403802400000024070B5044600F016F9FC
:100A900006462546681C10B104480078054400BF8E
:100AA00000F00CF9801BA842FAD370BD08000020AA
:100AB000F8B502460B460025002400200021DCE0AA
:100AC000012606FA01F51E6806EA0504AC4273D158
:100AD0005E68022E02D05E68122E13D1CF0802F19A
:100AE000200656F827004E07F70E0F26BE40B043EB
:100AF0004F07FF0E1E69BE403043CF0802F12006AB
:100B000046F8270010684F000326BE40B0431E7908
:100B100006F003064F00BE40304310605E68012EB1
:100B200008D05E68022E05D05E68112E02D05E6885
:100B3000122E13D190684F000326BE40B0434F00E1
:100B4000DE68BE4030439060506801268E40B0435E
:100B50001E79C6F300168E4030435060D0684F00B7
:100B60000326BE40B0434F009E68BE403043D06075
:100B70005E6806F08056B6F1805F7DD100BF00262A
:100B80000096404E366846F480463E4F3E603E46F4
:100B9000366806F48046009600BF00BF3A4E8F08C4
:100BA00056F827008E07370F0F26BE40B043374E4A
:100BB000B24202D1002624E05EE0354EB24201D1BD
:100BC00001261EE0334EB24201D1022619E0324E18
:100BD000B24201D1032614E0304EB24201D10426C4
:100BE0000FE02F4EB24201D105260AE02D4EB2424F
:100BF00001D1062605E02C4EB24201D1072600E0C5
:100C000008268F073F0FBE4030431F4E8F0846F81F
:100C10002700264E3068A0435E6806F48036B6F59D
:100C2000803F00D12043214E3060361D3068A04304
:100C30005E6806F40036B6F5003F00D120431B4E37
:100C4000361D3060361D3068A0435E6806F480169D
:100C5000B6F5801F00D12043144E08363060361D93
:100C60003068A0435E6806F40016B6F5001F00D198
:100C700020430E4E0C363060491C1029FFF420AF83
:100C8000F8BD00004438024008380140000002402E
:100C90000004024000080240000C02400010024024
:100CA0000014024000180240001C0240003C0140B9
:100CB0000AB1816101E00B0483617047014800685B
:100CC000704700000000002010B50446D4F89402DC
:100CD00003F06EFA10BD10B50446D4F8940203F088
:100CE0007EFA10BD10B50446206803F005FD10BD66
:100CF000024601EB810302F1380000EBC30090F8DB
:100D000024007047024601EB810302F1380000EB3A
:100D1000C3004069704770B504460D46002600BF09
:100D200094F89002012801D1022070BD012084F8BE
:100D3000900200BF2946206803F0E9FC00BF0020B4
:100D400084F8900200BF3046EFE72DE9FE4F0446DD
:100D50000D4616461F46DDE90D9ADDF830804FF04E
:100D6000000B00BF94F89002012802D10220BDE8D8
:100D7000FE8F012084F8900200BF05EB850104F18D
:100D8000380000F8317005EB850100EBC100A0F8D8
:100D900008A005EB850104F1380000EBC1004570A7
:100DA00005EB850104F1380000EBC10080F80790E5
:100DB00006F07F0105EB850204F1380000EBC2006C
:100DC0008170C6F3C01105EB850204F1380000EB19
:100DD000C200C17005EB850104F1380000EBC100D1
:100DE00080F804808DE800073B463246294620689B
:100DF00003F031FD834600BF002084F8900200BF5D
:100E00005846B4E770472DE9F05F04460D46164694
:100E10001F46DDE90BB9DDF834A0DDF8288005EBCD
:100E2000850104F1380000EBC100C67005EB8501B7
:100E300004F1380000EBC100C771B8F1000F08D110
:100E4000032105EB850204F1380000EBC20081723A
:100E500007E0022105EB850204F1380000EBC20037
:100E6000817237B1012F7DD0022F3DD0032F3AD1AF
:100E700082E0B8F1010F36D1AEBBB9F1000F07D156
:100E8000012105EB850204F1380000EBC200417638
:100E900005EB850104F1380000EBC100407E40B94C
:100EA000002105EB850204F1380000EBC2008172DD
:100EB00007E0022105EB850204F1380000EBC200D7
:100EC000817205EB850104F1380000EBC10090F858
:100ED0002400022807D005EB850104F1380000EB5F
:100EE000C10080F805A085E05EBB05EB850104F13B
:100EF000380000EBC100407E40B9002105EB8502BF
:100F000004F1380000EBC200817207E0022105EB1A
:100F1000850204F1380000EBC200817205EB850107
:100F200004F1380000EBC10090F82400022822D020
:100F300005EB850104F1380000EBC10080F805A045
:100F400019E005EB850104F1380000EBC100007EDB
:100F500048B9002105EB850204F1380000EBC2001E
:100F6000817208E03DE0022105EB850204F13800C2
:100F700000EBC20081723DE0CEB905EB850104F1C2
:100F8000380000EBC100407E40B9002105EB85022E
:100F900004F1380000EBC200817221E0022105EB70
:100FA000850204F1380000EBC200817218E005EB05
:100FB000850104F1380000EBC100007E40B900213A
:100FC00005EB850204F1380000EBC200817207E0F6
:100FD000022105EB850204F1380000EBC2008172AA
:100FE00008E0002105EB850204F1380000EBC200A7
:100FF000817200BF00BF05EB850104F1380000EBF2
:10100000C100C0F80CB005EB850104F1380000EB1D
:10101000C100C0F81090002105EB850204F13800F2
:1010200000EBC20080F8241005EB850204F13800C3
:1010300000EBC200416105EB850104F1380000EBD3
:10104000C1004570002105EB850204F1380000EB7A
:10105000C20080F82510227C05EB850C04F13803D2
:1010600003EBCC01206803F0C1FCBDE8F09F2DE943
:10107000F0410446266800250027206803F042FB63
:10108000012871D1206803F00AFE08B9BDE8F0819B
:10109000206803F004FE00F40010B0F5001F03D137
:1010A0004FF4001021684861206803F0F8FD00F457
:1010B0008010B0F5801F03D14FF480102168486183
:1010C000206803F0ECFD00F08060B0F1806F03D188
:1010D0004FF0806021684861206803F0E0FD00F077
:1010E0000200022801D121684861206803F0D7FD81
:1010F00000F00050B0F1005F10D1D6F8400420F0AD
:101100002E00C6F840042046FFF7E5FD01212068C7
:1011100003F0A6FD4FF0005021684861206803F0FD
:10112000BEFD00F08070B0F1807F02D1204601F05A
:101130004BFE206803F0B3FD00F00800082805D13D
:10114000204600F0BDF8082021684861206803F0BF
:10115000A6FD00F00070B0F1007F23D1206803F0FD
:101160003EFC0746002516E032E00120A84038404A
:1011700080B106F5A06000EB4510006800F4004067
:1011800020B1E9B2204601F03EF903E0E9B2204681
:1011900001F0B2FB6D1CA068A842E6D84FF00070C9
:1011A00021684861206803F07AFD00F010001028E3
:1011B0000ED12068806920F01000216888612046E7
:1011C00001F06CFE2068806940F0100021688861A1
:1011D00000BF5BE710B58AB0044614B901200AB01D
:1011E00010BD032084F89102204600F021F8206809
:1011F00003F002FA282204F110016846FFF711F803
:1012000094E80F0003F09AF90121206803F05EFDD5
:10121000282204F110016846FFF703F894E80F0054
:1012200003F0A8FC012084F891020020D7E7000019
:1012300010B586B004462068B0F1A04F39D14FF404
:101240000070019000200290039001A91A48FFF756
:101250002FFC4FF4E05001900220029000200390F8
:1012600004900A20059001A91348FFF721FC00BF54
:101270001248006840F080001049086000BF00205C
:1012800000900E481030006840F480400B49103147
:1012900008600846006800F48040009000BF00BF6E
:1012A00000BF00221146432000F08EF9432000F0D9
:1012B0007EF906B010BD0000000002403438024044
:1012C00010B50446D4F8940202F0C9FF10BD10B561
:1012D000044600BF94F89002012801D1022010BDFD
:1012E000012084F8900200BF206803F0CFF90121AB
:1012F000206803F0A9F900BF002084F8900200BF25
:1013000000BFECE710B5044600BF94F89002012836
:1013100001D1022010BD012084F8900200BF206896
:1013200003F0ECFC00BF002084F8900200BF00BF77
:10133000F0E7000070B50446002600250CB9012036
:1013400070BD94F83D0028B9002084F83C00204688
:1013500000F084F8242084F83D002068006820F024
:1013600001002168086000F047FA05463948B5FBDE
:10137000F0F62068466038496068884201D8701CE1
:1013800007E04FF4967070434FF47A71B0FBF1F0C0
:10139000401C216808623049606888420ED8606845
:1013A0004000B5FBF0F0C0F30B00042801D204208C
:1013B0002DE060684000B5FBF0F028E0A06828B997
:1013C000606800EB4000B5FBF0F008E0606800EBFF
:1013D000C00101EB0010B5FBF0F040F48040C0F319
:1013E0000B0008B9012012E0A06828B9606800EB82
:1013F0004000B5FBF0F008E0606800EBC00101EBD5
:101400000010B5FBF0F040F4804040F4004021684B
:10141000C861D4E90701084321680860D4E90310D2
:10142000084321688860D4E9050108432168C86041
:101430002068006840F001002168086000202064F6
:10144000202084F83D000020206384F83E0000BF87
:1014500076E7000040420F00A086010010B586B07C
:1014600004461249206888421ED14FF41070019042
:101470001220029001200390002004900420059087
:1014800001A90B48FFF714FB00BF0020009009489A
:10149000006840F40010074908600846006800F43E
:1014A0000010009000BF00BF06B010BD0054004007
:1014B00000040240403802400348006803490978AC
:1014C000084401490860704700000020080000201F
:1014D00010B50D48006840F400700B4908600846DC
:1014E000006840F4806008600846006840F480703E
:1014F0000860032000F0A6F8002000F007F800F0D4
:101500002BF8002010BD0000003C024070B50446DE
:101510000E4800784FF47A71B1FBF0F00C4909687D
:10152000B1FBF0F5284600F07AFC08B1012070BD4F
:10153000102C07D200222146501E00F045F8054825
:10154000046001E00120F2E70020F0E7080000203D
:10155000680000200400002010B5072000F072F899
:10156000002211466FF00B0000F02EF80022114609
:101570006FF00A0000F028F8002211466FF0090011
:1015800000F022F800221146501F00F01DF8002242
:101590001146101F00F018F800221146901E00F0AE
:1015A00013F800221146501E00F00EF810BD00BFC7
:1015B00000F01F02012191404209920002F1E02255
:1015C000C2F8001100BF70472DE9F05F80460D465C
:1015D0001646002701F06AFF074639462A46334679
:1015E00001F00700C0F1070ABAF1040F02D94FF069
:1015F000040A01E0C0F1070AD14600F1040ABAF179
:10160000070F02D24FF0000A01E0A0F1030AD4460E
:101610004FF0010A0AFA09FAAAF1010A0AEA020AD3
:101620000AFA0CFA4FF0010B0BFA0CFBABF1010BB1
:101630000BEA030B4AEA0B042146404601F03EFF49
:10164000BDE8F09F00BF00F00702064B19684FF697
:10165000FF031940044B0B4343EA0221014B19607D
:1016600000BF70470CED00E00000FA0570B50446BD
:101670000D460CB9012070BD5848006800F00F00FD
:10168000A84209D255490D700846006800F00F00C5
:10169000A84201D00120EEE7207800F002000228E5
:1016A0001DD1207800F00400042805D14C480068C2
:1016B00040F4E0504A490860207800F0080008280B
:1016C00005D14748006840F46040454908604448F7
:1016D000006820F0F000A1680843414908602078C4
:1016E00000F00100A8B36068012807D13C48083821
:1016F0000068C0F34040B8B90120BCE76068022828
:1017000002D06068032807D1354808380068C0F364
:10171000406048B90120AEE7314808380068C0F39E
:10172000400008B90120A6E72D48006820F003001A
:10173000616808432A490860FFF7C0FA064609E0D5
:10174000FFF7BCFA801B41F28831884202D903209E
:1017500091E707E02248006800F00C006168B0EBF8
:10176000810FEDD11D48006800F00F00A84209D993
:101770001A490D700846006800F00F00A84201D019
:10178000012078E7207800F00400042807D11448ED
:10179000006820F4E050E1680843114908602078AF
:1017A00000F00800082808D10D48006820F46040C7
:1017B000216940EAC1000A49086000F02DF8084993
:1017C0000968C1F30311074A515CC8400649086023
:1017D0000020FFF79BFE00204DE70000003C024088
:1017E00008380240CC50000868000020014800681A
:1017F000704700006800002000B5FFF7F7FF0449BC
:101800000968C1F38221034A515CC84000BD000051
:1018100008380240DC5000082DE9F047002400257C
:101820000026A1462548006800F00C0020B10428DD
:1018300005D008283AD105E0DFF8849039E0DFF8D8
:10184000849036E01D48001F006800F03F041B48EC
:10185000001F006800F4800078B11A481749091F7A
:101860000968C1F38811A0FB0170014622460023DC
:101870003846FEF7A5FC05460EE011480F49091F42
:101880000968C1F38811A0FB0170014622460023BC
:101890003846FEF795FC05460848001F0068C0F36F
:1018A0000140401C4600B5FBF6F902E0DFF810905D
:1018B00000BF00BF4846BDE8F0870000083802407E
:1018C0000024F40000127A00F8B504460CB9012097
:1018D000F8BD207800F00100002874D0F9480068B5
:1018E00000F00C0004280DD0F648006800F00C0051
:1018F000082813D1F348001F006800F48000B0F5F9
:10190000800F0BD1EF4808380068C0F34040002832
:1019100059D06068002856D10120D9E700BF60681F
:10192000B0F5803F08D1E7480838006840F48030BF
:10193000E449083908601EE06068B0F5A02F0DD1B9
:10194000E0480838006840F48020DE490839086023
:101950000846006840F4803008600CE0D948083838
:10196000006820F48030D7490839086008460068CC
:1019700020F48020086000BF606890B1FFF79EF9F6
:10198000054606E0FFF79AF9401B642801D90320B9
:101990009EE7CC4808380068C0F340400028F1D0EA
:1019A00011E0FFF78BF9054606E0FFF787F9401BCA
:1019B000642801D903208BE7C24808380068C0F3C7
:1019C00040400028F1D1207800F0020002285FD1C9
:1019D000BC48006800F00C0058B1BA48006800F03C
:1019E0000C0008281CD1B748001F006800F48000D4
:1019F000B0B9B44808380068C0F3400020B1E068CE
:101A0000012801D0012063E7AE480838006820F0C3
:101A1000F800216940EAC100AA490839086037E0A6
:101A2000E06800B30120A8490860FFF747F90546C0
:101A300006E0FFF743F9401B022801D9032047E7DE
:101A4000A04808380068C0F340000028F1D09D4845
:101A50000838006820F0F800216940EAC10099497F
:101A60000839086014E0002097490860FFF726F95C
:101A7000054606E0FFF722F9401B022801D90320A2
:101A800026E7904808380068C0F340000028F1D1EC
:101A9000207800F0080008282CD16069A8B1012046
:101AA0008A490860FFF70AF9054606E0FFF706F9DC
:101AB000401B022801D903200AE782486C300068E5
:101AC000C0F340000028F1D014E000207F490860F6
:101AD000FFF7F4F8054606E0FFF7F0F8401B022890
:101AE00001D90320F4E677486C300068C0F3400069
:101AF0000028F1D1207800F00400042870D10026DD
:101B000070483830006800F0805090B900BF002065
:101B100000906C483830006840F080506949383196
:101B200008600846006800F08050009000BF00BFC9
:101B300001266748006800F48070B0B96448006806
:101B400040F4807062490860FFF7B8F8054606E087
:101B5000FFF7B4F8401B022801D90320B8E65C481F
:101B6000006800F480700028F2D000BFA06801284F
:101B700008D154486830006840F00100514968318C
:101B800008601DE0A06805280DD14E486830006847
:101B900040F004004B49683108600846006840F096
:101BA000010008600CE047486830006820F0010040
:101BB0004449683108600846006820F00400086065
:101BC00000BFA068A8B1FFF779F8054609E0FFF764
:101BD00075F8401B41F28831884202D9032077E62C
:101BE00026E0384868300068C0F340000028EED096
:101BF00013E0FFF763F8054608E0FFF75FF8401BC6
:101C000041F28831884201D9032061E62D486830CD
:101C10000068C0F340000028EFD1012E07D1294809
:101C20003830006820F0805026493831086000BF05
:101C3000A069B8B32348006800F00C0008285ED003
:101C4000A069022846D100201F490866FFF736F830
:101C5000054606E0FFF732F8401B022801D90320B1
:101C600036E6184808380068C0F340600028F1D113
:101C7000D4E907010843616A40EA81110122A06AA0
:101C8000C2EB500041EA00412C20005D41EA0060B7
:101C90000C49091F086001200B490866FFF70EF880
:101CA000054607E02DE0FFF709F8401B022801D99F
:101CB00003200DE6034808380068C0F340600028A0
:101CC000F1D01EE00838024000004742800E474233
:101CD0000070004000200C490866FEF7EFFF054643
:101CE00006E0FEF7EBFF401B022801D90320EFE5D9
:101CF00006480068C0F340600028F2D101E00120EE
:101D0000E6E50020E4E5000000004742003802401C
:101D100010B504460CB9012010BD606A00B900BFBF
:101D20000021A16294F8510028B9002084F85000E5
:101D3000204600F033F8022084F851002068006843
:101D400020F0400021680860D4E901010843E168FF
:101D500008432169084361690843218B01F400713C
:101D60000843E1690843216A0843A16A08432168DE
:101D700008600421A06901EA1040616A08432168F3
:101D800048602068C06920F400602168C8610020B4
:101D90006065012084F851000020BDE710B586B0D1
:101DA00004461149206888421CD100BF00200090E1
:101DB0000E48006840F480500C49086008460068EE
:101DC00000F48050009000BF00BFE020019002208E
:101DD00002900020039004900520059001A904487A
:101DE000FEF766FE06B010BD0030014044380240E8
:101DF00000000240042808D14FF0E021096941F0B9
:101E000004014FF0E022116107E04FF0E021096981
:101E100021F004014FF0E02211617047704770B566
:101E200004462546681EB0F1807F01D301200FE0F3
:101E3000681E4FF0E02148610F214FF0FF3001F0A4
:101E40003DFB00204FF0E021886107200861002061
:101E500070BD10B5FFF7E2FF10BD70477047024636
:101E600000BF92F83800012801D1022070470120FC
:101E700082F8380000BF022082F8390010684068FC
:101E800020F0700013685860106840680B681843B1
:101E9000136858601068806820F0800013689860AC
:101EA000106880684B68184313689860012082F8B6
:101EB000390000BF002082F8380000BF00BFD5E71E
:101EC00010B504460CB9012010BD94F8390028B9AA
:101ED000002084F83800204600F00CF8022084F836
:101EE0003900211D206801F0E1FB012084F8390050
:101EF0000020E9E710B586B004462D4920688842E5
:101F00003DD100BF002000902A48006840F0010049
:101F1000284908600846006800F00100009000BFF2
:101F200000BF481501900220029000200390049009
:101F30000120059001A92048FEF7BAFD00221146B4
:101F40001820FFF741FB1820FFF731FB0022114654
:101F50001920FFF739FB1920FFF729FB0022114652
:101F60001A20FFF731FB1A20FFF721FB0022114650
:101F70001B20FFF729FB1B20FFF719FB15E00F497A
:101F80002068884211D100BF002000900948001F3E
:101F9000006840F002000749091F08600846006811
:101FA00000F00200009000BF00BF06B010BD0000AE
:101FB000000001404438024000100240000400408C
:101FC0002DE9F04104460D46002600BF94F8380084
:101FD000012802D10220BDE8F081012084F83800F8
:101FE00000BF022084F839002068866826F0770652
:101FF00026F47F4620688660286850283BD00CDC99
:10200000202860D004DC002853D0102865D155E08A
:1020100030285DD0402860D141E0602835D070285C
:102020000DD0B0F5805F03D0B0F5005F55D115E05D
:102030002068806820F00700216888604EE0D5E9BC
:1020400002136A68206801F0A3FB2068866826F006
:10205000770646F07706206886603FE0D5E90213F0
:102060006A68206801F094FB2068806840F4804032
:102070002168886032E0EA686968206801F07EFCC7
:102080005021206801F090FB28E0EA686968206828
:1020900001F089FC6021206801F086FB1EE0EA68FF
:1020A0006968206801F06AFC4021206801F07CFB2F
:1020B00014E00021206801F077FB0FE01021206878
:1020C00001F072FB0AE02021206801F06DFB05E0C1
:1020D0003021206801F068FB00E000BF00BF012054
:1020E00084F8390000BF002084F8380000BF00BF2A
:1020F00071E7704710B5044620680069C0F34000DE
:10210000D8B12068C068C0F34000B0B16FF00200E1
:1021100021680861012020762068806900F00300B2
:1021200018B12046FFF7E5FF05E0204600F0C8F8AB
:10213000204600F065F90020207620680069C0F391
:102140008000D8B12068C068C0F38000B0B16FF0E3
:10215000040021680861022020762068806900F46C
:10216000407018B12046FFF7C4FF05E0204600F09C
:10217000A7F8204600F044F9002020762068006986
:10218000C0F3C000D8B12068C068C0F3C000B0B1CF
:102190006FF0080021680861042020762068C0697B
:1021A00000F0030018B12046FFF7A3FF05E020462A
:1021B00000F086F8204600F023F900202076206801
:1021C0000069C0F30010D8B12068C068C0F30010E7
:1021D000B0B16FF0100021680861082020762068F7
:1021E000C06900F4407018B12046FFF782FF05E097
:1021F000204600F065F8204600F002F90020207625
:102200002068006900F0010058B12068C06800F043
:10221000010030B16FF0010021680861204600F034
:10222000F0F820680069C0F3C01058B12068C06899
:10223000C0F3C01030B16FF0800021680861204603
:10224000FFF70BFE20680069C0F3801058B12068CA
:10225000C068C0F3801030B16FF0400021680861A1
:10226000204600F0CFF820680069C0F3401058B154
:102270002068C068C0F3401030B16FF020002168C2
:1022800008612046FFF7EAFD10BD000010B586B0DA
:1022900004460949206888420CD140200190022060
:1022A00002900020039004900220059001A90348A9
:1022B000FEF7FEFB06B010BD00040040000802401F
:1022C000704770B504460D46164600BF94F83800B6
:1022D000012801D1022070BD012084F8380000BF20
:1022E000022084F8390036B1042E1BD0082E31D0DC
:1022F0000C2E5ED145E02946206801F05FFA206887
:10230000806940F00800216888612068806920F0B9
:102310000400216888612068806929690843216870
:10232000886147E02946206801F080FA20688069CA
:1023300040F40060216888612068806920F4806032
:102340002168886120688069296940EA0120216844
:1023500088612FE02946206801F0A4FA2068C0694E
:1023600040F008002168C8612068C06920F00400BE
:102370002168C8612068C069296908432168C8616B
:1023800018E02946206801F0C9FA2068C06940F4C5
:1023900000602168C8612068C06920F480602168FD
:1023A000C8612068C069296940EA01202168C861C4
:1023B00000E000BF00BF012084F8390000BF00200A
:1023C00084F8380000BF00BF85E710B504460CB99B
:1023D000012010BD94F8390028B9002084F8380095
:1023E000204600F00CF8022084F83900211D2068F6
:1023F00001F05CF9012084F839000020E9E770471A
:102400007047704770472DE9F04106460C46356825
:10241000002705F5A06000EB4410806800F0040080
:1024200090B1042105F5A06000EB4410816005F532
:10243000A06000EB4410C06840F0020105F5A06008
:1024400000EB4410C16069E005F5A06000EB4410AA
:10245000806800F0200030B1202105F5A06000EB7D
:10246000441081605AE005F5A06000EB44108068DC
:1024700000F0080028B305F5A06000EB4410C06828
:1024800040F0020105F5A06000EB4410C160052199
:1024900004EB840206F1380000EBC20080F825103E
:1024A000102105F5A06000EB44108160082105F5BE
:1024B000A06000EB441081602146306802F027F9EB
:1024C0002CE005F5A06000EB4410806800F480600B
:1024D00020B305F5A06000EB4410C06840F0020195
:1024E00005F5A06000EB4410C1602146306802F0A1
:1024F0000EF9102105F5A06000EB44108160082161
:1025000004EB840206F1380000EBC20080F82510CD
:10251000C90105F5A06000EB4410816005F5A060DD
:1025200000EB4410806800F40070B8B105F5A060BD
:1025300000EB4410C06840F0020105F5A06000EB1C
:102540004410C1602146306802F0E1F84FF4007198
:1025500005F5A06000EB44108160CBE105F5A060BB
:1025600000EB4410806800F0010000287DD0306945
:10257000A8B104EB840106F1380000EBC100016949
:1025800005F5A06000EB44100069C0F31200091AC1
:1025900004EB840206F1380000EBC2004161012126
:1025A00004EB840206F1380000EBC20080F825102D
:1025B000002104EB840206F1380000EBC200016246
:1025C000012105F5A06000EB4410816004EB84015B
:1025D00006F1380000EBC100C07940B104EB840182
:1025E00006F1380000EBC100C079022816D105F5CC
:1025F000A06000EB4410C06840F0020105F5A06047
:1026000000EB4410C1602146306802F080F81021D0
:1026100005F5A06000EB441081602BE004EB840121
:1026200006F1380000EBC100C079032822D105F57E
:10263000A06000EB4410006840F0005105F5A06078
:1026400000EB44100160012104EB840206F1380024
:1026500000EBC20080F8241004EB840106F138007E
:1026600000EBC10090F8242000E014E02146304641
:10267000FEF7C8FB04EB840106F1380000EBC10053
:10268000007E80F0010104EB840206F1380000EBCB
:10269000C20001762EE105F5A06000EB44108068D1
:1026A00000F00200002871D005F5A06000EB441096
:1026B000C06820F0020105F5A06000EB4410C16085
:1026C00004EB840106F1380000EBC10090F825000E
:1026D000012809D1012104EB840206F1380000EB46
:1026E000C20080F8241069E004EB840106F1380090
:1026F00000EBC10090F82500052809D1052104EB65
:10270000840206F1380000EBC20080F8241055E086
:1027100004EB840106F1380000EBC10090F82500BD
:10272000062809D004EB840106F1380000EBC10053
:1027300090F82500082841D104EB840106F1380007
:1027400000EBC10004EB8401026A06F1380000EBE3
:10275000C100006A401C04EB840306F1380101EB60
:10276000C3010862032A12D9002104EB840206F196
:10277000380000EBC2000162042104EB840206F180
:10278000380000EBC20080F8241009E029E00221A3
:1027900004EB840206F1380000EBC20080F824103C
:1027A00005F5A06000EB4410076827F0804747F06C
:1027B000004705F5A06000EB44100760022105F515
:1027C000A06000EB4410816004EB840106F1380046
:1027D00000EBC10090F8242021463046FEF712FBA2
:1027E00088E005F5A06000EB4410806800F08000F0
:1027F00070B305F5A06000EB4410C06840F0020122
:1028000005F5A06000EB4410C16004EB840106F103
:10281000380000EBC100006A401C04EB840206F1A2
:10282000380101EBC2010862062104EB840206F1C3
:10283000380000EBC20080F825102146306801F016
:1028400066FF802105F5A06000EB4410816051E037
:10285000FFE705F5A06000EB4410806800F0100071
:10286000E8B304EB840106F1380000EBC100C07945
:1028700003280FD105F5A06000EB4410C06840F0BC
:10288000020105F5A06000EB4410C16021463068EC
:1028900001F03DFF032104EB840206F1380000EB58
:1028A000C20080F82510102105F5A06000EB44104F
:1028B000816004EB840106F1380000EBC100C079AF
:1028C00040B104EB840106F1380000EBC100C0798F
:1028D00002280FD105F5A06000EB441000E009E0EC
:1028E000076827F0804747F0004705F5A06000EB38
:1028F00044100760BDE8F08170B505460C462E68AF
:1029000006F5A06000EB4410806800F0040090B170
:10291000042106F5A06000EB4410816006F5A0607C
:1029200000EB4410C06840F0020106F5A06000EB27
:102930004410C16047E206F5A06000EB44108068D7
:1029400000F0200088B3202106F5A06000EB4410C1
:10295000816004EB840105F1380000EBC10040798F
:102960000128E7D1042104EB840205F1380000EBD3
:10297000C20080F8251006F5A06000EB4410C06886
:1029800040F0020106F5A06000EB4410C160214652
:10299000286801F0BCFE022104EB840205F1380036
:1029A00000EBC20080F824100DE2FFE706F5A060FE
:1029B00000EB4410806800F0400038B3042104EBC1
:1029C000840205F1380000EBC20080F825100021D8
:1029D00004EB840205F1380000EBC200016206F549
:1029E000A06000EB4410C06840F0020106F5A06052
:1029F00000EB4410C1602146286801F088FE4021A8
:102A000006F5A06000EB44108160DCE106F5A060F3
:102A100000EB4410806800F40070B8B106F5A060C7
:102A200000EB4410C06840F0020106F5A06000EB26
:102A30004410C1602146286801F069FE4FF400711E
:102A400006F5A06000EB44108160BCE106F5A060D3
:102A500000EB4410806800F0010030B3002104EB6B
:102A6000840205F1380000EBC200016206F5A060A7
:102A700000EB4410C06840F0020106F5A06000EBD6
:102A80004410C1602146286801F041FE012106F58D
:102A9000A06000EB4410816004EB840205F1380073
:102AA00000EBC20080F825108DE106F5A06000EB78
:102AB0004410806800F00800F8B1082106F5A06015
:102AC00000EB4410816006F5A06000EB4410C06884
:102AD00040F0020106F5A06000EB4410C160214601
:102AE000286801F014FE052104EB840205F138008A
:102AF00000EBC20080F8251065E106F5A06000EB50
:102B00004410806800F0100038B3002104EB840208
:102B100005F1380000EBC200016206F5A06000EB91
:102B20004410C06840F0020106F5A06000EB4410BC
:102B3000C1602146286801F0EAFD032104EB84020C
:102B400005F1380000EBC20080F82510102106F5D1
:102B5000A06000EB4410816035E106F5A06000EB59
:102B60004410806800F08000F8B106F5A06000EB2A
:102B70004410C06840F0020106F5A06000EB44106C
:102B8000C1602146286801F0C2FD062104EB8402E1
:102B900005F1380000EBC20080F82510802106F511
:102BA000A06000EB441081600DE106F5A06000EB31
:102BB0004410806800F4806028B306F5A06000EB44
:102BC0004410C06840F0020106F5A06000EB44101C
:102BD000C1602146286801F09AFD102106F5A06029
:102BE00000EB44108160890106F5A06000EB441001
:102BF0008160082104EB840205F1380000EBC2007B
:102C000080F82510DFE006F5A06000EB4410806836
:102C100000F0020000287CD006F5A06000EB441014
:102C2000C06820F0020106F5A06000EB4410C1600E
:102C300004EB840105F1380000EBC10090F8250099
:102C4000012822D1012104EB840205F1380000EBB8
:102C5000C20080F8241004EB840105F1380000EB79
:102C6000C100C07902280FD104EB840105F13800BE
:102C700000EBC100407E80F0010104EB840205F10D
:102C8000380000EBC20041768BE004EB840105F1D3
:102C9000380000EBC10090F82500032809D102217B
:102CA00004EB840205F1380000EBC20080F8241028
:102CB00077E004EB840105F1380000EBC10090F8E7
:102CC0002500042811D1022104EB840205F138000B
:102CD00000EBC20080F82410002104EB840205F10F
:102CE000380000EBC20041715BE004EB840105F1A8
:102CF000380000EBC10090F8250005280AD1052115
:102D000004EB840205F1380000EBC20080F82410C7
:102D100047E058E004EB840105F1380000EBC10006
:102D200090F82500062809D004EB840105F138004D
:102D300000EBC10090F82500082832D104EB840193
:102D400005F1380000EBC10004EB8401026A05F1D3
:102D5000380000EBC100006A401C04EB840305F15D
:102D6000380101EBC3010862032A11D9002104EBE9
:102D7000840205F1380000EBC2000162042104EB7B
:102D8000840205F1380000EBC20080F8241008E04E
:102D9000022104EB840205F1380000EBC20080F848
:102DA0002410022106F5A06000EB4410816004EBC2
:102DB000840105F1380000EBC10090F82420214681
:102DC0002846FEF71FF870BD7CB504462568D5F887
:102DD00040040190D5F840040090009820F02E00A7
:102DE0000090019800F00200022810D1019800F034
:102DF000010040B12068806920F00050216888619E
:102E00002046FDF761FF009840F002000090019815
:102E100000F00800082833D1009840F00800009026
:102E2000019800F0040004281ED1A06902280FD1E7
:102E3000019800F4C020B0F5802F04D10221206851
:102E400001F00EFF0CE00121206801F009FF07E00E
:102E5000E068032804D14EF6602140F2044041515D
:102E60002046FDF731FF0BE0D5F8400420F02E009E
:102E7000C5F840042068806940F0005021688861EE
:102E8000019800F02000202803D1009840F0200095
:102E900000900098C5F840047CBD00002DE9F04783
:102EA00005462F680024A046A1462868D0F8208057
:102EB00008F00F04C8F3434AC8F30A16BAF1020F28
:102EC00009D0BAF1030F66D0BAF1050F61D0BAF19B
:102ED000070F5FD160E0002E5AD004EB840105F1AA
:102EE000380000EBC100C068E8B3B2B204EB840C58
:102EF00005F1380303EBCC03D968286801F0D5FE4F
:102F000004EB840105F1380000EBC100C0688119B1
:102F100004EB840205F1380000EBC200C16004EB51
:102F2000840105F1380000EBC1004069811904EB10
:102F3000840205F1380000EBC200416107F5A06092
:102F400000EB441000691649084060B107F5A06025
:102F500000EB4410D0F8009029F0804949F0004976
:102F600007F5A06000E013E000EB4410C0F800900B
:102F700004EB840105F1380000EBC100007E80F015
:102F8000010104EB840205F1380000EBC200017678
:102F900003E002E000BF00BF00BF00BFBDE8F08754
:102FA0000000F81F1FB51848184908604FF480301A
:102FB0004860010215488160002101618161016260
:102FC000C162134981620021C1600121C1610021F8
:102FD000016301214161FDF783FC20B140F24711FB
:102FE0000CA001F0FAFE0120009001900020029058
:102FF00069460648FDF7F2FA20B140F2511105A0EA
:1030000001F0EBFE1FBD000000200140D4060020AF
:103010000100000F2E2E2F5372632F6D61696E2EEB
:10302000630000001CB50D480D4908600846FDF717
:10303000ECFC20B140F261110AA001F0CEFE0020AC
:1030400000900190002269460548FDF7B1FC20B1CF
:103050004FF4B57103A001F0C0FE1CBD0074004028
:103060001C0700202E2E2F5372632F6D61696E2E68
:103070006300000070B5044625460CB9012500E048
:1030800000252A4601210248FDF712FE70BD00000E
:103090000008024000B587B000BF002001907B48C7
:1030A000006840F01000794908600846006800F0A8
:1030B0001000019000BF00BF00BF00200190084633
:1030C000006840F0040008600846006800F0040052
:1030D000019000BF00BF00BF0020019008460068BB
:1030E00040F0800008600846006800F08000019011
:1030F00000BF00BF00BF002001900846006840F0FC
:10310000010008600846006800F00100019000BF5F
:1031100000BF00BF002001900846006840F0020098
:1031200008600846006800F00200019000BF00BF80
:1031300000BF002001900846006840F008000860C9
:103140000846006800F00800019000BF00BF0022A0
:1031500008214F48FDF7ACFD012211464D48FDF70F
:10316000A7FD00224FF440414B48FDF7A1FD00228E
:103170004FF690714948FDF79BFD08200290012011
:10318000039000200490059002A94148FDF790FCAF
:1031900001200290039000200490059002A93D4870
:1031A000FDF786FC08200290022003900020049086
:1031B00005900520069002A93648FDF779FC01200C
:1031C0000290374803900020049002A93548FDF78B
:1031D0006FFC0420029000200390049002A92E4866
:1031E000FDF766FC4FF6805002900020039004909B
:1031F00002A92748FDF75CFC4FF480600290022092
:1032000003900020049005900520069002A9224812
:10321000FDF74EFC4FF44040029001200390002047
:103220000490059002A91C48FDF742FC4FF69070EF
:1032300002900120039000200490059002A91748F5
:10324000FDF736FC4FF4A4500290022003900020BA
:10325000049005900620069002A90E48FDF728FC70
:103260002020029000200390049002A90B48FDF753
:103270001FFC022002900A4803900020049002A93B
:103280000348FDF715FC07B000BD000030380240D0
:10329000001002400008024000040240000C0240FE
:1032A000000012100000024010B50D480D490860E2
:1032B0000D48486000210B488160C1604FF4804197
:1032C0000161002141618161C1610162FEF732F853
:1032D00020B14FF4BF7105A001F07FFD10BD0000CB
:1032E0000054004030070020A08601002E2E2F53EE
:1032F00072632F6D61696E2E6300000010B50F4878
:103300000F4908604FF48270486000210C488160CA
:10331000C160016141614FF4007181610021C161AF
:103320000162416281620A21C162FEF7F1FC20B1B3
:103330004FF4CB7103A001F050FD10BD00300140EF
:10334000840700202E2E2F5372632F6D61696E2E1D
:103350006300000000B587B01748184908600020D6
:103360004860002115488160C16001614161FEF73C
:10337000A7FD20B14FF4D57111A001F02EFD4FF43F
:103380008050039003A90D48FEF71AFE20B14FF4B8
:10339000D8710BA001F021FD00200190029001A93D
:1033A0000648FEF75CFD20B140F2B71104A001F021
:1033B00014FD07B000BD000000000140DC07002044
:1033C0002E2E2F5372632F6D61696E2E63000000E5
:1033D00000B58DB0254826490860002048600021CE
:1033E00023488160C1600161FEF76AFD20B140F2AF
:1033F000CB1120A001F0F1FC4FF48050099009A9F5
:103400001B48FEF7DDFD20B140F2D11119A001F0FB
:10341000E4FC1748FEF7D9FF20B14FF4EB7115A07B
:1034200001F0DBFC00200790089007A91048FEF788
:1034300016FD20B140F2DD110EA001F0CEFC60209F
:1034400000900020019002900490002269460848F4
:10345000FEF737FF20B14FF4F37106A001F0BDFC79
:103460000348FEF713FF0DB000BD0000000400404C
:10347000180800202E2E2F5372632F6D61696E2E57
:103480006300000010B501220549064800F055FE12
:103490000549044801F00BF8024801F028F810BD76
:1034A000054500087400002048000020024800681C
:1034B000C0F30220704700000CED00E010B50028BA
:1034C00007DA0A07140E054A00F00F031B1FD45435
:1034D00003E00A07130E024A135410BD18ED00E072
:1034E00000E400E010B50248FDF7C1FD10BD00008A
:1034F0003C04002070B504460D4621212174202192
:10350000617400216182A1820721E182072229469C
:10351000204600F083FC70BD10B5FDF7CDFFFEF72F
:1035200098FC10BD10B592B000BF0020009030484C
:10353000006840F080502E4908600846006800F09E
:103540008050009000BF00BF00BF002000902948BD
:10355000006840F48040274908600846006800F48D
:103560008040009000BF00BF01200690000407903B
:1035700002200C9041050D9108210E914FF4A87185
:103580000F91022110910721119106A8FEF79CF9D5
:1035900020B14FF48A7118A001F01FFC0F20019098
:1035A00002200290002003904FF4A05004904FF4AA
:1035B00080500590052101A8FEF758F820B14FF47E
:1035C00091710DA001F009FCFEF710F94FF47A712A
:1035D000B0FBF1F42046FEF722FC0420FEF70AFCC3
:1035E00000221146501EFDF7EFFF12B010BD000083
:1035F00040380240007000402E2E2F5372632F6D12
:1036000061696E2E630000001448006840F4700089
:10361000124908601248006840F001001049086033
:1036200000200F49083108600D4800680D49084026
:103630000B4908600C48091D0860081F006820F449
:103640008020091F0860002005490C3108604FF0F8
:1036500000600249803908607047000088ED00E092
:1036600000380240FFFFF6FE1030002410B502487B
:10367000FEF740FD10BD0000DC07002010B5024839
:10368000FEF738FD10BD0000DC07002010B5024831
:10369000FEF730FD10BD0000DC07002010B5024829
:1036A000FEF728FD10BD0000DC07002000220268A4
:1036B0002C4B98420ED0B0F1804F0BD02A4B984241
:1036C00008D02A4B984205D0294B984202D0294B6A
:1036D000984201D1012300E000231BB122F07002C7
:1036E0004B681A431F4B984220D0B0F1804F1DD039
:1036F0001D4B98421AD01D4B984217D01C4B984234
:1037000014D01C4B984211D01B4B98420ED01B4B2F
:1037100098420BD01A4B984208D01A4B984205D0C9
:10372000194B984202D0194B984201D1012300E075
:1037300000231BB122F44072CB681A4302608B68ED
:10374000C3620B688362074B984202D0094B9842D0
:1037500001D1012300E000230BB10B6903630123B6
:103760004361704700000140000400400008004031
:10377000000C0040000401400040014000440140B2
:103780000048014000180040001C0040002000409C
:1037900030B50C460021816821F47F4142EA0325BF
:1037A00025432943816030BD0A460021816821F00C
:1037B000700142F0070319438160704730B500245F
:1037C00000220023056A25F001050562026A4368AC
:1037D000846924F0700424F003040D682C4322F063
:1037E00002028D682A430F4DA84202D00E4DA84216
:1037F00001D1012500E000256DB122F00802CD685D
:103800002A4322F0040223F4807323F400734D69E9
:103810002B438D692B43436084614D68456302628D
:1038200030BD0000000001400004014030B500241C
:1038300000220023056A25F010050562026A43682C
:10384000846924F4E04424F440740D6844EA0524B7
:1038500022F020028D6842EA0512104DA84202D0E3
:103860000F4DA84201D1012500E0002585B122F0CD
:103870008002CD6842EA051222F0400223F4806300
:1038800023F400634D6943EA85038D6943EA8503A8
:10389000436084614D688563026230BD0000014071
:1038A0000004014030B5002400220023056A25F4FD
:1038B00080750562026A4368C46924F0700424F0CC
:1038C00003040D682C4322F400728D6842EA05223D
:1038D000104DA84202D0104DA84201D1012500E0B0
:1038E000002585B122F40062CD6842EA052222F467
:1038F000806223F4805323F400534D6943EA051397
:103900008D6943EA05134360C4614D68C563026273
:1039100030BD0000000001400004014030B500222D
:1039200000230024056A25F480550562036A446873
:10393000C26922F4E04222F440720D6842EA052294
:1039400023F400538D6843EA05330A4DA84202D0A0
:10395000094DA84201D1012500E0002525B124F43C
:1039600080444D6944EA85144460C2614D68056431
:10397000036230BD000001400004014030B50B4639
:10398000144600210022026A056A25F0010505623D
:10399000816921F0F00141EA041122F00A021A4380
:1039A0008161026230BD30B50B4614460021002211
:1039B000056A25F0100505628169026A21F47041EB
:1039C00041EA043122F0A00242EA0312816102625C
:1039D00030BD70B506460D46304600F0ADFA0446DF
:1039E0004FF6FF70844205D045F4004106F55F7044
:1039F00040F82410E0B270BD2DE9FF4107460C46A7
:103A000015461E460020012102230A468DE8320099
:103A100003903146384600F0FAFC002004B0BDE8BF
:103A2000F0812DE9FF4104460D4617461E46DDF89C
:103A3000288094F81D0308B14FF0000801200223EC
:103A4000002231468DE8A101204600F0E0FC002074
:103A500004B0BDE8F08170B504460225D4F87403C3
:103A6000C66906F140012046FCF7A5FD054625B9CB
:103A700002212046D4F8C4239047284670BD70B573
:103A80000546D5F87403C469207848B121782846E2
:103A900000F092F92178284600F03FFA00202070CB
:103AA000207B48B1217B284600F086F9217B2846FF
:103AB00000F033FA00202073607B48B1617B284618
:103AC00000F07AF9617B284600F027FA0021617343
:103AD000D5F87403C06940B1D5F87413C86901F012
:103AE00065FA0020D5F87413C861002070BDFEB5DA
:103AF00005460227012302221146284600F0E5F977
:103B00000646FF2E6ED03146284600F0E5FC5020D8
:103B100001F0A6FAD5F87413C861D5F87403C46926
:103B200006EB860000EBC60105F54F7000EB410087
:103B3000007B00F0800098B106EB860000EBC60128
:103B400005F54F7000EB4100007B607006EB8600CE
:103B500000EBC60105F54F7000EB4100C0896081A4
:103B600061782846FFF735FF20706089032295F8B9
:103B70001D13CDE90012029095F81C33627821786C
:103B8000284600F07FFC21780022284600F0E6FB62
:103B900000231A460A21284600F097F90646FF2E10
:103BA000B0D006EB860000EBC60105F54F7000EBC8
:103BB0004100007B00F08000A8B106EB860000EB1E
:103BC000C60105F54F7000EB4100017BE17306EB88
:103BD000860000EBC60105F54F7000EB4100C1897E
:103BE000618314E07CE006EB860000EBC60105F57E
:103BF0004F7000EB4100017BA17306EB860000EBE8
:103C0000C60105F54F7000EB4100C189218306EB29
:103C1000860000EBC60105F54F7000EB4100007D0A
:103C200000F08000A0B106EB860000EBC60105F5B0
:103C30004F7000EB4100017DE17306EB860000EB65
:103C4000C60105F54F7000EB4100C18A618313E0A6
:103C500006EB860000EBC60105F54F7000EB410056
:103C6000017DA17306EB860000EBC60105F54F70E0
:103C700000EB4100C18A2183A17B2846FFF7A9FE02
:103C80006073E17B2846FFF7A4FE2073208B02229D
:103C900095F81D13CDE90012029095F81C33A27B14
:103CA000617B284600F0EEFB608B022295F81D1325
:103CB000CDE90012029095F81C33E27B217B284667
:103CC00000F0E0FB002084F84C00617B00222846D5
:103CD00000F044FB217B0022284600F03FFB002738
:103CE0003846FEBD70472DE9F04106460127002504
:103CF000D6F87403C46994F84C00052852D2DFE862
:103D000000F003051540470000274CE03046A16C49
:103D1000FFF7F0FB05461DB9022084F84C0004E0D3
:103D2000012D02D0042084F84C003CE004F1400155
:103D30003046FCF740FC0546EDB9002084F84C0005
:103D40004420005DA16C0979884219D14620005DAC
:103D5000A16C8979884213D14520005DA16C497915
:103D600088420DD1A16C206C0968884208D1304688
:103D7000FFF7B8FF04E0012D02D0042084F84C00C6
:103D800011E03046FCF79BFB3046FCF759FB0AE09C
:103D90000021304600F019F8054615B9002084F8D6
:103DA0004C0000E000BF00BF3846BDE8F08170471E
:103DB000014600207047704770B504460D462946FD
:103DC000204600F0D3F9002070BD70B504460D46C2
:103DD000A078012807D102212174012161740021FA
:103DE0006182A582E18200221146204600F016F889
:103DF00070BD2DE9FF4107460C4615461E460020C2
:103E0000012103460A468DE83200039031463846C8
:103E100000F0FDFA002004B0BDE8F0812DE9F0418A
:103E200004460E4617460125A078012802D0022834
:103E300019D107E0A660A781012121760220A07098
:103E4000012511E0204600F08BF805462DB9012030
:103E5000A07000212176002504E0022D02D101206E
:103E6000A07000BF00E000BF00BF2846BDE8F081A1
:103E70002DE9FF4104460D4617461E46DDF8288011
:103E800094F81D0308B14FF00008012000231A46E2
:103E900031468DE8A101204600F0B9FA002004B0B7
:103EA000BDE8F0817FB506460C4615460020082186
:103EB000CDE9000403460246CDE90210294630460A
:103EC00000F0A5FA002004B070BDF0B506460C461F
:103ED00015460022002106F232371AE002EB82007A
:103EE00000EBC20C07F10A0000EB4C014879A0423C
:103EF00001D0FF2C0BD18879A84201D0FF2D06D12B
:103F0000C879984201D0FF2B01D1D0B2F0BD501C2E
:103F100042B2022AE2DBFF20F8E702460B2909DA67
:103F200002F55F7030F82100C0F30E0302F55F70F8
:103F300040F82130002070470246002100BF0AE00F
:103F400002F55F7030F8210000F4004008B908461F
:103F50007047481CC1B20B29F2DB4FF6FF70F7E740
:103F6000F8B5044601270025207E0C2872D2DFE830
:103F700000F0D2060F303C4E5C788498A6BB627984
:103F800004F110012046FFF78DFF02212176C3E0E6
:103F90006179204600F05AF90546012D14D1207CA4
:103FA00000F08006E08A38B1802E02D1032121760C
:103FB0000EE0052121760BE0802E02D10921217629
:103FC00006E00721217603E0042D01D10B212176A3
:103FD000A2E0D4F8B803E0812379A2892046A16841
:103FE000FFF707FF0421217696E02179204600F0B3
:103FF0002DF90546012D01D109212176052D01D18B
:10400000032703E0042D01D10B21217684E0012058
:1040100000906379A2892046A168FFF729FFD4F8B0
:10402000B803E0810621217676E06179204600F030
:104030000DF90546012D02D10721217610E0052D4D
:1040400003D10C21217603270AE0022D03D105219B
:10405000217605E05FE0042D02D10B2121760227B5
:104060005AE02379002211462046FFF7C2FED4F819
:10407000B803E081082121764EE02179204600F046
:10408000E5F80546012D03D10D212176002707E033
:10409000042D02D10B21217602E0052D00D103274A
:1040A0003AE0012000906379002211462046FFF794
:1040B000DFFED4F8B803E0810A2121762CE0617993
:1040C000204600F0C3F80546012D03D100270D213D
:1040D000217608E0022D02D10921217603E0042D8A
:1040E00001D10B21217617E0607E401CC1B26176C0
:1040F000022907DC204600F06CF90121217601201D
:10410000A07007E006212046D4F8C4239047002180
:104110006176022700E000BF00BF3846F8BD10B549
:10412000044620780A2807D1D4F8740320B1D4F8C3
:10413000740381692046884710BD70B504460D465A
:1041400016460CB9022070BD84F8BC630020C4F888
:104150007403C4F878032046FCF704FA0DB1C4F8E0
:10416000C453204600F086F80020ECE72DE9F0412A
:1041700004460D46002600272946D4F8C003FCF764
:10418000CAFD064636B1012E06D0022E06D0032EF9
:1041900008D105E0002707E0022705E0012703E03A
:1041A000022701E0022700BF00BF3846BDE8F081CA
:1041B00010B50446207858B9012184F81E13D4F8AC
:1041C000C40350B104212046D4F8C423904704E02E
:1041D0002078012801D102202070002010BD10B5E8
:1041E0000446204600F0F5F821792046FFF795FEB9
:1041F00061792046FFF791FE002184F81E13D4F860
:10420000C40320B105212046D4F8C423904720469A
:1042100000F0C1F803202070002010BD70B50546E5
:104220000C4695F8BC03012802D12046FEF722FF78
:10423000C820FCF729FC002070BD70B504460D466F
:104240002946D4F8C003FCF75DFD70BD70B5044687
:104250000D462946D4F8C003FCF74AFD70BD10B5E1
:104260000446D4F8B803401CC4F8B8032046FFF74E
:1042700056FF10BD70B5044694F8BC03012822D146
:104280001248C0F89442C4F8C0034FF0A0400F4950
:10429000086008210D4881600321C160002101618F
:1042A000022181610021C161FCF794FF18B1E22174
:1042B00007A000F092FD0548FCF714FD05462946CD
:1042C000204600F048F8002070BD00003C040020AB
:1042D0002E2E2F5372632F757362685F636F6E6645
:1042E0002E6300002DE9FF5F04460D4616461F466B
:1042F000DDE90F9ADDF838804FF0000B00200390C5
:104300008DE800073B4632462946D4F8C003FCF747
:104310001CFD8346BBF1000F09D0BBF1010F09D092
:10432000BBF1020F09D0BBF1030F0CD108E0002054
:1043300003900BE00220039008E00120039005E0C9
:104340000220039002E00220039000BF00BF039808
:1043500004B0BDE8F09FC0F8B813704730B504460C
:10436000D4F8C03301EB810503F1380000EBC50040
:10437000C07838B101EB810503F1380000EBC500CE
:10438000027606E001EB810503F1380000EBC50081
:104390004276002030BD70B5044600250026D4F8D2
:1043A000C003FCF794FF054635B1012D06D0022D60
:1043B00006D0032D08D105E0002607E0022605E01F
:1043C000012603E0022601E0022600BF00BF3046BE
:1043D00070BD70B5044600250026D4F8C003FCF774
:1043E00091FF054635B1012D06D0022D06D0032DD3
:1043F00008D105E0002607E0022605E0012603E0DB
:10440000022601E0022600BF00BF304670BD2DE944
:10441000F04F85B004460D4616461F46DDE9109A5A
:10442000DDF83C804FF0000B002004900E988DE8E2
:1044300001073B4632462946D4F8C003FCF7E3FCAB
:104440008346BBF1000F09D0BBF1010F09D0BBF1CE
:10445000020F09D0BBF1030F0CD108E0002004903B
:104460000BE00220049008E00120049005E0022007
:10447000049002E00220049000BF00BF049805B041
:10448000BDE8F08F2DE9FE4F04460D4616461F4647
:10449000DDE90D9ADDF830803B463246294620465C
:1044A0008DE80007FFF71EFF0020BDE8FE8F10B566
:1044B0000246002071B1D2F878334BB9D2F8784374
:1044C000631CC2F8783302F55C7343F8241002E0F1
:1044D000022000E0022010BD0246002092F8363390
:1044E0008B4202DD82F81F1300E00220704710B5F6
:1044F00004462046FFF74FFF01212046FFF78EFEBE
:10450000002010BD012906D0022909D004290BD0B2
:1045100005290DD100E00CE00322074B1A7008E0DA
:104520000222054B1A7004E00122034B1A7000E0CE
:1045300000BF00BF70470000090000200FB410B595
:1045400004460898012816D1A06B20F48030A0639F
:10455000E06815490840E060E06820F44010E06041
:104560000F98012803D1E06840F48010E0602046F5
:1045700000F01CF809E0E06840F04000E0602046F0
:1045800000F014F84FF48030A0630698012807D19A
:10459000A06840F00600A060A06840F02000A06085
:1045A000002010BC5DF814FBBFFFBDFF01460022D8
:1045B00000BF501C02460F4B984201D903207047A0
:1045C000086900F000400028F3D00022086940F09C
:1045D0000100086100BF501C0246064B984201D9F9
:1045E0000320ECE7086900F001000028F3D100BFC8
:1045F000E5E70000400D03000146886820F0010057
:10460000886000207047000030B502460124002376
:104610000C4800EAC44040F0004502F5A06000EB01
:104620004110056102F5A06000EB4110036823F022
:10463000804343F0004302F5A06000EB41100360AB
:10464000002030BD0000F81F08B50246D2F8400433
:104650000090009820F02E000090009800F4805008
:1046600030B9012904D1009840F48050C2F84004C8
:10467000009800F48050B0F5805F05D121B9009812
:1046800020F48050C2F84004002008BD014688682C
:1046900040F00100886000207047000001460022C1
:1046A0001020086100BF501C0246064B984201D9F9
:1046B00003207047086900F010001028F3D0002094
:1046C000F7E70000400D030010B50246002320204C
:1046D00040EA8110106100BF581C0346054CA042FF
:1046E00001D9032010BD106900F020002028F3D06C
:1046F0000020F7E7400D030001464FF48160405869
:1047000080B270470146486900F00100704710B55B
:104710000246002302F5A06000EB41100068C0F3E0
:10472000814040B102F5A06000EB41100068C0F389
:104730008140022846D102F5A06000EB41100068DC
:1047400040F0804402F5A06000EB41100460D06AA4
:1047500000F47F0048BB02F5A06000EB4110006848
:1047600020F0004402F5A06000EB4110046002F567
:10477000A06000EB4110006840F0004402F5A0602A
:1047800000EB4110046000BF581C0346B0F57A7F6F
:1047900000D909E002F5A06000EB4110006800F0CC
:1047A0000040B0F1004FEFD053E002F5A06000EB05
:1047B0004110006840F0004402F5A06000EB411099
:1047C000046046E002F5A06000EB4110006840F094
:1047D000804402F5A06000EB411004604FF4826059
:1047E000805880B248BB02F5A06000EB4110006821
:1047F00020F0004402F5A06000EB4110046002F5D7
:10480000A06000EB4110006840F0004402F5A06099
:1048100000EB4110046000BF581C0346B0F57A7FDE
:1048200000D909E002F5A06000EB4110006800F03B
:104830000040B0F1004FEFD00BE002F5A06000EBBC
:104840004110006840F0004402F5A06000EB411008
:104850000460002010BD2DE9F0410446DDE9075752
:10486000069E4FF0FF3C04F5A06000EB4110C0F83D
:1048700008C035B1012D48D0022D03D0032D5DD1E4
:104880002AE000BF40F29D4C04F5A06000EB41100F
:10489000C0F80CC002F0800068B104F5A06000EB25
:1048A0004110C06840F4807C04F5A06000EB41102A
:1048B000C0F80CC00FE0B4F1A04F0CD004F5A0601C
:1048C00000EB4110C06840F0600C04F5A06000EB04
:1048D0004110C0F80CC031E040F29D6C04F5A060BE
:1048E00000EB4110C0F80CC002F0800060B104F58C
:1048F000A06000EB4110C06840F4807C04F5A0602B
:1049000000EB4110C0F80CC018E040F2252C04F573
:10491000A06000EB4110C0F80CC002F0800060B154
:1049200004F5A06000EB4110C06840F4C07C04F5C1
:10493000A06000EB4110C0F80CC000BF00BF4FF4F6
:10494000836000594FF0010C0CFA01FC40EA0C00A6
:10495000C4F81804A06940F00070A0614FF0FE5048
:1049600000EA83504FF4F04C0CEAC22C40EA0C00F1
:10497000C2F3C01C4FF4004808EACC3C40EA0C00EB
:10498000022E02D14FF0010C01E04FF0000C4FF469
:10499000003808EA4C4C40EA0C004FF4402C0CEA7A
:1049A000854C40EA0C00C7F30A0C40EA0C0004F501
:1049B000A06C0CEB411CCCF80000032D0CD104F5CD
:1049C000A06000EB4110006840F0005C04F5A060BE
:1049D00000EB4110C0F800C00020BDE8F0810146A6
:1049E00040F21440405880B2704700002DE9F84F63
:1049F00005460C4616464FF0000BDA4600274FF4EA
:104A00008078B946B5F1A04F1CD02079D0B94EB905
:104A10006079012806D161782846FFF7F5FD00206E
:104A2000BDE8F88F012E0DD1607805F5A06101EB8E
:104A30004010C06820F06002607801EB4010C26056
:104A400000206071206968B1218920690844401EF6
:104A5000B0FBF1F087B2474505DD47462089784332
:104A6000206100E00127E07810B1208978432061BF
:104A70002069C0F312003E4901EAC7410843A17A08
:104A80004FF0C04202EA41710843617805F5A06227
:104A900002EB4111086136B1607805F5A06101EBC8
:104AA0004010E26842614FF48160405900F001001B
:104AB00080F0010B607805F5A06101EB4010006803
:104AC00020F00052607801EB40100260607801EB4A
:104AD0004010006840EA4B72607801EB40100260C1
:104AE000607801EB4010D0F8009029F0804949F03F
:104AF0000049607801EB4010C0F80090AEBBE07850
:104B000098BB206988B3E07930B1012813D002281E
:104B100003D003281ED10DE000BF2069C01CC0F3E4
:104B20008F0AE86A80B2504503D2A86940F020009D
:104B3000A86110E000BF2069C01CC0F38F0A4FF4C9
:104B40008260405980B2504503D2A86940F080602D
:104B5000A86100E000BF00BF00200090208A83B25F
:104B600062782846E16800F020F9002058E700004C
:104B70000000F81F0FB470B504460020C4F8000E02
:104B8000A06B20F48020A063A06B20F40020A06321
:104B9000A06B40F40010A0630798032809D1B4F17A
:104BA000A04F06D0D4F8000440F00400C4F800047C
:104BB00005E0D4F8000420F00400C4F8000410213B
:104BC0002046FFF781FD2046FFF768FD00250DE038
:104BD0004FF0FF3104F5A06000EB4510816000212B
:104BE00004F5A06000EB4510C1606D1C0698A8425A
:104BF000EED801212046FFF727FDC820FBF744FF30
:104C00000020A061401E6061B4F1A04F07D1802058
:104C100060620E48A0620E48C4F8000107E04FF43D
:104C2000007060620B48A0620B48C4F8000108984D
:104C300018B9A06940F01000A061A06907490843B5
:104C4000A061002070BC5DF814FB000080006000D3
:104C5000E0004000000200010003E000080020A383
:104C60000246D2F8000420F00300C2F80004D2F893
:104C7000000401F003031843C2F80004012905D120
:104C80004BF6803340F20440835006E0022904D101
:104C900041F2707340F20440835000207047014697
:104CA000002048698A691040704730B503460024E7
:104CB000D01C850800BF05E04FF48050C058086044
:104CC000641C091DAC42F7D3084630BD70B50446DC
:104CD0000D46E06820F0C040E060012D04D1E0689E
:104CE00040F00050E06004E01DB9E06840F0804012
:104CF000E0603220FBF7C8FE002070BDF0B505462D
:104D000000272846FFF778FC10212846FFF7DCFC37
:104D10002846FFF7C3FC002411E005F5A06000EB76
:104D20004410066846F0804626F0004626F4004609
:104D300005F5A06000EB44100660601CC4B20F2CA7
:104D4000EBDD002423E005F5A06000EB44100668CD
:104D500046F0804646F0004626F4004605F5A06081
:104D600000EB4410066000BF781C0746B0F57A7F60
:104D700000D909E005F5A06000EB4410006800F0E0
:104D80000040B0F1004FEFD000BF601CC4B20F2C48
:104D9000D9DD4FF0FF3140F21440415108466861BF
:104DA0002846FFF773FC0020F0BDF0B50446059ED1
:104DB000002700257EB9D81C870800BF09E0D1F87C
:104DC00000C004F5805000EB0230C0F800C06D1C3C
:104DD000091DBD42F3D30020F0BD00BFFEE7000077
:104DE0000FB4054B10B503A9044A029800F018F857
:104DF00010BC5DF814FB0000754F00080C0000208B
:104E000002E008C8121F08C1002AFAD17047704793
:104E1000002001E001C1121F002AFBD170470000F1
:104E20002DE9FF4F89B09B460446002506E0252862
:104E30000BD05A460B999047641C6D1C20780028B3
:104E4000F5D10DB02846BDE8F08F0027B846012205
:104E5000474900E0074314F8013F203B02FA03F002
:104E60000842F7D120782E2819D114F8010F47F005
:104E700004072A280ED06FF02F022078A0F130010D
:104E800009290CD808EB880102EB410100EB01086D
:104E9000641CF2E70A98641C50F8048B0A9020788E
:104EA0000028CED0642808D0692806D075281ED0E6
:104EB0005A460B9990476D1C58E00A994FF00A0921
:104EC00001C90A91002802DA40422D2102E0390589
:104ED00004D52B218DF82010012103E0F90704D01F
:104EE0002021F7E78A4608AE0DE00021FAE70A998B
:104EF0004FF00A0901C90A91F7E74946FBF7A3F900
:104F0000303106F8011D0028F7D1ADEB060000F1A5
:104F10002009780701D44FF00108C84502DDA8EB4D
:104F2000090000E000208046002706E008A85A4655
:104F3000C05D0B9990476D1C7F1C5745F6DB04E064
:104F400030205A460B9990476D1CB8F10001A8F12A
:104F50000108F5DC05E016F8010B5A460B9990475D
:104F60006D1CB9F10001A9F10109F4DC641C65E7CD
:104F70000928010010B5024610460B4B1B6803F0D0
:104F800001037BB1084B803B1B6803F001034BB16D
:104F900000E000BF4FF060431B68002BF9D04FF0DA
:104FA0006044207000BF10BD800E00E010B50028E6
:104FB00021D0114B0022001F196803E0814203D861
:104FC0000A4649680029F9D152B11368841A9C42F3
:104FD00004D1006818441060104602E0506000E000
:104FE000186039B102680B1A934203D10B681A4456
:104FF00002604968416010BD6C00002011A0FFF7FD
:10500000EFFEFCF765FAFEF78DFAFEF743F8FEF7C0
:105010004BF9FEF773F9FEF735FAFDF7C3FFFEF71C
:1050200099F9FDF7FFFFFEF7D3F900BF09A0FFF7DD
:10503000D7FE002404E02146641C08A0FFF7D0FE40
:10504000F9E700006675636B207468697320736804
:10505000697400006869740A0000000025640A0091
:10506000F0B50B30154D20F007010024144A0FE075
:1050700003688B420BD38B4205D95E1A43184768ED
:10508000C3E9006700E04368136002C004E0021D4A
:1050900010680028ECD12046002802D1286808B109
:1050A0000020F0BD064A07481060074A121A22F095
:1050B0000702C0E9002401202860D7E77000002023
:1050C0006C00002094080020900A002000000000DE
:1050D00000000000010203040607080900000000A8
:1050E000010203044344430008510008000000206B
:1050F00074000000004E00087C510008740000207D
:105100001C0E0000104E00080000000010000000FF
:10511000010000000000000002000000000000008C
:105120000000000000000000CDCC4C3ECDCC4C3E39
:10513000CDCC4C3ECDCC4C3ECDCC4C3E0500000001
:1051400000000000000020410000000000000000FE
:10515000E450000802000000EF3A00087F3A00081F
:10516000573A0008E73C0008B13D00080000000085
:0C5170000024F40000000000000000001B
:040000050800018965
:00000001FF
