:020000040800F2
:10000000504C0020590200086102000863020008F9
:10001000650200086702000869020008000000008D
:100020000000000000000000000000009D0100082A
:100030006D02000800000000F10100085D320008B8
:1000400073020008730200087302000873020008BC
:1000500073020008730200087302000873020008AC
:10006000730200087302000873020008730200089C
:10007000730200087302000873020008730200088C
:100080007302000873020008050A000873020008E2
:10009000730200087302000873020008730200086C
:1000A0007302000855330008730200087302000849
:1000B000730200087302000873020008730200084C
:1000C000730200087302000873020008730200083C
:1000D000730200087302000873020008730200082C
:1000E000730200087302000873020008730200081C
:1000F000730200087302000873020008730200080C
:1001000073020008730200087302000873020008FB
:1001100073020008730200087302000873020008EB
:1001200073020008730200087302000873020008DB
:1001300073020008730200087302000873020008CB
:100140007302000873020008730200083D2F0008C4
:1001500073020008730200087302000873020008AB
:10016000730200087302000873020008730200089B
:100170007302000873020008730200080000000008
:100180007302000873020008DFF80CD000F0FCFBDB
:1001900000480047415A0008504C00202B4B19687A
:1001A0000868B0E8F04F80F30988BFF36F8F4FF015
:1001B000000080F3118870470000000006480068C6
:1001C000006880F3088862B661B6BFF34F8FBFF353
:1001D0006F8F00DF00BF00BF08ED00E0DFF80C000C
:1001E000016841F470010160704700BF88ED00E0D4
:1001F000EFF30980BFF36F8F144B1A681EF0100FD6
:1002000008BF20ED108A20E9F04F106008B44FF0CD
:10021000500080F31188BFF34F8FBFF36F8F06F04C
:1002200097FB4FF0000080F3118808BC196808683C
:10023000B0E8F04F1EF0100F08BFB0EC108A80F34A
:100240000988BFF36F8F704700BF00BFEC0000202C
:10025000EFF30580704700000648804706480047D6
:10026000FEE7FEE7FEE7FEE7FEE7FEE7FEE7FEE766
:10027000FEE7FEE701330008890100082DE9F05F81
:100280000546002092469B46884606468146402405
:100290001BE0284641464746224600F0CCF953462B
:1002A0005A46C01A914110D311461846224600F012
:1002B000B3F92D1A67EB01084F46224601200021B1
:1002C00000F0AAF917EB00094E41201EA4F1010429
:1002D000DFDC484631462A464346BDE8F09F40EA07
:1002E00001039B0703D009E008C9121F08C0042AB4
:1002F000FAD203E011F8013B00F8013B521EF9D29B
:1003000070472DE9FE4F804681EA0300C00F0C467E
:10031000009021F0004123F00045B8EB0200A94114
:1003200005D24046214690461C460B46024623F025
:100330000040104347D0270DC7F30A00C3F30A510A
:100340000290401A019040286BDAC3F3130040F486
:10035000801B0098924620B10023D2EB030A63EB86
:100360000B0B01985946C0F14002504600F054F979
:1003700006460D4650465946019A00F06CF910EBBE
:1003800008006141002487EA115284EAE7731A43A6
:1003900040D0009A62B3019A012A4FEA075215DC55
:1003A000001B61EB02014FF0004202EA0752CDE967
:1003B0000042001C41F5801132462B4600F0A3F9A3
:1003C00003B0BDE8F08F40462146F9E7001B61EB22
:1003D0000201001C41F5801300185B412018A2F5B2
:1003E000001747EB030140EAD570B6196D4111E0E3
:1003F0006D084FEA360645EAC0754FEA0752001B02
:1004000061EB0201001C41F5801149084FEA300000
:100410000019514132462B4603B0BDE8F04F00F0C1
:1004200063B90098012240000023D0EB020263EB85
:10043000E073009821464FEAE074B8EB000061EBEE
:100440000401E9E783F000435BE781F0004158E7EE
:100450002DE9F04D81EA030404F0004B21F0004542
:1004600014464FF0000A23F0004150EA050220D064
:1004700054EA01021DD0C5F30A570246C5F313031F
:10048000C1F31300C1F30A5640F4801543F48013FE
:10049000A7EB0608101BD64608F2FD3873EB0500E3
:1004A00002D308F1010801E092185B41B8F1000F96
:1004B00003DA00200146BDE8F08D00204FF48011E2
:1004C000064684460EE0171B73EB050705D3121B87
:1004D00063EB050306434CEA010C49084FEA300080
:1004E00092185B4150EA0107EDD152EA030012D0A5
:1004F00082EA040083EA0501084305D0101BAB41E2
:1005000006D20122002306E000224FF0004302E061
:100510006FF0010253101AEB06004CEB085110EB80
:100520000A0041EB0B01BDE8F04D00F0DDB80EB55F
:10053000C10F80EAE0700844CA07002140F233434B
:100540008DE80E000A460B4600F0DDF803B000BD52
:1005500070B5C1F30A5201F000450024C1F3130144
:1005600040F2FF3341F480119A4201DA002070BD5D
:1005700040F233439A42A2F2334203DC524200F08B
:100580005AF800E090402C43F1D0404270BD00F09A
:10059000004230F000400AD0C10D01F56071C0F397
:1005A000160042EA0151C20840071143704700207B
:1005B0000146704701F0004330B421F0004150EA99
:1005C000010206D00A0DA2F56072C1F31301002AE0
:1005D00002DC30BC00207047440F44EAC104C10073
:1005E000E01830BC00EBC25000F047B830B50B4605
:1005F000014600202022012409E021FA02F59D4253
:1006000005D303FA02F5491B04FA02F52844151E26
:10061000A2F10102F1DC30BD202A04DB203A00FA0D
:1006200002F1002070479140C2F1200320FA03F349
:10063000194390407047202A04DB203A21FA02F047
:100640000021704721FA02F3D040C2F1200291400C
:10065000084319467047202A06DBCB17203A41FA97
:1006600002F043EAE07306E041FA02F3D040C2F13F
:10067000200291400843194670470029A8BF7047DF
:10068000401C490008BF20F00100704710B4B0FAC8
:1006900080FC00FA0CF050EA010404BF10BC704763
:1006A00049B1CCF1200421FA04F411FA0CF118BF7D
:1006B000012121430843A3EB0C01CB1D4FEA00614C
:1006C0004FEA102042BF002010BC704700EBC3501F
:1006D00010440029A4BF10BC7047401C490008BF4B
:1006E00020F0010010BC704710B5141E73F1000417
:1006F00008DA401C41F1000192185B411A4301D114
:1007000020F0010010BD2DE9F04D92469B4611B13D
:10071000B1FA81F202E0B0FA80F220329046FFF79F
:100720007BFF04460F4640EA0A0041EA0B015346AC
:100730005A46084313D0114653EA010019D0C8F1B4
:1007400040025046FFF777FF05460E465046594691
:100750004246FFF761FF084305D0012004E0204630
:100760003946BDE8F08D0020054346EAE0762C438B
:1007700037430A986305E40AA0EB08000022FD0A4B
:1007800044EA47540A3002D500200146E9E7010552
:1007900010196941DDE9084500196941BDE8F04DCE
:1007A000A2E72DE9FE4F81EA030404F0004421F0A2
:1007B000004100944FF0000B23F0004350EA010485
:1007C0005ED052EA03045BD0C3F30A54C1F30A5566
:1007D0002C44A4F2F3340194A0FB0254C1F313019E
:1007E00041F48011C3F3130343F4801301FB02446B
:1007F00000FB034E840A970A44EA815447EA835770
:10080000A4FB076802958D0A05FB07854FEA932C28
:1008100004FB0C542705029D4FEA065847EA163799
:10082000B5EB08056EEB070C870E920E47EA8117B1
:1008300042EA8312A7FB0201B6EB0B0164EB000452
:100840002B0D43EA0C335E1844EB1C50DA4651463C
:10085000E7FB0201C5F313044FEA0B3343EA1453D9
:100860004FEA0432019C43EA0603A4F10C0402940B
:10087000009CCDE900B4FFF746FF03B0BDE8F08F60
:1008800000200146F9E72DE9F04D00231A461B1A16
:100890008A4103DB00200146BDE8F08DC1F30A5216
:1008A000C1F3130141F480154FF0000BD10702D1C1
:1008B00000186D41521E0027044640F2FF113846D1
:1008C00001EB620A3E468046024600204FF480114A
:1008D000FFF7B1FEC2197141BB1846EB0100B4EB42
:1008E000030C75EB000C04D3E41A65EB0005174606
:1008F0000E46241908F101006D4180463428E3DDDD
:10090000F91946EB0600091BA84103D24FF0FF324C
:10091000134601E0002213461BEB070046EB0A5189
:10092000BDE8F04DFFF7E0BEC1F30A52C1F3130179
:1009300040F2FF3341F480119A4202DA002001466E
:10094000704740F233439A42A2F2334202DC5242F1
:10095000FFF771BEFFF760BE30B5041E71F10004F1
:1009600004DB4FF00044404264EB0101141E73F1BC
:10097000000405DB1C464FF00043524263EB0403C6
:10098000994208BF904230BD064C074D06E0E06832
:1009900040F0010394E8070098471034AC42F6D3C6
:1009A000FFF7F6FB2C7600084C76000870B58C1823
:1009B00010F8015B15F0070301D110F8013B2A1173
:1009C00006D110F8012B03E010F8016B01F8016B60
:1009D0005B1EF9D12B0705D40023521E0DD401F85C
:1009E000013BFAE710F8013BCB1A921C03E013F825
:1009F000015B01F8015B521EF9D5A142D8D300205A
:100A000070BD0000014800F01ABA0000DC070020A9
:100A1000454910B54A6822F440324A604A68436842
:100A20001A434A6001684A6822F480724A60016889
:100A30004A68036942EA03224A6001684A6822F070
:100A400040724A6001684A6883681A434A600168D4
:100A50008A6822F400628A6001688A68C3681A435F
:100A60008A60816A6FF07062D14201688A6822F000
:100A700070628A6001688A680CD0836A1A438A604F
:100A800001688A6822F040528A6001688A68C36AF5
:100A90001A4301E022F040528A6001688A6822F01D
:100AA00002028A6001688A68836942EA43028A60B6
:100AB000016A002901684A680FD042F400624A6066
:100AC00001684A6822F460424A6001684A68174C2B
:100AD000436A04EB43331A4301E022F400624A60A4
:100AE0000168CA6A22F47002CA620168CA6A838B0A
:100AF0000F4C04EB03531A43CA6201688A6822F45C
:100B000000728A6001688A68036B42EA43228A6045
:100B100001688A6822F480628A6001688A68406994
:100B200042EA8020886010BD0023014000E0FFFF02
:100B30000000F0FF70B50546D0F87403C46994F85E
:100B40004E0003281BD0042822D1217B284603F025
:100B500011FA01281CD1217B284603F0F6F981B255
:100B6000A06A884215D0628B8A4212D2401AA062D3
:100B7000206A08442062032084F84E000FE0237BA3
:100B8000628B2846216A02F05CFD042084F84E0046
:100B900070BD002084F84E00284602F0AEFED5F865
:100BA000C803BDE870400022042105F033B8F8B551
:100BB0000546D0F874030126C46994F84D00012855
:100BC0000CD0022818D1617B284603F0D3F9012804
:100BD00013D0022810D184F84D6020E0228B606A87
:100BE0000096637B904200D882B22846E16902F009
:100BF00038FD022084F84D00F8BD208B616A002288
:100C0000814206D9091A6162E3691844E061E2D1C0
:100C100000E0626284F84D20284602F071FED5F8AB
:100C2000C803BDE8F8400022042104F0F3BF00002F
:100C300010B500224FEA020100EB8203521CC3F8F8
:100C40007C130F2AF8D300224FF400738418521C2F
:100C500084F81C119A42F9D301704170012282700C
:100C6000C0F8B813027640238371417680F81C13D4
:100C700080F81D23002010BD10B5124B002200BFCC
:100C800003EB8204646843F82240521C042AF7DB19
:100C900018619FED0D0A0D4A81ED000A002000BF8A
:100CA00053F8204000EE904A02EB8004401CF8EE1E
:100CB000E00A94ED001A052800EE810A81ED000A91
:100CC000EEDB10BDA0070020000000006C0000203B
:100CD000A1220274212242740022428282820722CF
:100CE000C28202F031BE704778B50024009490F8BB
:100CF0003C20012A19D0012280F83C200A680723F1
:100D00000568092A13D9EE680A3A02EB42029340B9
:100D10009E43EE600B788A680A3B03EB43039A40DC
:100D20000368DD682A43DA6010E0022078BD2E698E
:100D300002EB420293409E432E610B788A6803EBDC
:100D400043039A4003681D692A431A614A681F23B6
:100D5000072A13D205686E6B521E02EB8202934083
:100D60009E436E630B790A885B1E92B203EB83038A
:100D70009A4003685D6B2A435A6327E005680D2A91
:100D800012D22E6BD21F02EB820293409E432E633F
:100D90000B790A88DB1F92B203EB83039A40036846
:100DA0001D6B2A431A6311E0EE6A0D3A02EB8202D0
:100DB00093409E43EE620B790A880D3B92B203EB9F
:100DC00083039A400368DD6A2A43DA62164B05689A
:100DD000144A9D4206D10D68122D03D1556845F481
:100DE0008005556005689D4218D10B68102B01D015
:100DF000112B13D1536843F4000353600968102981
:100E00000CD10A490A4A0968B1FBF2F101EB8101F0
:100E1000490000E0491E00910029FBD180F83C40C8
:100E2000002078BD0023014000200140C4000020C4
:100E300040420F00704770470068C06C704770B543
:100E40000446006801684268C1F34001C2F34012E1
:100E500051B34AB3216CC90603D4216C41F400712B
:100E60002164816811F0405F17D1A169A9B9C16AF5
:100E700011F4700F02D0816849050ED4416821F049
:100E800020014160206C20F480702064206CC0043C
:100E900003D4206C40F0010020642046FFF7CAFF15
:100EA00021686FF012000860206801684268C1F391
:100EB0008001C2F3C01289B382B3216CC90603D486
:100EC000216C41F400512164816811F4401F1ED14E
:100ED000816B11F4401F02D08168490517D4416825
:100EE000490514D4816811F0405F10D1A16971B92E
:100EF000416821F080014160206C20F48050206422
:100F0000206CC00503D4206C40F001002064204612
:100F1000FFF7E9FE21686FF00C00086020680168A7
:100F2000426811F0010FC2F380120ED06AB100685E
:100F3000C0070AD0206C40F480302064204600F0C6
:100F400046F821686FF00100086020680168426877
:100F5000C1F34011C2F3806200290DD0002A0BD0EA
:100F6000616C41F0020161646FF02005056020466C
:100F7000FFF761FF2068056070BD70B504004FF099
:100F8000000503D0206C002610B107E0012070BDE1
:100F9000666484F83C60204600F01AF8206CC006B5
:100FA00010D4206C20F4885040F0020020642046C9
:100FB000FFF72EFD6664206C20F0020040F0010077
:100FC000206400E0012584F83C60284670BD70472D
:100FD00010B586B0044614492068884221D100BF6C
:100FE000002000901148006840F480700F490860AC
:100FF0000846006800F48070009000BF00BF022027
:101000000190032002900020039001A9084800F0FD
:1010100051F900220521122000F05AFD122000F0A3
:101020004CFD06B010BD00000020014044380240D5
:10103000000002402DE9F041044600680D46816839
:101040004FF0000749050BD58068C00508D5206C16
:1010500040F02000206484F83C700120BDE8F0815D
:1010600000F006FA06460FE0681C0DD025B100F02E
:10107000FFF9801BA84207D9206C40F004002064CF
:1010800084F83C700320E9E7206800688007EBD50E
:1010900021686FF012000860206C40F4007020643A
:1010A0002068816811F0405F13D1A16989B9C16AD4
:1010B00011F4700F02D0806840050AD4206C20F42F
:1010C00080702064206CC00403D4206C40F00100C8
:1010D00020640020C2E7000018B50021009190F8BC
:1010E0003C20012A07D0012280F83C200268936846
:1010F000DB0702D011E0022018BD936843F0010322
:101100009360204A204B1268B2FBF3F202EB4202DA
:1011100000E0521E0092002AFBD102689368DB07B0
:101120002DD0036C40F20164A34343F48073036445
:1011300053685B0505D5036C23F4005343F48053D7
:101140000364036CDB0404D5436C23F0060343649F
:1011500000E0416480F83C100C496FF022031360FA
:1011600049680068C90602D00949884207D18168E8
:1011700011F0405F03D1816841F08041816000201F
:1011800018BD0000C400002040420F0000230140B1
:101190000020014090F83C1001290CD0012180F87A
:1011A0003C1001688A6822F001028A60016889683F
:1011B000C90702D007E002207047016C21F4885172
:1011C00041F001010164002180F83C10084670479D
:1011D00070B54379012B1AD00126467102230371A1
:1011E00005682C6840F6FE7393409C43D1E90031BA
:1011F0000B43934023432B6001680B68C024944049
:10120000A3430B60067100214171084670BD0220A6
:1012100070BD70B5040003D02079002510B105E041
:10122000012070BD6571204600F008F80220207191
:10123000256101202071002070BD000010B586B02E
:10124000044610492068884219D100BF0020009050
:101250000D48006840F000500B49086008460068DF
:1012600000F00050009000BF00BF1020019003204C
:1012700002900020039001A9044800F01BF806B07A
:1012800010BD0000007400404038024000000240E1
:1012900070B5044600F0ECF80546601C02D0044826
:1012A0000078044400F0E4F8401BA042FAD370BD7B
:1012B000000000202DE9F84FDFF87CB100224FF04C
:1012C00001084FF0030A4FF00F090BF1040E00BFA5
:1012D0000B6808FA02F42340A3426ED14D68022D38
:1012E00001D0122D0ED1D50800EB850CDCF8205072
:1012F0005607F70E09FA07F6B5430E69BE402E43AE
:10130000CCF82060066855000F790AFA05FC07F052
:10131000030726EA0C06AF40374307604E68012EEC
:1013200005D0022E03D0112E01D0122E0ED18668C8
:10133000CF6826EA0C06AF40374387604668A6436D
:101340000C79C4F30014944034434460C6688C683C
:1013500026EA0C06AC403443C4604C68E40065D512
:10136000364C256845F480452560246822F0030545
:1013700004F480440094324C2E19D6F8084895079E
:101380002F0F09FA07F5AC432E4DA84201D10025D5
:1013900024E02D4DA84201D101251FE02B4DA8428C
:1013A00001D102251AE02A4DA84201D1032515E0FA
:1013B000284DA84202D1042510E037E0264DA8426E
:1013C00001D105250AE0254DA84201D1062505E0F9
:1013D000234DA84201D1072500E00825BD40254343
:1013E000C6F80858DBF800405D464E689C43F6039B
:1013F00000D51C432C60DEF8004075464E689C43C7
:10140000B60300D51C432C600B4D08352C684E6884
:101410009C43F60200D51C432C60074D0C352C680C
:101420004E689C43B60200D51C432C60521C102A07
:10143000FFF44EAFBDE8F88F003C01404438024055
:101440000030014000000240000402400008024059
:10145000000C02400010024000140240001802403C
:10146000001C02400AB1816170470904FBE70000DB
:10147000014880687047000000000020D0F8940206
:1014800002F018BDD0F8940202F030BD006803F0FD
:1014900087B8006803F088B801EB810100EBC10058
:1014A00090F85C00704701EB810100EBC100C06C5B
:1014B000704710B5044690F89002012809D0012029
:1014C00084F89002206803F07AF8002084F89002F3
:1014D00010BD022010BDFEB50546DDE9096095F896
:1014E0009042089F012C1ED0012485F8904201EB08
:1014F000810405EBC40402F07F0C04F8383F20811E
:101500006170E67184F802C04FEAD21C84F803C00F
:1015100027710097CDE90160286803F0F5F80021F4
:1015200085F89012FEBD0220FEBDD0F8940202F0B4
:1015300069BD2DE9F00301EB8104DDE90689DDE9F0
:1015400008C700EBC404022684F83B2084F83F302F
:10155000B8F1000F0AD084F84260002553B1012B86
:101560003FD0022B1DD0032B2AD120E0032584F885
:101570004250F2E7B8F1010F22D10ABBBCF1000FD3
:1015800010D1012284F8512002E084F8425001E099
:1015900084F8426094F85C20022A11D084F83D70EF
:1015A0000EE02AB994F85120002AF1D1EDE712B1EA
:1015B00094F8502001E094F8512092B184F84260F0
:1015C000C4E9119C84F85C50E56484F8391084F80F
:1015D0005D50027C04F138010068BDE8F00303F0BF
:1015E0000FB984F84250EBE72DE9F041044600685A
:1015F0000025064602F0DFFF01287DD1206803F0B8
:1016000048FA002878D0206803F043FA800203D516
:1016100021684FF400104861206803F03AFAC002D4
:1016200003D521684FF480104861206803F031FA37
:10163000400103D521684FF080604861206803F0C5
:1016400028FA800702D5216802204861206803F04B
:1016500020FA800010D5D6F8400420F02E00C6F8FD
:1016600040042046FFF70EFF0121206803F0F6F941
:1016700021684FF000504861206803F00AFAC00169
:1016800002D5204601F003FA206803F002FA0007B1
:1016900005D5204600F0ABF8216808204861206895
:1016A00003F0F7F9800120D5206803F0A2F807467F
:1016B0004FF0010812E000BF08FA05F038420CD0E4
:1016C00006EB4510D0F80005E9B20004204602D52B
:1016D00000F0B9FF01E001F0CFF86D1CA068A8424E
:1016E000EAD821684FF000704861206803F0D1F912
:1016F000C0060ED5206800E00BE0816921F01001E2
:101700008161204601F01AFA2068816941F01001D8
:101710008161BDE8F08130B58BB0040026D0032094
:1017200084F89102204600F023F8206802F0D4FEED
:1017300004F1100128220D466846FEF7D0FD94E81A
:101740000F0002F077FE0121206803F0CCF9282277
:1017500029466846FEF7C3FD94E80F0003F014F92C
:10176000012084F8910200200BB030BD0120FBE77E
:1017700030B5006887B0B0F1A04F2ED100244FF4EF
:101780000070CDE90004164D694628460294FFF723
:1017900091FD4FF4E05000900220CDE901040A20B1
:1017A000CDE9034069462846FFF784FD0D480168EE
:1017B00041F0800101600B481030016841F4804124
:1017C00001600068002200F480400590052143205C
:1017D00000F07EF9432000F070F907B030BD000042
:1017E0000000024034380240006803F066B9D0F8C7
:1017F000940202F0C3BB10B5044690F89002012891
:101800000DD0012084F89002206802F0A1FE012191
:10181000206802F087FE002084F8900210BD0220AC
:1018200010BD10B5044690F89002012809D001209F
:1018300084F89002206803F06CF9002084F890028C
:1018400010BD022010BD000070B5040004D094F853
:101850003D00002510B106E0012070BD84F83C5029
:10186000204600F075F8242084F83D0020680168C7
:1018700021F00101016000F01BFA33492268B0FB3E
:10188000F1F15160314A6368934206D94FF496737F
:1018900059434FF47A73B1FBF3F12368491C196281
:1018A000616891420BD84900B0FBF1F2C2F30B0220
:1018B000042A01D2042019E0B0FBF1F016E0A3687D
:1018C0009BB301EBC10202EB0112B0FBF2F242F456
:1018D0008042120530D04BB301EBC10202EB011183
:1018E000B0FBF1F040F4804040F400402168C86152
:1018F000D4E90701084321680860D4E903100843CC
:1019000021688860D4E9050108432168C86020681F
:10191000016841F0010101602564202084F83D0048
:10192000256384F83E50002070BD00E006E001EB26
:101930004102B0FBF2F2CCE70120D7E701EB410115
:10194000B0FBF1F0D0E7000040420F00A08601009C
:1019500010B586B004461249206888421ED14FF463
:10196000107001901220029001200390002004903A
:101970000420059001A90B48FFF79CFC00BF002044
:1019800000900948006840F40010074908600846C4
:10199000006800F40010009000BF00BF06B010BD4A
:1019A0000054004000040240403802400248816870
:1019B0000278114481607047000000200B4810B588
:1019C000016841F400710160016841F480610160C7
:1019D000016841F480710160032000F099F8002053
:1019E00000F006F800F03EF8002010BD003C024078
:1019F00010B5014688B00022192000F069F81920BE
:101A000000F05BF813480024016841F00101016017
:101A1000006805A900F001000690684600F022F970
:101A200000F056F90C494000B0FBF1F10C480B4AAC
:101A3000491E026040F2E732C0E90324C0E9011404
:101A400000F0CAFB10B1012008B010BD044800F03E
:101A5000F9FBF9E74438024040420F000000014022
:101A60002009002010B5032000F052F80022114692
:101A70006FF00B0000F02CF8002211466FF00A0006
:101A800000F026F8002211466FF0090000F020F85F
:101A900000221146501F00F01BF800221146101FB3
:101AA00000F016F800220F21901E00F011F800221D
:101AB0000F21501E00F00CF810BD00F01F02012194
:101AC00091404009800000F1E020C0F8001170470B
:101AD000F0B40E4B1B680C46C3F30223C3F1070599
:101AE000042D00D90425191D072901D2002300E087
:101AF000DB1E012606FA05F1491E214099409E4051
:101B0000761E16403143F0BC01F008BA0CED00E03F
:101B1000064900F0070208684FF6FF03184040EA44
:101B20000220034A10430860704700000CED00E0FB
:101B30000000FA052DE9F0470E46050065D0DFF8F4
:101B40001481D8F80000F7B200F00F00B04207D2BD
:101B500088F80070D8F8000000F00F00B04254D1AF
:101B600028683D4C810712D5400703D5206840F412
:101B7000E05020602878000703D5206840F46040DA
:101B800020602068A96820F0F000084320602878D1
:101B9000C0072DD0304968680839012812D00228C2
:101BA00013D0032811D00968890700292DDA21688C
:101BB00021F0030101432160FFF75AFC814641F205
:101BC000883A0EE009688903EFE709688901ECE7C4
:101BD000FFF74EFCA0EB0901514502D90320BDE8F7
:101BE000F0872068696800F00C00B0EB810FEFD13E
:101BF000D8F80010404601F00F01B14207D9077034
:101C0000006800F00F00B04201D00120E7E728781B
:101C1000400705D52068E96820F4E05008432060BB
:101C20002878000706D52068296920F4604040EA3A
:101C3000C100206000F05CF82168084AC1F303117C
:101C4000515CC840064908600020FFF7D1FE002023
:101C5000C5E70000003C024008380240E07500087B
:101C6000C40000200F2202600C4A136803F0030333
:101C70004360136803F0F0038360136803F4E053D8
:101C8000C36012684FF4E05303EAD20202610448D1
:101C9000006800F00F00086070470000083802403C
:101CA000003C02400148006870470000C40000206A
:101CB0000448054900680968044AC1F38221515C5F
:101CC000C8407047C400002008380240F075000882
:101CD0000448054900680968044AC1F34231515C6F
:101CE000C8407047C400002008380240F075000862
:101CF000154810B5006810F00C02144813D04110BC
:101D0000042A0FD0082A0ED10F4C241F2268236802
:101D100002F03F025B0207D52068C0F38810A0FBE9
:101D2000010106E0084610BD2168C1F38811A1FB3E
:101D300000010023FEF7A2FA2168C1F30141491C0A
:101D40004900B0FBF1F010BD083802400024F40057
:101D50002DE9F84F050076D02878DFF8F8B2BE4CB0
:101D6000C00749D0DBF800105846C1F381010129B2
:101D700008D00068C0F3810002280AD1201D006845
:101D8000400206D52068800336D568680028E2D076
:101D900032E06868B0F5803F10D0B0F5A02F206821
:101DA00010D020F480302060206820F48020206053
:101DB0006868A0B1FFF75CFB06460CE0206840F4C1
:101DC0008030F4E740F480202060F7E7FFF750FB15
:101DD000801B642873D820688003F7D50CE0FFF7D8
:101DE00047FB064605E000BFFFF742FB801B642867
:101DF000F0D820688003F7D42878DFF86082800765
:101E00004FF000093ED5DBF80010584611F00C0FDA
:101E100009D00068C0F3810002280BD18D48001F53
:101E20000068400206D42068800715D5E8680128BC
:101E300009D111E0E868B8B10120C8F80000FFF747
:101E400017FB064605E002E1FFF712FB801B0228A4
:101E5000C0D820688007F7D52068296920F0F800ED
:101E600040EAC10020600DE0C8F80090FFF700FBD9
:101E7000064604E0FFF7FCFA801B02281FD8206802
:101E80008007F7D42878000722D5724E7448696914
:101E90006C3671B101210160FFF7EAFA074604E0F0
:101EA000FFF7E6FAC01B022809D830688007F7D58B
:101EB0000EE0C0F80090FFF7DBFA074605E083E08C
:101EC000FFF7D6FAC01B02287ED830688007F7D407
:101ED0002878400768D5DFF87CA100270AF1380A86
:101EE000DAF80000C0000BD4DAF8001041F080519D
:101EF000CAF80010DAF80000012700F080500090C6
:101F0000584E3068C00510D4306840F4807030609E
:101F1000FFF7AEFA009005E0FFF7AAFA0099401A21
:101F2000022851D83068C005F6D54A4EA8686836F0
:101F300001280FD00528306810D020F00100306053
:101F4000306820F004003060A868B8B1FFF790FA5C
:101F500000900FE0306840F00100F4E740F004002A
:101F60003060F7E7FFF784FA0099411A41F28830B0
:101F7000814264D830688007F4D50EE0FFF778FA24
:101F8000009007E0FFF774FA0099411A41F2883097
:101F9000814254D830688007F4D42FB1DAF80010A9
:101FA00021F08051CAF80010A869C0B3DBF8001016
:101FB000C1F3810102294AD00228484607D0C8F857
:101FC0006000FFF755FA00E039E005463AE0474681
:101FD000C8F86000FFF74CFA064604E0FFF748FA3D
:101FE000801B02282BD820688001F7D4D5E907018F
:101FF0000843A96A1C4A490802EB01416A6A41EA9E
:102000008211084395F82C1040EA01611148001F25
:10201000016001203866FFF72BFA054605E014E061
:10202000FFF726FA401B022809D820688001F7D55F
:102030000BE000BFFFF71CFA401B022802D9032067
:10204000BDE8F88F20688001F4D40020F8E7012073
:10205000F6E700000838024000380240000047421E
:10206000800E4742007000400000FFFF70B5040082
:1020700005D00025A56294F8510010B106E00120BA
:1020800070BD84F85050204600F030F8022084F8EB
:1020900051002068016821F040010160D4E901018C
:1020A0000843D4E903121143084361690843218BB3
:1020B00001F400710843E1690843216A0843A16AF9
:1020C000084321680860A069042101EA1040616AA0
:1020D0000843216848602068C16921F40061C1613A
:1020E0006565012084F85100002070BD10B586B0F0
:1020F00004461149206888421CD100BF002000908E
:102100000E48006840F480500C490860084600689A
:1021100000F48050009000BF00BFE020019002203A
:1021200002900020039004900520059001A9044826
:10213000FFF7C0F806B010BD00300140443802403F
:10214000000002404FF0E0210428086903D020F08D
:1021500004000861704740F00400FAE710B5401E23
:10216000B0F1807F01D3012010BD4FF0E024606109
:102170000F21601700F0D2FE0020A061072020612F
:10218000002010BD7047704730B590F83820012A04
:1021900020D0012280F83820022380F839300368EB
:1021A0005C6824F070045C6003685C680D682C4314
:1021B0005C6003689C6824F080049C6003689C68F1
:1021C00049680C439C6080F83920002180F8381061
:1021D000084630BD022030BD10B5040003D094F88D
:1021E000390010B107E0012010BD002084F838004C
:1021F000204600F00DF8022084F83900211D2068E7
:1022000001F0AEF8012084F83900002010BD000074
:1022100008B50A4A016891420FD100BF0021009120
:102220000749096841F00201054A11601146096831
:1022300001F00201009100BF00BF08BD0004004092
:10224000403802400168CA6842F00102CA60006872
:10225000016841F0010101600020704770B504463B
:1022600090F83800012817D0012584F83850022052
:1022700084F839002068826822F0770222F47F42D5
:1022800082600868502837D00DDC202859D005DC42
:1022900088B3102841D151E0022070BD302853D0BE
:1022A00040283AD13FE060282ED070280BD0B0F5FE
:1022B000805F03D0B0F5005F2FD110E02068816807
:1022C00021F0070115E0CB68D1E90121206801F078
:1022D000B2F82168886840F0770088601DE0CB681C
:1022E000D1E90121206801F0A6F82068816841F455
:1022F0008041816011E01EE0CA684968206801F0F1
:1023000063F95021206806E0CA684968206801F036
:102310006CF96021206801F098F884F839500020A9
:1023200084F8380070BDCA684968206801F04CF92B
:1023300040212068EFE700212068ECE710212068A9
:10234000E9E720212068E6E730212068E3E77047CD
:1023500070B50446006801694FF00005C94389075C
:1023600015D4C168C943890711D4E91E0161012050
:102370002076206880698007204602D0FFF7E7FFBB
:1023800004E000F0B3F8204600F035F92576206827
:102390000169C943490717D4C168C943490713D420
:1023A0006FF004010161022020762068806910F43A
:1023B000407F204602D0FFF7CAFF04E000F096F805
:1023C000204600F018F9257620680169C9430907FD
:1023D00016D4C168C943090712D46FF0080101611E
:1023E000042020762068C0698007204602D0FFF7CD
:1023F000AEFF04E000F07AF8204600F0FCF8257605
:1024000020680169C943C90617D4C168C943C90610
:1024100013D46FF010010161082020762068C06994
:1024200010F4407F204602D0FFF791FF04E000F057
:102430005DF8204600F0DFF8257620680169C94381
:10244000C90708D1C168C943C90704D1891E016100
:10245000204600F0EDF820680169C943090609D457
:10246000C168C943090605D46FF0800101612046A7
:10247000FFF788FE20680169C943490609D4C1688D
:10248000C943490605D46FF040010161204600F0C0
:10249000D9F820680169C94389060BD4C168C943CA
:1024A000890607D46FF0200101612046BDE8704025
:1024B000FFF769BE70BD000010B586B0044609493B
:1024C000206888420CD14020019002200290002018
:1024D000039004900220059001A90348FEF7EAFE4C
:1024E00006B010BD0004004000080240704770B5FF
:1024F000044690F838000D4601280DD0012684F8D6
:102500003860022084F8390042B1042A18D0082A21
:102510002AD00C2A4DD139E0022070BD206800F08D
:102520009DFF2068816941F008018161206881690F
:1025300021F004018161206881692A69114311E059
:10254000206800F0B7FF2068816941F40061816173
:102550002068816921F480618161206881692A692C
:1025600041EA0221816124E0206800F0D5FF206863
:10257000C16941F00801C1612068C16921F004010D
:10258000C1612068C1692A69114311E0206800F027
:10259000F3FF2068C16941F40061C1612068C1692D
:1025A00021F48061C1612068C1692A6941EA022180
:1025B000C16184F83960002084F8380070BD10B51E
:1025C000040003D094F8390010B107E0012010BDD9
:1025D000002084F83800204600F00CF8022084F82F
:1025E0003900211D206800F0BBFE012084F839006D
:1025F000002010BD7047704710B5044600680122E6
:1026000000F00EFF08492068884202D0074988423E
:1026100003D1416C41F4004141642068016841F0FC
:1026200001010160002010BD0000014000040140D4
:1026300000680349884201D1FFF7B8B9704700002C
:102640000000014070472DE9F05F064600688846AB
:1026500000EB4814D4F808054FF0040B410708EBD1
:1026600088004FF0050A4FF0100706EBC00508D5AB
:10267000C4F808B5D4F80C0540F00200C4F80C0505
:1026800032E0D4F80805800601D520202AE0D4F8ED
:1026900008054FF00809000710D5D4F80C0540F0E4
:1026A0000200C4F80C0585F85DA0C4F80875C4F8EC
:1026B00008954146306801F082FF15E0D4F808051E
:1026C000400511D5D4F80C0540F00200C4F80C0503
:1026D0004146306801F073FFC4F8087585F85D90D5
:1026E0004FF48060C4F80805D4F8080580050ED5BD
:1026F000D4F80C0540F00200C4F80C05414604F57E
:10270000A164306801F05BFF4FF400708DE0D4F8F5
:1027100008054FF00001C0074FF0010236D03069C4
:1027200030B1A86CD4F81035C3F31203C01AE864B2
:1027300085F85D20A965C4F8082595F83F0020B10B
:10274000022802D003280ED019E0D4F80C0540F07E
:102750000200C4F80C05414604F5A164306801F09C
:102760002EFF27600BE0D4F8000540F00050C4F8BD
:10277000000585F85C2041463046FEF7D6FE15F888
:10278000500F80F001002870BDE8F09FD4F80805D4
:10279000800733D5D4F80C0520F00200C4F80C05EE
:1027A00095F85D000223012806D0052807D00628E9
:1027B00008D0082806D018E085F85C2015E085F8D8
:1027C0005CA012E0A86D421CAA65032803D9A96584
:1027D00085F85CB001E085F85C30D4F8000520F0A5
:1027E000804040F00040C4F80005C4F8083595F872
:1027F0005C2041463046FEF798FEC5E7D4F8080550
:10280000000614D5D4F80C0540F00200C4F80C05FD
:10281000A86D4146401CA865062085F85D0004F5BA
:10282000A164306801F0CBFE80202060ACE7D4F8D2
:102830000805C006A8D595F83F00032809D1D4F8AB
:102840000C0540F00200C4F80C054146306801F068
:10285000B6FE032085F85D00C4F8087595F83F00C2
:1028600008B1022890D1D4F8000520F0804040F053
:102870000040C4F8000587E72DE9F047026802EB45
:102880004114D4F808254FF0040C520709D5C4F8B8
:1028900008C5D4F80C0540F00200C4F80C05BDE8EA
:1028A000F087D4F8082501EB810392064FF0020669
:1028B00000EBC30514D52022C4F8082595F83D2067
:1028C000012AECD185F85DC0D4F80C2542F0020253
:1028D000C4F80C25006801F072FE85F85C60DEE744
:1028E000D4F808254FF0000352060FD585F85DC0D7
:1028F000AB65D4F80C2542F00202C4F80C25006840
:1029000004F5A16401F05BFE402010E0D4F8082536
:1029100092050ED5D4F80C2542F00202C4F80C251D
:10292000006804F5A16401F04AFE4FF400702060D5
:10293000B5E7D4F808254FF00108D20710D0AB65F1
:10294000D4F80C2542F00202C4F80C25006804F506
:10295000A16401F034FEC4F8008085F85D809EE734
:10296000D4F808254FF0080912074FF0050A0DD5D5
:10297000C4F80895D4F80C2542F00202C4F80C25DE
:10298000006801F01CFE85F85DA088E7D4F80825F2
:102990004FF01007D20610D5AB65D4F80C2542F0E5
:1029A0000202C4F80C25006804F5A16401F007FEDA
:1029B000032085F85D00276071E7D4F8082512062A
:1029C0000FD5D4F80C2542F00202C4F80C2500689B
:1029D00004F5A16401F0F3FD062085F85D00802078
:1029E000A5E7D4F80825520511D5D4F80C2542F0F6
:1029F0000202C4F80C25006804F5A16401F0DFFDB3
:102A000027604FF48060206085F85D9047E7D4F838
:102A1000082592078CD5D4F80C2522F00202C4F8C0
:102A20000C2595F85D20012A0AD0032A26D0042A15
:102A300013D0052A16D0062A17D0082A15D01FE071
:102A400085F85C8095F83F20022A19D195F851202D
:102A500082F0010285F8512012E085F85C6085F86B
:102A60003D300DE085F85CA00AE0AA6D571CAF650B
:102A7000032A03D9AB6585F85CC001E085F85C608A
:102A8000C4F8086595F85C20FEF74FFD07E77CB5B4
:102A900004680546D4F840040190D4F8400420F0BE
:102AA0002E000090019880070DD50198C00706D030
:102AB000A06920F00051A1612846FEF7DFFC0098D4
:102AC00040F002000090019800072CD5009840F0DB
:102AD00008000090019840071AD5A869022803D081
:102AE000E86803280CD00FE00198C0F341400228A9
:102AF000286803D0012101F0B1FF05E00221FAE7C7
:102B00004EF66020C4F804042846FEF7B7FC0AE03D
:102B1000D4F8400420F02E00C4F8400428688169ED
:102B200041F00051816101988006009802D540F083
:102B300020000090C4F840047CBD00002DE9F04165
:102B4000024600680646016AC1F3434301F00F07DD
:102B5000C1F30A14022B25D1002C23D007EB8701E7
:102B600002EBC105696C00291CD0224601F095FFDB
:102B7000686C20446864E86C2044E86406EB471005
:102B8000D0F81015084A11420CD0D0F8001521F0E9
:102B9000804141F00041C0F8001515F8500F80F059
:102BA00001002870BDE8F0810000F81F7FB51248D1
:102BB0001049002401604FF4803141600461846158
:102BC0000902046281600D49C0E90A140125C4604C
:102BD000C56145610463FEF7D0F900B1FEE70095D9
:102BE000CDE9015469460448FEF77EF8002800D07C
:102BF000FEE77FBD00200140DC0700200100000F40
:102C000020B1002201210248FEF72CBC0122F9E785
:102C1000000802402DE9F04F724887B00024016897
:102C200041F010010160016801F010010591016897
:102C300041F004010160016801F00401059101689F
:102C400041F080010160016801F080010591016897
:102C500041F001010160016801F001010591016885
:102C600041F002010160016801F002010591016873
:102C700041F0080101600068002200F008000590A2
:102C800008215948FEF7EEFBDFF860B1012211463A
:102C90005846FEF7E7FB4FF2900A0022514654488F
:102CA000FEF7E0FB082601250096CDE901546946B0
:102CB0004D480394FEF7FEFA0095CDE901546946AC
:102CC00058460394FEF7F6FA00960226CDE9016411
:102CD0000527CDE9034769465846FEF7EBFADFF8CA
:102CE00014810095CDE9018469464348FEF7E2FA74
:102CF0004FF20409CDE90094694640480294FEF77A
:102D0000D9FA4FF68050CDE900046946364802945E
:102D1000FEF7D0FA68020090CDE9016469463248B6
:102D2000CDE90345FEF7C6FAA8020090CDE901649B
:102D3000CDE9034769463148FEF7BCFA4FF47267A4
:102D4000CDE9007469462A480294FEF7B3FACDF83B
:102D500000A0CDE90154694625480394FEF7AAFA7C
:102D60004FF4A4500090CDE901640620CDE9034062
:102D700069465846FEF79EFA0096CDE901846946F9
:102D80001948FEF797FACDF80090CDE9015469464D
:102D90001A48FEF78FFA0097CDE9015469461448A6
:102DA000FEF788FA47F6F45700970396CDE90154E9
:102DB00069460D48FEF77EFA002239460A48FEF7BA
:102DC00051FBCDE90065CDE9024669460B48FEF7A7
:102DD00071FA002202210948FEF744FB07B0BDE862
:102DE000F08F00003038024000100240000802401E
:102DF000000C0240000012100000024000040240DB
:102E00000B4810B5094901600A49416000214FF49F
:102E100080428160C0E9031241618161C161016248
:102E2000FEF712FD002800D0FEE710BD0054004060
:102E300038080020A08601000E4810B50C4901603A
:102E40004FF48271416000218160C1604FF40072D3
:102E50000161C0E90512C1610162416281620A211A
:102E6000C162FFF703F9002800D0FEE710BD0000A3
:102E7000003001408C08002010B51C488EB01A4963
:102E8000016004210024C0E901140A21C0E90314EF
:102E9000FFF7A2F900B1FEE74FF48050079007A9B1
:102EA0001248FFF7DBF900B1FEE71048FFF787FB98
:102EB00000B1FEE70B940BA90C480C94FFF764F9E2
:102EC00000B1FEE7602000900120CDE9010400225E
:102ED000694606480494FFF70AFB00B1FEE7034881
:102EE000FFF7EAFA0EB010BD00040040E40800202D
:102EF00010B501220649074800F098FF0649054829
:102F000001F048FABDE81040024801F078BA00002C
:102F10001544000838010020A40000200907090E0C
:102F2000002806DA00F00F0000F1E02080F8141D00
:102F3000704700F1E02080F8001470470148FEF768
:102F400053BB0000080500202DED028BFFF7D0FFDA
:102F50009FED3A8ADFED3A8A3A4D3B4C42F21076C9
:102F6000022002F0FBFD37482830FEF7B5F835485F
:102F7000002731462830FEF75DF820B93148283067
:102F8000FDF75AFF07462F482830FEF703F92E4970
:102F900038462C31FDF770FE94ED0B0A002120EE2F
:102FA000080AC0EE280ABDEEE00A10EE100A6063BF
:102FB00005EB8102491C92ED010A092982ED000A04
:102FC000F6DB404300EE100AF7EE000A5FF0000067
:102FD000B8EEC00A85ED090A94ED030A70EE200AE6
:102FE0009FED1A0AC4ED030A05EB8001401C91ED28
:102FF000001A0A2831EE000AF6DBA0694FF4FA71D4
:10300000401C90FBF1F201FB1200A06110EE900A4F
:103010000F49884201DBF2EE040A80EE201A11EE1D
:10302000100AFDF7B4FA41EC100B01F0F1FD51EC80
:10303000100BFDF78DFA606392E7000000009643E5
:1030400000007F43B40700201000002000000000B3
:10305000000020411B4C0A25206CA0B9616B642242
:1030600091FBF2F292FBF5F305FB1322226591FB33
:10307000F5F292FBF5F305FB1322626591FBF5F285
:1030800005FB1211A165401C90FBF5F105FB110039
:1030900020640221206D02F0D1FA062002F05EFDCC
:1030A0000321606D02F0CAFA062002F057FD0421E8
:1030B000A06D02F0C3FA062002F050FD03F05EF9A5
:1030C000CAE70000100000200126454C0025C8205A
:1030D00002F044FD6068002807DD6068A168401CBC
:1030E00090FBF1F201FB1200606002F047FCE0612E
:1030F00014281FD0606A012835D1A06A022802DA9C
:10310000401CA0622FE06562206A001F06280CD2D6
:103110002570002002F028FA606C02F0CBFDA06C54
:1031200002F0C8FD2FA001F063FD2562A562E069F1
:10313000142818D1A562206A401C2062207818B992
:103140000121002003F036F9606A01280AD1206AC3
:103150000A2807DD02202070002002F005FA26A0D0
:1031600001F046FD6662207868B1012832D002285D
:10317000ADD1256103F002F9606C02F0B5FDA06CE1
:1031800002F0B2FDA3E7E069142808D2002103F0A1
:1031900011F9206121691DA001F02AFD97E715288A
:1031A00095D121691DA0216301F022FD206902F063
:1031B000DBF994ED050A10EE100AFDF7E8F941EC91
:1031C000100B1CA053EC102B01F012FD2670A56112
:1031D00025617CE71BA0616B01F00AFD257076E795
:1031E00010000020476F20746F2073746174652095
:1031F000576169740A000000476F20746F20737470
:1032000061746520536C6565700A0000766F6C749C
:10321000616765203A202564200A0000766F6C748F
:1032200061676520656E74657265643A2025642067
:103230000A000000647574792D6379636C653A2522
:1032400066200A004164635F766F6C746167652075
:1032500072656164203A202564200A0002F008BDEE
:1032600030B5254893B00025016841F080510160D8
:10327000006800F0805011902048016841F48041BE
:1032800001600068022400F4804011900120009049
:10329000000401908001CDE90640082008904FF419
:1032A000A870CDE9090407200B906846FEF750FD91
:1032B00000B1FEE70CA90F2081E831004FF4A050C7
:1032C0000F904FF48050109005210CA8FEF732FCAF
:1032D00000B1FEE7FEF7E6FC4FF47A71B0FBF1F0C7
:1032E000FEF73CFF0420FEF72DFF00220F21501EA9
:1032F000FEF7EEFB13B030BD4038024000700040D6
:103300001048016841F4700101600F48016841F004
:10331000010101600C4A00210832116002680B4B68
:103320001A400260031D0A4A1A60026822F48022D1
:10333000026005480C300160024958068039086077
:103340007047000088ED00E000380240FFFFF6FE05
:10335000103000240148FEF7FBBF000020090020C8
:10336000F0B50268234B244D244E254F254C4FF0D9
:10337000804C984209D0604507D0A84205D0B042A1
:1033800003D0B84201D0A04204D122F0700E4A68A6
:1033900042EA0E0298421BD0604519D0A84217D0CD
:1033A000B04215D0B84213D0A04211D0164DA84259
:1033B0000ED0164DA8420BD0154DA84208D0154D81
:1033C000A84205D0144DA84202D0144DA84203D102
:1033D00022F44075CA682A4302608A68C2620A6899
:1033E0008262984201D0A04201D1096901630121A2
:1033F0004161F0BD000001400004004000080040B1
:10340000000C004000040140004001400044014025
:103410000048014000180040001C0040002000400F
:1034200010B50123046A8B409C430462036A8A40FE
:103430001343036210BD10B5846842EA032224F4EA
:103440007F440A432243826010BD826822F07002EA
:103450000A4342F0070181607047000030B5026AFC
:1034600022F001020262026A436884690D6824F056
:103470007304254322F002048A6822430B4CA042C5
:1034800002D00B4CA0420BD122F00804CA6823F4EE
:10349000407322434C6922F004021C438B6923438E
:1034A0004360856149684163026230BD00000140AC
:1034B0000004014030B5026A22F010020262026A82
:1034C000436884690D6824F4E64444EA05248D6861
:1034D00022F0200242EA05120D4DA84202D00D4D05
:1034E000A8420ED1CD6822F0800242EA05124D6951
:1034F00023F4406343EA85038D6922F0400243EAE6
:1035000085034360846149688163026230BD0000C5
:10351000000001400004014030B5026A22F48072CC
:103520000262036A4268C46923F4007324F07305DD
:103530000C682C438D6843EA05230D4DA84202D048
:103540000C4DA8420ED1CD6823F4006343EA052355
:103550004D6922F4405242EA05128D6923F48063DA
:1035600042EA05124260C4614968C163036230BD2A
:10357000000001400004014030B5026A22F480528C
:103580000262046A4268C3690D6823F4E64343EAB1
:1035900005238D6824F4005444EA0534084DA842FC
:1035A00002D0084DA84204D14D6922F4804242EA7B
:1035B00085124260C36149680164046230BD000045
:1035C000000001400004014010B5036A046A24F0C1
:1035D00001040462846924F0F00444EA021423F034
:1035E0000A020A438461026210BD10B5036A23F027
:1035F000100303628369046A23F4704343EA0232CE
:1036000024F0A00343EA01118261016210BD10B5EC
:1036100000224FF6FF7300EB8204B4F87C432404CD
:1036200009D49A4205D000EB820041F40041C0F871
:103630007C13D0B210BD521CD2B20B2AEBD31A4667
:10364000F7E77FB51C46012501AE0023009586E80B
:103650000E0002232A46214600F035FD04B000206A
:1036600070BD7FB51D4690F81D33089C03B1002442
:103670000123CDE90031CDE90224022300222946AD
:1036800000F021FD04B0002070BD70B50446D0F8F4
:103690007403C16920464031FDF71AFB050004D1CF
:1036A000D4F8C423022120469047284670BD70B547
:1036B0000546D0F874030026C469217839B128463C
:1036C00000F01FF92178284600F0AAF92670217B26
:1036D00039B1284600F015F9217B284600F0A0F901
:1036E0002673617B39B1284600F00BF9617B2846CF
:1036F00000F096F96673D5F87403C06920B102F042
:1037000015F9D5F87403C661002070BDFEB5022717
:10371000054601233A46394600F060F90646FF287F
:103720007ED00146284600F043FE502002F0E0F92A
:10373000D5F874130446C86106EB860000EBC6009A
:1037400005EB400090F848130A0603D56170B0F805
:103750004A03608161782846FFF759FF20700146CF
:1037600095F81D03638903228DE80D0095F81C333D
:103770006278284600F0BFFC21780022284600F03D
:1037800072FC00231A460A21284600F027F9FF2878
:1037900054D000EB800101EBC00005EB400090F835
:1037A00048130A0604D5E173B0F84A13618303E0B5
:1037B000A173B0F84A13218390F850130A0604D578
:1037C000E173B0F85203608303E0A173B0F85203D1
:1037D0002083A17B2846FFF71AFF6073E17B284610
:1037E000FFF715FF2073208B95F81D13022600911B
:1037F000CDE9016095F81C33A27B617B284600F07F
:103800007AFC608B95F81D130091CDE9016095F865
:103810001C33E27B217B284600F06DFC002000E099
:103820000CE084F84C000246617B284600F01BFC4B
:10383000217B0022284600F016FC00273846FEBDFA
:1038400070472DE9F0410546D0F8740301270026A2
:10385000C4694FF0040894F84C0005284AD2DFE808
:1038600000F00305163B4200002743E02122A16C33
:103870002A7420226A746E82AE8207222846EA8267
:1038800000F062F848B9022084F84C0032E004F1FC
:1038900040012846FDF71CFA20B101282AD084F8FF
:1038A0004C8027E084F84C60A06C94F844100279B6
:1038B00091421FD194F84610827991421AD194F81E
:1038C00045104279914215D1216C0068814211D195
:1038D0002846FFF7B5FF0DE02846FDF768F92846B2
:1038E000FDF728F906E00021284600F00FF808B996
:1038F00084F84C603846BDE8F0817047002070477E
:10390000704710B500F0C6FA002010BD8278012A79
:1039100007D1022202740122427400224282818273
:10392000C2820022114600F00FB87FB51C46012567
:1039300001AE0023009586E80E002A46214600F0DD
:10394000C2FB04B0002070BD70B50446012580782C
:103950002E46012802D0022819D10BE0A160A281D5
:1039600026760220A07000220321D4F8C80302F0BA
:1039700051F90CE0204600F007F9050002D0022DB5
:1039800004D004E0A6700020207600E0A67028464F
:1039900070BD7FB51D4690F81D33089C03B100240F
:1039A0000123CDE90031CDE9022400231A4629463E
:1039B00000F089FB04B0002070BD1FB50023144641
:1039C000CDE900310822CDE902231A46214600F054
:1039D0007AFB04B0002010BDFDF75ABC70B500247E
:1039E00000F2323004EB840505EBC40500EB45051D
:1039F000EE7B0A358E4201D0FF2909D1AE7996427D
:103A000001D0FF2A04D1ED799D4207D0FF2B05D0CC
:103A1000641C64B2022CE5DBFF2070BDE0B270BD17
:103A20000B2907D200EB8100B0F87C13C1F30E0123
:103A3000C0F87C130020704730B48578029C012DBB
:103A40000FD141F0800101740621417403214282AB
:103A5000B1EB122F02D140F2094100E00021818236
:103A6000C482224630BC1946FFF76EBF0A8803782D
:103A70001A440A80017808447047F8B50E4600F1F0
:103A80001C05009104462B464FF400720021FFF7FD
:103A9000D3FF070005D13246294604F2323000F048
:103AA00034FB3846F8BD38B50D460091044600F5A4
:103AB0008E734FF480720021FFF7BEFF01003DD1ED
:103AC00004F5487094F81C21027094F81D2142708E
:103AD00094F81E2194F81F31082D02EB0322428036
:103AE00094F82021027194F82121427194F8222146
:103AF000827194F82321C27120D994F8242194F87A
:103B0000253102EB0322028194F8262194F8273113
:103B100002EB0322428194F8282194F8293102EB28
:103B20000322828194F82A21827394F82B21C27394
:103B300094F82C21027494F82D214274084638BD63
:103B4000F8B51C461646009341F4407200F58E739A
:103B50001D460021FFF770FF002814D16978032962
:103B600011D129788A1EA24200DC14460021A2B29B
:103B7000AD1C04E06B5C891C06F8013B89B29142E4
:103B8000F8D300213170F8BD2DE9F84F0446012526
:103B9000007E0B262F464FF009084FF007094FF023
:103BA000050B4FF00D0A0C2837D2DFE800F0B00605
:103BB0000E2B37414D606B7A879C627904F11001BE
:103BC0002046FFF7FAFE022026E06179204600F049
:103BD000D1F901287AD1207CE18A00F0800039B146
:103BE000802802D10320207676E084F818B073E0B4
:103BF000802802D184F818806EE084F818906BE079
:103C0000267669E0D4F8B803E0812379A2892046BA
:103C1000A168FFF78AFE0420207678E0217920460B
:103C200000F0A8F90128E5D005284FD1032553E07D
:103C300000976379A2892046A168FFF7AAFED4F80D
:103C4000B803E0810620E7E76179204600F092F9A9
:103C50000128D2D0052804D00228C6D0042803D0D9
:103C600055E00C202076E1E72676022534E000229C
:103C7000237911462046FFF758FED4F8B803E081B7
:103C80000820C9E72179204600F074F9012804D002
:103C90000428B5D00528C9D039E084F818A000253B
:103CA0001AE000970022637911462046FFF771FE63
:103CB000D4F8B803E0810A20AEE707E06179204636
:103CC00000F058F9012804D0022893D0042897D096
:103CD0001DE0002584F818A000220321D4F8C803B1
:103CE00001F098FF13E0607E401CC0B260760228AD
:103CF00005D8204600F0D7F92776A77007E0D4F85A
:103D0000C4230621204690470020607602252846DD
:103D1000BDE8F88FFEB504460126407800253746F9
:103D200004F58E7208287ED2DFE800F004161E45E6
:103D30004C55606C08212046FFF7B5FE002872D173
:103D400094F82703A071677094F81D130091CDE9D2
:103D5000015094F81C331BE012212046FFF7A3FE0C
:103D6000002860D1022034E00121204600F02BFB26
:103D7000002858D10220FFF72FFE84F81C7303207F
:103D80006070A07994F81D13CDE900153B460290B0
:103D900021798022204600F0AEF9A07994F81D1315
:103DA0000091CDE9015094F81C336179002220463E
:103DB00000F0A1F937E009212046FFF75EFE00BBC5
:103DC000042006E0B4F834132046FFF756FEC0B9CD
:103DD0000520607027E094F82E13062521B1FF23FB
:103DE0002046FFF7ADFE60B9657016E094F82F131A
:103DF00007250029F8D0FF232046FFF7A1FE00B9D0
:103E0000657010E094F8301331B1FF232046FFF7BE
:103E100097FE40B9002606E0002600220521D4F8CE
:103E2000C80301F0F7FE3046FEBD000030B587B094
:103E30000D46040029D084F8BC230020C4F8740384
:103E4000C4F878032046FCF7F3FE0DB1C4F8C45360
:103E50000F49D1E90001CDE90501002105A801F0D4
:103E600089FE0B49C4F8C803142208316846FCF7E0
:103E700036FA2146684601F005FFC4F8CC03204617
:103E800000F08CF8002007B030BD0220FBE70000F6
:103E9000C475000810B50024D0F8C003FDF709FB75
:103EA00030B1012801D0022801D0022400E0012411
:103EB000204610BD10B50446007818B120780128BE
:103EC0000AD00BE0012084F81E03D4F8C4232AB1E1
:103ED00004212046904701E00220207000220121A9
:103EE000D4F8C80301F096FE002010BD10B50446BA
:103EF00000F0D9F821792046FFF792FD617920463C
:103F0000FFF78EFD002084F81E03D4F8C42312B1FD
:103F1000052120469047204600F0B5F80320207088
:103F200000220121D4F8C80301F074FE002010BD66
:103F300010B590F8BC03012802D10846FEF760FED8
:103F4000C820FDF7A5F9002010BDD0F8C003FDF78B
:103F5000AABA10B50124D0F8C003FDF79AFA20B12F
:103F6000012805D0022803D101E0002400E002244A
:103F7000204610BDD0F8C003FDF78EBAD0F8B813B4
:103F8000491CC0F8B81301780A2905D1D0F8741378
:103F9000002901D0896908477047000010B5044620
:103FA00090F8BC0301281ED110484FF0A041002218
:103FB000C0F89442C4F8C003016008218160032165
:103FC000C0E903120221C0E90612FDF7A4FB18B1F3
:103FD000E22107A000F00AFE0448FDF757FA014667
:103FE000204600F03DF8002010BD0000080500202C
:103FF0002E2E2F5372632F757362685F636F6E6628
:104000002E63000010B5D0F8C8030022022101F091
:1040100001FE002010BDFEB508AC94E8E0008DE87C
:10402000E0000024D0F8C003FDF755FA30B10128B4
:1040300001D0022801D0022400E001242046FEBD68
:1040400010B50024D0F8C003FDF7CEFB30B1012835
:1040500001D0022801D0022400E00124204610BD36
:10406000C0F8B8137047D0F8C00301EB810100EB32
:10407000C10090F83B1011B180F8502001E080F8A9
:1040800051200020704710B50024D0F8C003FDF780
:10409000B2FB30B1012801D0022801D0022400E097
:1040A0000124204610BD10B50024D0F8C003FDF750
:1040B000B8FB30B1012801D0022801D0022400E071
:1040C0000124204610BD2DE9FF410AAC94E8E01020
:1040D0008DE8E0100024D0F8C003FDF72AFA30B1D3
:1040E000012801D0022801D0022400E0012404B0FC
:1040F0002046BDE8F081FEB508AF97E870008DE876
:104100007000FFF788FF0020FEBD2DE9F84105464D
:104110000B782B704B786B708B78CC78084603EB60
:1041200004236B800B792B714B796B718B79AB719D
:10413000CB79EB710027017A2972092A57D9092115
:10414000ADF800104EE06946FFF790FC4178042975
:1041500046D107EB870101EBC70105EB4108017868
:1041600088F80A10417888F80B10817888F80C10CC
:10417000C17888F80D10017988F80E10417988F817
:104180000F10817988F81010C17908F10A0488F8B5
:104190001110017A2172002618E06946FFF766FCCB
:1041A0004178052912D108EBC60102780A754278D8
:1041B0004A7582788A75C278CA7502794379761C05
:1041C00002EB03220A8382798A7676B22179B142A0
:1041D00004DD6988BDF800209142DED87F1C7FB2E3
:1041E000022F04DA6A88BDF800108A42ABD8BDE815
:1041F000F881FEB5044602208DF8000021780020E9
:1042000008270C2605460B2955D2DFE801F006B039
:1042100017A5B0468E555D659E0094F81E030028D4
:1042200049D001202070C820FFF7D6FB2046FFF7B9
:1042300007FF00220121D4F8C80373E06420FFF7D0
:10424000CBFB2046FFF785FE84F81D030520207078
:1042500000212046FFF7DBF9607180212046FFF73F
:10426000D6F920710146A07994F81D230092CDE97A
:10427000015094F81C3380222046FFF73CFFA079C0
:1042800094F81D130091CDE9015094F81C33617925
:1042900000222046FFF72FFFCBE72046FFF73AFD2D
:1042A000002864D184F81F5394F83103012801D009
:1042B000072046E027705AE0D4F8C423A2B30121B6
:1042C00020469047277029E094F83713204600F0E5
:1042D00088F848BB092034E0D4F87813F1B1C4F869
:1042E000745394F8412304EB8001D1F870130B79D7
:1042F000934201D1C4F87413401C10F0FF00F2D0B7
:10430000D4F87403F8B1816820468847D8B90620EC
:104310002070D4F8C42303212046904700220521B1
:10432000D4F8C80301F076FC21E0D4F8740350B14E
:104330000169204688478DF800009DF80000B0B95B
:104340000A20207013E02670E8E7D4F8740370B1F7
:104350004169204688470AE02046FCF769FCD4F80A
:10436000740320B1C16820468847C4F87453002004
:10437000FEBD0EB504464FF0FF352A466846D4F818
:10438000C81301F0FBFB00981028F6D12046FFF778
:1043900030FFF2E7002211B1D0F8783313B10222D6
:1043A000104670470123C0F87833C0F87013F7E760
:1043B0000246002092F836338B4202D982F81F134E
:1043C0007047022070478278012A06D100220274C9
:1043D0000523437441828282C28200221146FFF784
:1043E000B3BA8278012A06D10022027409234374E9
:1043F00041828282C28200221146FFF7A5BA10B51F
:104400000446FFF740FE01212046FFF791FD002002
:1044100010BD000001290AD00548022906D0042950
:1044200003D0052903D1032100E001210170704769
:104430000C00002070B50446049D06990D980129D2
:104440000CD0E06840F04000E060204600F028F822
:104450004FF48030A063012D16D01DE0A16B21F434
:104460008031A163E1680D4A1140E160E16821F407
:104470004011E160012803D1E06840F48010E06061
:10448000204600F00DF8E6E7A06840F00600A060C6
:10449000A06840F02000A060002070BDBFFFBDFFFD
:1044A00001220C4902E0521C8A420BD80369002BFE
:1044B000F9DA026942F001020261012204E0521CB1
:1044C0008A4201D9032070470369DB07F7D1002036
:1044D00070470000400D0300816821F001018160F8
:1044E0000020704730B50246012400230C4800EA42
:1044F000C44040F0004502F5A06000EB41100561AA
:1045000002F5A06000EB4110036823F0804343F004
:10451000004302F5A06000EB41100360002030BDB5
:104520000000F81F08B5D0F8402422F02E020092B7
:10453000D20405D4012909D1009941F4805103E046
:1045400021B9009921F48051C0F84014002008BD21
:10455000816841F001018160002070470021102234
:104560000261054A491C914201D903207047036941
:10457000DB06F7D400207047400D03000022202303
:1045800043EA811101610549521C8A4201D9032085
:10459000704703699B06F7D400207047400D030065
:1045A000D0F8080480B2704708B5D0F840040090F5
:1045B000C0F3414008BD406900F00100704710B5EC
:1045C0000246002302F5A06000EB41100068C0F332
:1045D000814040B102F5A06000EB41100068C0F3DB
:1045E0008140022846D102F5A06000EB411000682E
:1045F00040F0804402F5A06000EB41100460D06AF6
:1046000000F47F0048BB02F5A06000EB4110006899
:1046100020F0004402F5A06000EB4110046002F5B8
:10462000A06000EB4110006840F0004402F5A0607B
:1046300000EB4110046000BF581C0346B0F57A7FC0
:1046400000D909E002F5A06000EB4110006800F01D
:104650000040B0F1004FEFD053E002F5A06000EB56
:104660004110006840F0004402F5A06000EB4110EA
:10467000046046E002F5A06000EB4110006840F0E5
:10468000804402F5A06000EB411004604FF48260AA
:10469000805880B248BB02F5A06000EB4110006872
:1046A00020F0004402F5A06000EB4110046002F528
:1046B000A06000EB4110006840F0004402F5A060EB
:1046C00000EB4110046000BF581C0346B0F57A7F30
:1046D00000D909E002F5A06000EB4110006800F08D
:1046E0000040B0F1004FEFD00BE002F5A06000EB0E
:1046F0004110006840F0004402F5A06000EB41105A
:104700000460002010BD0000F0B5DDE906564FF052
:10471000FF3C00EB4114059FC4F808C535B1012DDD
:1047200021D0022D02D0032D2AD114E040F29D4C5D
:10473000C4F80CC55FEA026C05D500BFD4F80CC5FF
:104740004CF4807C1AE0B0F1A04F19D0D4F80CC51D
:104750004CF0600C12E040F29D6CC4F80CC55FEAAE
:10476000026CEBD40CE040F2252CC4F80CC55FEAD7
:10477000026C05D5D4F80CC54CF4C07CC4F80CC54B
:10478000D0F818C44FF0010E0EFA01FE4CEA0E0CE0
:10479000C0F818C4816941F0007181614FF0FE508A
:1047A00000EA83504FF4F04101EAC22108434FF47C
:1047B000004101EA02210843022F10D05FF00001FE
:1047C00040EA41404FF4402101EA85410843C6F3E5
:1047D0000A010843C4F80005032D02D007E00121B7
:1047E000EEE7D4F8000540F00050C4F800050020C2
:1047F000F0BD014640F21440405880B270470000BE
:104800002DE9F84F05460C4616464FF0000BDA46E8
:1048100000274FF48078B946B5F1A04F1CD020791D
:10482000D0B94EB96079012806D161782846FFF7E2
:1048300059FE0020BDE8F88F012E0DD1607805F5F6
:10484000A06101EB4010C06820F06002607801EBCD
:104850004010C26000206071206968B12189206920
:104860000844401EB0FBF1F087B2474505DD4746DE
:1048700020897843206100E00127E07810B1208989
:10488000784320612069C0F312003E4901EAC74124
:104890000843A17A4FF0C04202EA417108436178AF
:1048A00005F5A06202EB4111086136B1607805F5AB
:1048B000A06101EB4010E26842614FF48160405911
:1048C00000F0010080F0010B607805F5A06101EBBC
:1048D0004010006820F00052607801EB4010026048
:1048E000607801EB4010006840EA4B72607801EBA1
:1048F00040100260607801EB4010D0F8009029F081
:10490000804949F00049607801EB4010C0F8009000
:10491000AEBBE07898BB206988B3E07930B101285C
:1049200013D0022803D003281ED10DE000BF206958
:10493000C01CC0F38F0AE86A80B2504503D2A86950
:1049400040F02000A86110E000BF2069C01CC0F347
:104950008F0A4FF48260405980B2504503D2A86953
:1049600040F08060A86100E000BF00BF0020009020
:10497000208A83B262782846E16800F023F900209B
:1049800058E700000000F81F2DE9F04717460446DD
:104990000025DDF82090C0F8005E806B20F48020B8
:1049A000A063A06B20F40020A063A06B40F4001073
:1049B000A0634FF0A048032B06D1444504D0D4F89F
:1049C000000440F0040003E0D4F8000420F00400E8
:1049D000C4F8000410212046FFF7D0FD2046FFF761
:1049E000BDFD0020461E06E004EB4011C1F808653D
:1049F000C1F80C55401C8742F6D801212046FFF72C
:104A000091FDC820FCF744FCA5616661444505D1D1
:104A1000802060620C48A0620C4805E04FF40070F2
:104A200060620B48A0620B48C4F80001B9F1000FA6
:104A300003D1A06940F01000A061A06906490843B5
:104A4000A0610020BDE8F08780006000E000400029
:104A5000000200010003E000080020A3D0F80024B9
:104A600022F00302C0F80024D0F8002401F0030370
:104A70001A43C0F80024012902D0022903D006E01D
:104A80004BF6803101E041F27071C0F8041400204F
:104A90007047416980690840704710B5034600209F
:104AA000D21C920803F5805303E01C6841F8044BC4
:104AB000401C9042F9D3084610BD38B50446D0F8E2
:104AC000400420F02E00009040F48070C4F84004B0
:104AD0000A2004F58864FCF7DBFB009820F4807062
:104AE0002060002038BD10B5C26822F0C042C2600C
:104AF000012901D021B107E0C16841F0005102E075
:104B0000C16841F08041C1603220FCF7C1FB002048
:104B100010BDF0B505460027A86820F00100A86088
:104B200010212846FFF72AFD2846FFF717FD00242D
:104B300011E005F5A06000EB4410066846F08046E1
:104B400026F0004626F4004605F5A06000EB441070
:104B50000660601CC4B20F2CEBDD002423E005F5D9
:104B6000A06000EB4410066846F0804646F0004620
:104B700026F4004605F5A06000EB4410066000BF77
:104B8000781C0746B0F57A7F00D909E005F5A060EA
:104B900000EB4410006800F00040B0F1004FEFD08F
:104BA00000BF601CC4B20F2CD9DD4FF0FF3140F2C2
:104BB0001440415108466861A86840F00100A860AF
:104BC0000020F0BD30B50024039D6DB9DB1C9B08AF
:104BD00000EB023000F5805004E000BF51F8042BD8
:104BE0000260641C9C42F9D3002030BDFEE7000047
:104BF0000FB4054B10B503A9044A029800F01CF944
:104C000010BC5DF814FB00000559000828010020C5
:104C100000B52DED048BB0EE409AF0EE609A83B0B3
:104C200051EC190BFBF72FFE41EC180B18EE100A94
:104C300018EE901A8DED008B002818BF0120084354
:104C400020F00040C0F17F6000F1E040C00F14D0C0
:104C500019EE101A19EE900A8DED009B002918BF6D
:104C60000121084320F00040C0F17F6000F1E040E6
:104C7000C00F04BF012000F017F8B0EE480A03B0DF
:104C8000F0EE680ABDEC048B00BD02E008C8121FFC
:104C900008C1002AFAD170477047002001E001C125
:104CA000121F002AFBD170470149086070470000BD
:104CB000340100202DE9FF5F82B00021DDE90430DE
:104CC000020DDDF840B0034318D044F61050A2F2B4
:104CD000FF3242431514119801281FD0A5EB0B0099
:104CE000401C5FEA000A4FF000064E4FDFF8389193
:104CF000B046504615D5CAF1000413E011980124BE
:104D00004AA3012801D16FEA0B010298119AC0E968
:104D10000031C0E9024206B0BDE8F09FCBF10000CF
:104D2000DFE704460021404A491842EB0450CDE930
:104D3000001012E0E00707D032463B4640464946A5
:104D4000FBF72FFD8046894632463B461046194602
:104D5000FBF727FD06460F466410002CEAD1DDE97B
:104D60000401DDE90023BAF1000F06DAFBF719FDB3
:104D700042464B46FBF715FD05E0FBF769FB424653
:104D80004B46FBF765FB04460E460022284BFBF71B
:104D9000E3FD03D84FF0FF30014607E00022254B2A
:104DA00020463146FBF7ADFAFBF7BEFD102409E0C3
:104DB000002C0ADB0A220023FBF760FA039B303247
:104DC0001A55641E50EA0102F2D1641C039AC4F120
:104DD00011031444119A012A03D0012208430DD172
:104DE0000AE0084304D000204FF0110B119072E745
:104DF000A3EB0B056D1E0DE05B4504DD4FF00002DB
:104E000005F1010504E003DA4FF00002A5F1010508
:104E1000002AECD002981199C0E90231C0E900459E
:104E200079E70000000014400000F03F300000006F
:104E30000000F0430000E03F2DE9FF4F95B09B4696
:104E40008946064600250FE2252877D1002427460B
:104E5000F84A0121059400E0044316F8013F203B85
:104E600001FA03F01042F7D130782A2811D06FF000
:104E70002F033078A0F13002092A16D8059A44F0A1
:104E8000020402EB820203EB42021044761C0590FE
:104E9000EFE759F8042B0592002A03DA504244F454
:104EA0000054059044F00204761C30782E2816D168
:104EB00016F8010F44F004042A280DD06FF02F02D9
:104EC0003078A0F13003092B09D807EB870302EBF8
:104ED0004303C718761CF3E759F8047B761C307837
:104EE0006C280FD006DC4C2817D068280DD06A2813
:104EF00014D104E0742810D07A280FD10DE044F4C6
:104F000000140AE044F4801401E044F44014727880
:104F1000824202D104F58014761C761C3078662813
:104F20000BD013DC582877D009DC002875D0452831
:104F3000F6D04628F4D047281AD19DE118E063281E
:104F400035D0642879D0652812D195E1702873D0C6
:104F500008DC6728F1D069286FD06E280DD06F2843
:104F600006D1B5E073282CD0752875D0782874D078
:104F70005A46179990476D1C75E1C4F302500228F8
:104F800009D003280DD0D9F8001004280DD00D60E9
:104F900009F1040967E1D9F80010EA17C1E90052E4
:104FA000F6E7D9F800100D80F2E70D70F0E719F878
:104FB000041B8DF8001000208DF80100EA46012046
:104FC00003E059F804AB4FF0FF3061074FF00001E8
:104FD00002D40DE008F101018846B9420FDA80459C
:104FE000F8DB1AF808100029F4D108E008F10101F3
:104FF00088468142FADB1AF808100029F6D1059894
:105000005B46A0EB080721463846179A00F094FA51
:10501000284400EB080507E04DE029E10DE01AF80F
:10502000010B5A4617999047B8F10108F7D25B4631
:1050300021463846179A13E142E00A220092C4F34F
:1050400002524FF0000A022A08D059F804CB032A72
:105050004FEAEC710AD00DE029E02AE009F10701DE
:1050600021F00702F2E802C1914609E00FFA8CFC38
:105070004FEAEC71042A03D14FFA8CFC4FEAEC7131
:10508000002907DA0A460021DCF1000C61EB02017D
:105090002D2202E0220504D52B228DF804200122C6
:1050A00003E0E20701D02022F7E7904659E00A2109
:1050B00002E010220DE010214FF0000A00910BE0F9
:1050C00010224FF0000A44F004040827009203E085
:1050D00008224FF0000A0092C4F30252022A05D0BF
:1050E00059F804CB0021032A08D009E009F107018F
:1050F00021F00702F2E802C1914605E01FFA8CFC9C
:10510000042A01D10CF0FF0C4FF00008220728D52B
:10511000702806D0009B83F0100353EA0A0305D0E1
:105120000EE040228DF80420012208E05CEA010232
:1051300006D030228DF804208DF80500022290461A
:10514000009B83F0080353EA0A030AD15CEA0102D8
:1051500001D1620705D530228DF804204FF00108F7
:105160007F1E582804D034A003900EA802900DE0B2
:1051700036A0F9E753466046009AFBF77FF884466D
:105180000398825C0298401E029002705CEA010063
:10519000F0D1029806A9081A00F1200A600702D58A
:1051A00024F4803400E00127574502DDA7EB0A0014
:1051B00000E0002000EB0A01009005984144401AED
:1051C0000590E00306D45B462146179A059800F047
:1051D000B3F90544002706E001A85A46C05D1799B7
:1051E00090476D1C7F1C4745F6DBE0030CD55B4602
:1051F0002146179A059800F09FF9054404E03020F5
:105200005A46179990476D1C0099481E0090002936
:10521000F5DC08E0029802995A460078491C029190
:10522000179990476D1CBAF10001AAF1010AF1DC4F
:1052300065E100000928010030313233343536375A
:1052400038396162636465660000000030313233D2
:105250003435363738394142434445460000000072
:1052600000F058F90544761C307800287FF4ECAD46
:1052700019B02846BDE8F08F620700D4062709F16F
:10528000070222F0070CFCE80223E14603F0004885
:105290005FEA080C02D00FF2702C0DE05FEA045CAC
:1052A00002D50FF2682C07E05FEAC47C02D00FF24F
:1052B000602C01E0AFF2700C4FF0FF3823F0004398
:1052C000CDF850C065280CD006DC452809D046280A
:1052D0001DD047283DD13DE0662818D067287ED1F3
:1052E00038E00021112F01DB112000E0781CCDE90E
:1052F000000106A90EA8FFF7DDFCDDE90F010E9AFB
:1053000003910021009207F1010A04914DE04FF052
:1053100000400097CDE9011006A90EA8FFF7CAFCCE
:10532000DDE90F0203920E9B11990022DDF80CA01B
:105330000093049211B9791C00EB010AB7EB0A0043
:1053400004D4C0F1FF3007F1010A0490AAEB070072
:10535000019044E0012F00DA01270021112F01DD27
:10536000112000E03846CDE9000106A90EA8FFF79C
:10537000A1FCDDE90F010E9A039100210491009236
:10538000BA4621070CD40399514500DA8A46BAF18E
:10539000010F05DD009AAAF10101515C302908D006
:1053A000B84202DA10F1040F06DA0121CDE901104A
:1053B00015E0AAF10101E9E7002805DC04990144A0
:1053C0000491AAEB000102E0411C514500DD8A4630
:1053D0000499401A401C01904FF0004002902007B1
:1053E00004D40198504501DBCDF8048000208DF8ED
:1053F0004F0002980DF14F07B0F1004F25D02B2040
:105400000E9002984FF0020800280CDA40420290F9
:105410002D200E9007E00A210298FBF7E7F83031C3
:10542000029007F8011DB8F10001A8F10108F2DCB3
:1054300002980028EFD1791E0E980870307800F09D
:10544000200040F0450007F8020D12A8C01B00F133
:1054500007081498007800B1012000EB0A010198B8
:1054600001EBE07105984144401A401E0590E003AD
:1054700006D45B462146179A059800F05DF805446E
:105480001498007818B15A46179990476D1CE0039C
:1054900024D55B462146179A059800F04DF805443F
:1054A0001CE00498002807DBDDE90301884203DDE6
:1054B0000098405C179901E0179930205A469047B0
:1054C000049805F10105401C04900198401E0190CC
:1054D00004D12E205A46179990476D1CBAF100014D
:1054E000AAF1010ADDDC05E017F8010B5A4617990D
:1054F00090476D1CB8F10001A8F10108F4DC5B468F
:105500002146179A0598ABE62D0000002B000000FD
:10551000200000002DE9F041044600251E461746F4
:10552000880404D405E039462020B0476D1C641E71
:10553000F9D52846BDE8F0812DE9F0410446002563
:105540001E469046C80301D5302700E02027880476
:1055500004D505E041463846B0476D1C641EF9D5B8
:105560002846BDE8F081000030B52E4C05462DEDF3
:10557000048B87B0A06BFBF70AF841EC180BE06BCB
:10558000FBF705F841EC190B2846FAF7D0FF9FED21
:10559000261B53EC112BFAF75BFF53EC192BFAF790
:1055A00051FF53EC182BFAF753FFFBF703F800EE0B
:1055B000100A84ED050A94ED050AB5EEC00AF1EE75
:1055C00010FA02D29FED1A0A08E094ED050A10EED7
:1055D000100AB0F17E5F03DDB7EE000A84ED050A24
:1055E00094ED050ADFED130A6020694620EE200ADB
:1055F000BCEEC00A8DED010A009000200290024628
:1056000004900D48FCF773FF00B1FEE70A48FCF771
:1056100053FF00210848FCF7EFFF07B0BDEC048BF7
:1056200030BD0000100000200000000000005940C4
:105630000000000000002843E40800202DE9F05F8E
:105640000D46AE4FAE4C411C4FF480764FF480684F
:105650004FF400694FF4805A4FF4005B14D00128D6
:105660001ED0022833D0032847D004287DD0052837
:105670007CD006287BD007287AD0082879D0092842
:1056800078D0002877D05BE0002280212046FBF70D
:10569000E9FE002231462046FBF7E4FE002201E04D
:1056A00000229CE002213846FBF7DCFE0022414646
:1056B0002046FBF7D7FE002249462046FBF7D2FEE4
:1056C000002251462046FBF7CDFE002234E00122A5
:1056D00080212046FBF7C6FE012231462046FBF71B
:1056E000C1FE002202213846FBF7BCFE01224146E2
:1056F0002046FBF7B7FE012214E00122802120465C
:10570000FBF7B0FE012231462046FBF7ABFE01223B
:1057100002213846FBF7A6FE012241462046FBF750
:10572000A1FE002249462046FBF79CFE002251467E
:105730002046FBF797FE012259462046FBF792FED2
:10574000681C4FF4804670D0012D6FD0022D6ED0B2
:10575000032D6DD0042D6CD1002204212046FBF7CF
:1057600081FE00221021204606E018E019E02EE01C
:1057700034E03FE05EE06EE0FBF774FE00222021A3
:105780002046FBF76FFE012240212046FBF76AFE10
:10579000002231462046BDE8F05FFBF763BE0022E1
:1057A00049E0012280212046FBF75CFE00223146C1
:1057B0002046FBF757FE012202213846FBF752FE36
:1057C000012241462046FBF74DFE002227E0012240
:1057D00080212046FBF746FE002211E001228021B5
:1057E0002046FBF73FFE012231462046FBF73AFEFA
:1057F000012257E7012280212046FBF733FE0122D8
:1058000031462046FBF72EFE012202213846FBF7E7
:1058100029FE012241462046FBF724FE012249468B
:105820002046FBF71FFE012281E72FE030E040E039
:1058300055E060E0012280212046FBF713FE0122A3
:1058400031462046FBF70EFE012202213846FBF7C7
:1058500009FE0022B5E7012280212046FBF702FE67
:10586000012231462046FBF7FDFD01220221384688
:10587000FBF7F8FD012241462046FBF7F3FD01222C
:1058800049462046FBF7EEFD01221AE7002200E020
:10589000012204212046FBF7E5FD002210212046CD
:1058A000FBF7E0FD002220212046FBF7DBFD002274
:1058B0006AE7002204212046FBF7D4FD01221021D3
:1058C0002046FBF7CFFD002220212046FBF7CAFD32
:1058D000002240212046FBF7C5FD012259E70022A6
:1058E00004212046FBF7BEFD002210212046FBF7D5
:1058F000B9FD0122D7E7BDE8F09F00000004024097
:105900000010024008490968C90706D006498039D5
:105910000968CA074FF0604101D1704700BF0A68AB
:10592000002AFBD008707047800E00E010B50028F8
:1059300021D0114B0022001F196803E0814203D8D7
:105940000A4649680029F9D152B11368841A9C4269
:1059500004D1006818441060104602E0506000E076
:10596000186039B102680B1A934203D10B681A44CC
:1059700002604968416010BD2C0100202DE9F04112
:1059800027484FF0FF36274C0168274F491C002558
:1059900001603FE025B1012D0AD0022D17D126E08C
:1059A000218801223846FBF75DFD6188002206E070
:1059B000218800223846FBF755FD618801223846D0
:1059C000FBF750FDA18800223846FBF74BFD154937
:1059D0000020164A0839136831F810C013EA0C0F7A
:1059E00012D0134901EB051151F820600FE0218816
:1059F00000223846FBF736FD618800223846FBF767
:105A000031FDA1880122DFE7401C0428E3DB6D1C87
:105A1000042D01DA701CBDD03046BDE8F0810000D5
:105A2000140000209C00002000040240100C0240E2
:105A300084750008EFF30580002800D0012070472E
:105A400092B0FBF7BBFFFDF70BFCFDF7E3F8FDF7AA
:105A5000D7F9FDF7F1F9FDF7A9F81F491D480860CE
:105A60000846FBF7D6FB00B1FEE700200F90024688
:105A700010900FA91848FBF7ABFB00B1FEE7FDF74C
:105A8000FBF915480021C030FCF7B6FD142213497C
:105A90006846FAF724FC0021684600F0F3F8104C41
:105AA0000E4914226064143105A8FAF718FC00218D
:105AB00005A800F0E7F80949A064142228310AA8D3
:105AC000FAF70DFC00210AA800F0DCF8E06400F011
:105AD0004CF8FEE7007400402408002048750008D8
